{
	"contracts/Voting.sol": {
		"voting": {
			"abi": [
				{
					"inputs": [],
					"stateMutability": "nonpayable",
					"type": "constructor"
				},
				{
					"inputs": [
						{
							"internalType": "string",
							"name": "_name",
							"type": "string"
						},
						{
							"internalType": "string",
							"name": "_agenda",
							"type": "string"
						},
						{
							"internalType": "address",
							"name": "_candidateAddress",
							"type": "address"
						}
					],
					"name": "addCandidate",
					"outputs": [],
					"stateMutability": "nonpayable",
					"type": "function"
				},
				{
					"inputs": [
						{
							"internalType": "address",
							"name": "_voterAddress",
							"type": "address"
						},
						{
							"internalType": "string",
							"name": "_name",
							"type": "string"
						},
						{
							"internalType": "string",
							"name": "_voterIdProof",
							"type": "string"
						}
					],
					"name": "addVoter",
					"outputs": [],
					"stateMutability": "nonpayable",
					"type": "function"
				},
				{
					"inputs": [],
					"name": "candidateCount",
					"outputs": [
						{
							"internalType": "uint256",
							"name": "",
							"type": "uint256"
						}
					],
					"stateMutability": "view",
					"type": "function"
				},
				{
					"inputs": [
						{
							"internalType": "address",
							"name": "_voterAddress",
							"type": "address"
						},
						{
							"internalType": "uint256",
							"name": "_candidateId",
							"type": "uint256"
						}
					],
					"name": "castVote",
					"outputs": [],
					"stateMutability": "nonpayable",
					"type": "function"
				},
				{
					"inputs": [
						{
							"internalType": "address",
							"name": "_delegatedTo",
							"type": "address"
						}
					],
					"name": "delegateVote",
					"outputs": [],
					"stateMutability": "nonpayable",
					"type": "function"
				},
				{
					"inputs": [
						{
							"internalType": "uint256",
							"name": "_candidateId",
							"type": "uint256"
						}
					],
					"name": "fetchCadidate",
					"outputs": [
						{
							"internalType": "uint256",
							"name": "id",
							"type": "uint256"
						},
						{
							"internalType": "string",
							"name": "name",
							"type": "string"
						},
						{
							"internalType": "string",
							"name": "agenda",
							"type": "string"
						}
					],
					"stateMutability": "view",
					"type": "function"
				},
				{
					"inputs": [],
					"name": "fetchVoter",
					"outputs": [
						{
							"internalType": "string",
							"name": "name",
							"type": "string"
						},
						{
							"internalType": "string",
							"name": "voterIdProof",
							"type": "string"
						},
						{
							"internalType": "bool",
							"name": "voteDeligated",
							"type": "bool"
						},
						{
							"internalType": "bool",
							"name": "voteCasted",
							"type": "bool"
						},
						{
							"internalType": "address",
							"name": "voteDelegatedTo",
							"type": "address"
						},
						{
							"internalType": "string",
							"name": "votedCandidateName",
							"type": "string"
						}
					],
					"stateMutability": "view",
					"type": "function"
				},
				{
					"inputs": [],
					"name": "getCandidateList",
					"outputs": [
						{
							"components": [
								{
									"internalType": "string",
									"name": "name",
									"type": "string"
								},
								{
									"internalType": "string",
									"name": "agenda",
									"type": "string"
								},
								{
									"internalType": "uint256",
									"name": "votes",
									"type": "uint256"
								},
								{
									"internalType": "address",
									"name": "candidateAddress",
									"type": "address"
								}
							],
							"internalType": "struct voting.candidateDetails[]",
							"name": "",
							"type": "tuple[]"
						}
					],
					"stateMutability": "view",
					"type": "function"
				},
				{
					"inputs": [
						{
							"internalType": "uint256",
							"name": "_candidateId",
							"type": "uint256"
						}
					],
					"name": "showResults",
					"outputs": [
						{
							"internalType": "string",
							"name": "name",
							"type": "string"
						},
						{
							"internalType": "string",
							"name": "agenda",
							"type": "string"
						},
						{
							"internalType": "uint256",
							"name": "votes",
							"type": "uint256"
						}
					],
					"stateMutability": "view",
					"type": "function"
				},
				{
					"inputs": [],
					"name": "showWinner",
					"outputs": [
						{
							"internalType": "uint256",
							"name": "id",
							"type": "uint256"
						},
						{
							"internalType": "string",
							"name": "name",
							"type": "string"
						},
						{
							"internalType": "uint256",
							"name": "votes",
							"type": "uint256"
						}
					],
					"stateMutability": "view",
					"type": "function"
				},
				{
					"inputs": [],
					"name": "startElection",
					"outputs": [],
					"stateMutability": "nonpayable",
					"type": "function"
				},
				{
					"inputs": [],
					"name": "stopElection",
					"outputs": [],
					"stateMutability": "nonpayable",
					"type": "function"
				},
				{
					"inputs": [],
					"name": "totalVoteCasted",
					"outputs": [
						{
							"internalType": "uint256",
							"name": "",
							"type": "uint256"
						}
					],
					"stateMutability": "view",
					"type": "function"
				},
				{
					"inputs": [],
					"name": "voterCount",
					"outputs": [
						{
							"internalType": "uint256",
							"name": "",
							"type": "uint256"
						}
					],
					"stateMutability": "view",
					"type": "function"
				}
			],
			"devdoc": {
				"kind": "dev",
				"methods": {},
				"version": 1
			},
			"evm": {
				"assembly": "    /* \"contracts/Voting.sol\":62:5635  contract voting {... */\n  mstore(0x40, 0x80)\n    /* \"contracts/Voting.sol\":111:168  constructor() {... */\n  callvalue\n  dup1\n  iszero\n  tag_1\n  jumpi\n  0x00\n  dup1\n  revert\ntag_1:\n  pop\n    /* \"contracts/Voting.sol\":150:160  msg.sender */\n  caller\n    /* \"contracts/Voting.sol\":136:147  votingAdmin */\n  0x00\n  dup1\n    /* \"contracts/Voting.sol\":136:160  votingAdmin = msg.sender */\n  0x0100\n  exp\n  dup2\n  sload\n  dup2\n  0xffffffffffffffffffffffffffffffffffffffff\n  mul\n  not\n  and\n  swap1\n  dup4\n  0xffffffffffffffffffffffffffffffffffffffff\n  and\n  mul\n  or\n  swap1\n  sstore\n  pop\n    /* \"contracts/Voting.sol\":62:5635  contract voting {... */\n  dataSize(sub_0)\n  dup1\n  dataOffset(sub_0)\n  0x00\n  codecopy\n  0x00\n  return\nstop\n\nsub_0: assembly {\n        /* \"contracts/Voting.sol\":62:5635  contract voting {... */\n      mstore(0x40, 0x80)\n      callvalue\n      dup1\n      iszero\n      tag_1\n      jumpi\n      0x00\n      dup1\n      revert\n    tag_1:\n      pop\n      jumpi(tag_2, lt(calldatasize, 0x04))\n      shr(0xe0, calldataload(0x00))\n      dup1\n      0x79614b2e\n      gt\n      tag_17\n      jumpi\n      dup1\n      0xb31e1d4d\n      gt\n      tag_18\n      jumpi\n      dup1\n      0xb31e1d4d\n      eq\n      tag_13\n      jumpi\n      dup1\n      0xb7e03264\n      eq\n      tag_14\n      jumpi\n      dup1\n      0xfdbc4006\n      eq\n      tag_15\n      jumpi\n      dup1\n      0xff91bb45\n      eq\n      tag_16\n      jumpi\n      jump(tag_2)\n    tag_18:\n      dup1\n      0x79614b2e\n      eq\n      tag_10\n      jumpi\n      dup1\n      0x84532105\n      eq\n      tag_11\n      jumpi\n      dup1\n      0xa9a981a3\n      eq\n      tag_12\n      jumpi\n      jump(tag_2)\n    tag_17:\n      dup1\n      0x42169e48\n      gt\n      tag_19\n      jumpi\n      dup1\n      0x42169e48\n      eq\n      tag_6\n      jumpi\n      dup1\n      0x516077d5\n      eq\n      tag_7\n      jumpi\n      dup1\n      0x62d73eb8\n      eq\n      tag_8\n      jumpi\n      dup1\n      0x6f406fab\n      eq\n      tag_9\n      jumpi\n      jump(tag_2)\n    tag_19:\n      dup1\n      0x0b32ff77\n      eq\n      tag_3\n      jumpi\n      dup1\n      0x2df9feaa\n      eq\n      tag_4\n      jumpi\n      dup1\n      0x37719cbe\n      eq\n      tag_5\n      jumpi\n    tag_2:\n      0x00\n      dup1\n      revert\n        /* \"contracts/Voting.sol\":1101:1671  function addCandidate(string memory _name, string memory _agenda, address _candidateAddress) public onlyVotingAdmin {... */\n    tag_3:\n      tag_20\n      0x04\n      dup1\n      calldatasize\n      sub\n      dup2\n      add\n      swap1\n      tag_21\n      swap2\n      swap1\n      tag_22\n      jump\t// in\n    tag_21:\n      tag_23\n      jump\t// in\n    tag_20:\n      stop\n        /* \"contracts/Voting.sol\":4415:4594  function stopElection() public onlyVotingAdmin {... */\n    tag_4:\n      tag_24\n      tag_25\n      jump\t// in\n    tag_24:\n      stop\n        /* \"contracts/Voting.sol\":2252:2466  function fetchCadidate(uint _candidateId) public view returns(uint id, string memory name, string memory agenda){... */\n    tag_5:\n      tag_26\n      0x04\n      dup1\n      calldatasize\n      sub\n      dup2\n      add\n      swap1\n      tag_27\n      swap2\n      swap1\n      tag_28\n      jump\t// in\n    tag_27:\n      tag_29\n      jump\t// in\n    tag_26:\n      mload(0x40)\n      tag_30\n      swap4\n      swap3\n      swap2\n      swap1\n      tag_31\n      jump\t// in\n    tag_30:\n      mload(0x40)\n      dup1\n      swap2\n      sub\n      swap1\n      return\n        /* \"contracts/Voting.sol\":282:304  uint public voterCount */\n    tag_6:\n      tag_32\n      tag_33\n      jump\t// in\n    tag_32:\n      mload(0x40)\n      tag_34\n      swap2\n      swap1\n      tag_35\n      jump\t// in\n    tag_34:\n      mload(0x40)\n      dup1\n      swap2\n      sub\n      swap1\n      return\n        /* \"contracts/Voting.sol\":1677:2246  function addVoter(address _voterAddress, string memory _name, string memory _voterIdProof) public onlyVotingAdmin {... */\n    tag_7:\n      tag_36\n      0x04\n      dup1\n      calldatasize\n      sub\n      dup2\n      add\n      swap1\n      tag_37\n      swap2\n      swap1\n      tag_38\n      jump\t// in\n    tag_37:\n      tag_39\n      jump\t// in\n    tag_36:\n      stop\n        /* \"contracts/Voting.sol\":3228:3317  function startElection() public onlyVotingAdmin {... */\n    tag_8:\n      tag_40\n      tag_41\n      jump\t// in\n    tag_40:\n      stop\n        /* \"contracts/Voting.sol\":311:338  uint public totalVoteCasted */\n    tag_9:\n      tag_42\n      tag_43\n      jump\t// in\n    tag_42:\n      mload(0x40)\n      tag_44\n      swap2\n      swap1\n      tag_35\n      jump\t// in\n    tag_44:\n      mload(0x40)\n      dup1\n      swap2\n      sub\n      swap1\n      return\n        /* \"contracts/Voting.sol\":4600:4896  function showResults(uint _candidateId) public view returns (string memory name, string memory agenda, uint votes){... */\n    tag_10:\n      tag_45\n      0x04\n      dup1\n      calldatasize\n      sub\n      dup2\n      add\n      swap1\n      tag_46\n      swap2\n      swap1\n      tag_28\n      jump\t// in\n    tag_46:\n      tag_47\n      jump\t// in\n    tag_45:\n      mload(0x40)\n      tag_48\n      swap4\n      swap3\n      swap2\n      swap1\n      tag_49\n      jump\t// in\n    tag_48:\n      mload(0x40)\n      dup1\n      swap2\n      sub\n      swap1\n      return\n        /* \"contracts/Voting.sol\":2472:3222  function fetchVoter() public view returns(string memory name, string memory voterIdProof, bool voteDeligated, bool voteCasted, address voteDelegatedTo,string memory votedCandidateName){... */\n    tag_11:\n      tag_50\n      tag_51\n      jump\t// in\n    tag_50:\n      mload(0x40)\n      tag_52\n      swap7\n      swap6\n      swap5\n      swap4\n      swap3\n      swap2\n      swap1\n      tag_53\n      jump\t// in\n    tag_52:\n      mload(0x40)\n      dup1\n      swap2\n      sub\n      swap1\n      return\n        /* \"contracts/Voting.sol\":249:275  uint public candidateCount */\n    tag_12:\n      tag_54\n      tag_55\n      jump\t// in\n    tag_54:\n      mload(0x40)\n      tag_56\n      swap2\n      swap1\n      tag_35\n      jump\t// in\n    tag_56:\n      mload(0x40)\n      dup1\n      swap2\n      sub\n      swap1\n      return\n        /* \"contracts/Voting.sol\":3323:3793  function delegateVote(address _delegatedTo) public {... */\n    tag_13:\n      tag_57\n      0x04\n      dup1\n      calldatasize\n      sub\n      dup2\n      add\n      swap1\n      tag_58\n      swap2\n      swap1\n      tag_59\n      jump\t// in\n    tag_58:\n      tag_60\n      jump\t// in\n    tag_57:\n      stop\n        /* \"contracts/Voting.sol\":4902:5515  function showWinner() public view returns(uint id,string memory name, uint votes){... */\n    tag_14:\n      tag_61\n      tag_62\n      jump\t// in\n    tag_61:\n      mload(0x40)\n      tag_63\n      swap4\n      swap3\n      swap2\n      swap1\n      tag_64\n      jump\t// in\n    tag_63:\n      mload(0x40)\n      dup1\n      swap2\n      sub\n      swap1\n      return\n        /* \"contracts/Voting.sol\":5521:5632  function getCandidateList() public view returns (candidateDetails[] memory){... */\n    tag_15:\n      tag_65\n      tag_66\n      jump\t// in\n    tag_65:\n      mload(0x40)\n      tag_67\n      swap2\n      swap1\n      tag_68\n      jump\t// in\n    tag_67:\n      mload(0x40)\n      dup1\n      swap2\n      sub\n      swap1\n      return\n        /* \"contracts/Voting.sol\":3799:4409  function castVote(address _voterAddress, uint _candidateId) public {... */\n    tag_16:\n      tag_69\n      0x04\n      dup1\n      calldatasize\n      sub\n      dup2\n      add\n      swap1\n      tag_70\n      swap2\n      swap1\n      tag_71\n      jump\t// in\n    tag_70:\n      tag_72\n      jump\t// in\n    tag_69:\n      stop\n        /* \"contracts/Voting.sol\":1101:1671  function addCandidate(string memory _name, string memory _agenda, address _candidateAddress) public onlyVotingAdmin {... */\n    tag_23:\n        /* \"contracts/Voting.sol\":1010:1020  msg.sender */\n      caller\n        /* \"contracts/Voting.sol\":995:1020  votingAdmin == msg.sender */\n      0xffffffffffffffffffffffffffffffffffffffff\n      and\n        /* \"contracts/Voting.sol\":995:1006  votingAdmin */\n      0x00\n      dup1\n      sload\n      swap1\n      0x0100\n      exp\n      swap1\n      div\n      0xffffffffffffffffffffffffffffffffffffffff\n      and\n        /* \"contracts/Voting.sol\":995:1020  votingAdmin == msg.sender */\n      0xffffffffffffffffffffffffffffffffffffffff\n      and\n      eq\n        /* \"contracts/Voting.sol\":987:1075  require(votingAdmin == msg.sender,\"Only Voting Admin is allowed to perform this action\") */\n      tag_74\n      jumpi\n      mload(0x40)\n      0x08c379a000000000000000000000000000000000000000000000000000000000\n      dup2\n      mstore\n      0x04\n      add\n      tag_75\n      swap1\n      tag_76\n      jump\t// in\n    tag_75:\n      mload(0x40)\n      dup1\n      swap2\n      sub\n      swap1\n      revert\n    tag_74:\n        /* \"contracts/Voting.sol\":1237:1252  electionStarted */\n      0x00\n      0x14\n      swap1\n      sload\n      swap1\n      0x0100\n      exp\n      swap1\n      div\n      0xff\n      and\n        /* \"contracts/Voting.sol\":1236:1252  !electionStarted */\n      iszero\n        /* \"contracts/Voting.sol\":1228:1297  require(!electionStarted, \"Cannot add Candidate as election started\") */\n      tag_78\n      jumpi\n      mload(0x40)\n      0x08c379a000000000000000000000000000000000000000000000000000000000\n      dup2\n      mstore\n      0x04\n      add\n      tag_79\n      swap1\n      tag_80\n      jump\t// in\n    tag_79:\n      mload(0x40)\n      dup1\n      swap2\n      sub\n      swap1\n      revert\n    tag_78:\n        /* \"contracts/Voting.sol\":1318:1344  candidateAddressRegistered */\n      0x06\n        /* \"contracts/Voting.sol\":1318:1363  candidateAddressRegistered[_candidateAddress] */\n      0x00\n        /* \"contracts/Voting.sol\":1345:1362  _candidateAddress */\n      dup3\n        /* \"contracts/Voting.sol\":1318:1363  candidateAddressRegistered[_candidateAddress] */\n      0xffffffffffffffffffffffffffffffffffffffff\n      and\n      0xffffffffffffffffffffffffffffffffffffffff\n      and\n      dup2\n      mstore\n      0x20\n      add\n      swap1\n      dup2\n      mstore\n      0x20\n      add\n      0x00\n      keccak256\n      0x00\n      swap1\n      sload\n      swap1\n      0x0100\n      exp\n      swap1\n      div\n      0xff\n      and\n        /* \"contracts/Voting.sol\":1316:1364  !(candidateAddressRegistered[_candidateAddress]) */\n      iszero\n        /* \"contracts/Voting.sol\":1308:1397  require(!(candidateAddressRegistered[_candidateAddress]), \"Candidate Already Registered\") */\n      tag_81\n      jumpi\n      mload(0x40)\n      0x08c379a000000000000000000000000000000000000000000000000000000000\n      dup2\n      mstore\n      0x04\n      add\n      tag_82\n      swap1\n      tag_83\n      jump\t// in\n    tag_82:\n      mload(0x40)\n      dup1\n      swap2\n      sub\n      swap1\n      revert\n    tag_81:\n        /* \"contracts/Voting.sol\":1442:1493  candidateDetails(_name,_agenda,0,_candidateAddress) */\n      mload(0x40)\n      dup1\n      0x80\n      add\n      0x40\n      mstore\n      dup1\n        /* \"contracts/Voting.sol\":1459:1464  _name */\n      dup5\n        /* \"contracts/Voting.sol\":1442:1493  candidateDetails(_name,_agenda,0,_candidateAddress) */\n      dup2\n      mstore\n      0x20\n      add\n        /* \"contracts/Voting.sol\":1465:1472  _agenda */\n      dup4\n        /* \"contracts/Voting.sol\":1442:1493  candidateDetails(_name,_agenda,0,_candidateAddress) */\n      dup2\n      mstore\n      0x20\n      add\n        /* \"contracts/Voting.sol\":1473:1474  0 */\n      0x00\n        /* \"contracts/Voting.sol\":1442:1493  candidateDetails(_name,_agenda,0,_candidateAddress) */\n      dup2\n      mstore\n      0x20\n      add\n        /* \"contracts/Voting.sol\":1475:1492  _candidateAddress */\n      dup3\n        /* \"contracts/Voting.sol\":1442:1493  candidateDetails(_name,_agenda,0,_candidateAddress) */\n      0xffffffffffffffffffffffffffffffffffffffff\n      and\n      dup2\n      mstore\n      pop\n        /* \"contracts/Voting.sol\":1408:1417  candidate */\n      0x07\n        /* \"contracts/Voting.sol\":1408:1430  candidate[candidateId] */\n      0x00\n        /* \"contracts/Voting.sol\":1418:1429  candidateId */\n      sload(0x01)\n        /* \"contracts/Voting.sol\":1408:1430  candidate[candidateId] */\n      dup2\n      mstore\n      0x20\n      add\n      swap1\n      dup2\n      mstore\n      0x20\n      add\n      0x00\n      keccak256\n        /* \"contracts/Voting.sol\":1408:1493  candidate[candidateId] =... */\n      0x00\n      dup3\n      add\n      mload\n      dup2\n      0x00\n      add\n      swap1\n      dup2\n      tag_84\n      swap2\n      swap1\n      tag_85\n      jump\t// in\n    tag_84:\n      pop\n      0x20\n      dup3\n      add\n      mload\n      dup2\n      0x01\n      add\n      swap1\n      dup2\n      tag_86\n      swap2\n      swap1\n      tag_85\n      jump\t// in\n    tag_86:\n      pop\n      0x40\n      dup3\n      add\n      mload\n      dup2\n      0x02\n      add\n      sstore\n      0x60\n      dup3\n      add\n      mload\n      dup2\n      0x03\n      add\n      exp(0x0100, 0x00)\n      dup2\n      sload\n      dup2\n      0xffffffffffffffffffffffffffffffffffffffff\n      mul\n      not\n      and\n      swap1\n      dup4\n      0xffffffffffffffffffffffffffffffffffffffff\n      and\n      mul\n      or\n      swap1\n      sstore\n      pop\n      swap1\n      pop\n      pop\n        /* \"contracts/Voting.sol\":1504:1514  candidates */\n      0x05\n        /* \"contracts/Voting.sol\":1520:1529  candidate */\n      0x07\n        /* \"contracts/Voting.sol\":1520:1542  candidate[candidateId] */\n      0x00\n        /* \"contracts/Voting.sol\":1530:1541  candidateId */\n      sload(0x01)\n        /* \"contracts/Voting.sol\":1520:1542  candidate[candidateId] */\n      dup2\n      mstore\n      0x20\n      add\n      swap1\n      dup2\n      mstore\n      0x20\n      add\n      0x00\n      keccak256\n        /* \"contracts/Voting.sol\":1504:1543  candidates.push(candidate[candidateId]) */\n      swap1\n      dup1\n      0x01\n      dup2\n      sload\n      add\n      dup1\n      dup3\n      sstore\n      dup1\n      swap2\n      pop\n      pop\n      0x01\n      swap1\n      sub\n      swap1\n      0x00\n      mstore\n      keccak256(0x00, 0x20)\n      swap1\n      0x04\n      mul\n      add\n      0x00\n      swap1\n      swap2\n      swap1\n      swap2\n      swap1\n      swap2\n      pop\n      0x00\n      dup3\n      add\n      dup2\n      0x00\n      add\n      swap1\n      dup2\n      tag_88\n      swap2\n      swap1\n      tag_89\n      jump\t// in\n    tag_88:\n      pop\n      0x01\n      dup3\n      add\n      dup2\n      0x01\n      add\n      swap1\n      dup2\n      tag_90\n      swap2\n      swap1\n      tag_89\n      jump\t// in\n    tag_90:\n      pop\n      0x02\n      dup3\n      add\n      sload\n      dup2\n      0x02\n      add\n      sstore\n      0x03\n      dup3\n      add\n      0x00\n      swap1\n      sload\n      swap1\n      0x0100\n      exp\n      swap1\n      div\n      0xffffffffffffffffffffffffffffffffffffffff\n      and\n      dup2\n      0x03\n      add\n      exp(0x0100, 0x00)\n      dup2\n      sload\n      dup2\n      0xffffffffffffffffffffffffffffffffffffffff\n      mul\n      not\n      and\n      swap1\n      dup4\n      0xffffffffffffffffffffffffffffffffffffffff\n      and\n      mul\n      or\n      swap1\n      sstore\n      pop\n      pop\n      pop\n        /* \"contracts/Voting.sol\":1569:1570  1 */\n      0x01\n        /* \"contracts/Voting.sol\":1554:1565  candidateId */\n      dup1\n      0x00\n        /* \"contracts/Voting.sol\":1554:1570  candidateId += 1 */\n      dup3\n      dup3\n      sload\n      tag_91\n      swap2\n      swap1\n      tag_92\n      jump\t// in\n    tag_91:\n      swap3\n      pop\n      pop\n      dup2\n      swap1\n      sstore\n      pop\n        /* \"contracts/Voting.sol\":1629:1633  true */\n      0x01\n        /* \"contracts/Voting.sol\":1581:1607  candidateAddressRegistered */\n      0x06\n        /* \"contracts/Voting.sol\":1581:1626  candidateAddressRegistered[_candidateAddress] */\n      0x00\n        /* \"contracts/Voting.sol\":1608:1625  _candidateAddress */\n      dup4\n        /* \"contracts/Voting.sol\":1581:1626  candidateAddressRegistered[_candidateAddress] */\n      0xffffffffffffffffffffffffffffffffffffffff\n      and\n      0xffffffffffffffffffffffffffffffffffffffff\n      and\n      dup2\n      mstore\n      0x20\n      add\n      swap1\n      dup2\n      mstore\n      0x20\n      add\n      0x00\n      keccak256\n      0x00\n        /* \"contracts/Voting.sol\":1581:1633  candidateAddressRegistered[_candidateAddress] = true */\n      0x0100\n      exp\n      dup2\n      sload\n      dup2\n      0xff\n      mul\n      not\n      and\n      swap1\n      dup4\n      iszero\n      iszero\n      mul\n      or\n      swap1\n      sstore\n      pop\n        /* \"contracts/Voting.sol\":1662:1663  1 */\n      0x01\n        /* \"contracts/Voting.sol\":1644:1658  candidateCount */\n      0x02\n      0x00\n        /* \"contracts/Voting.sol\":1644:1663  candidateCount += 1 */\n      dup3\n      dup3\n      sload\n      tag_93\n      swap2\n      swap1\n      tag_92\n      jump\t// in\n    tag_93:\n      swap3\n      pop\n      pop\n      dup2\n      swap1\n      sstore\n      pop\n        /* \"contracts/Voting.sol\":1101:1671  function addCandidate(string memory _name, string memory _agenda, address _candidateAddress) public onlyVotingAdmin {... */\n      pop\n      pop\n      pop\n      jump\t// out\n        /* \"contracts/Voting.sol\":4415:4594  function stopElection() public onlyVotingAdmin {... */\n    tag_25:\n        /* \"contracts/Voting.sol\":1010:1020  msg.sender */\n      caller\n        /* \"contracts/Voting.sol\":995:1020  votingAdmin == msg.sender */\n      0xffffffffffffffffffffffffffffffffffffffff\n      and\n        /* \"contracts/Voting.sol\":995:1006  votingAdmin */\n      0x00\n      dup1\n      sload\n      swap1\n      0x0100\n      exp\n      swap1\n      div\n      0xffffffffffffffffffffffffffffffffffffffff\n      and\n        /* \"contracts/Voting.sol\":995:1020  votingAdmin == msg.sender */\n      0xffffffffffffffffffffffffffffffffffffffff\n      and\n      eq\n        /* \"contracts/Voting.sol\":987:1075  require(votingAdmin == msg.sender,\"Only Voting Admin is allowed to perform this action\") */\n      tag_95\n      jumpi\n      mload(0x40)\n      0x08c379a000000000000000000000000000000000000000000000000000000000\n      dup2\n      mstore\n      0x04\n      add\n      tag_96\n      swap1\n      tag_76\n      jump\t// in\n    tag_96:\n      mload(0x40)\n      dup1\n      swap2\n      sub\n      swap1\n      revert\n    tag_95:\n        /* \"contracts/Voting.sol\":4481:4496  electionStarted */\n      0x00\n      0x14\n      swap1\n      sload\n      swap1\n      0x0100\n      exp\n      swap1\n      div\n      0xff\n      and\n        /* \"contracts/Voting.sol\":4473:4521  require(electionStarted, \"Election Not Started\") */\n      tag_98\n      jumpi\n      mload(0x40)\n      0x08c379a000000000000000000000000000000000000000000000000000000000\n      dup2\n      mstore\n      0x04\n      add\n      tag_99\n      swap1\n      tag_100\n      jump\t// in\n    tag_99:\n      mload(0x40)\n      dup1\n      swap2\n      sub\n      swap1\n      revert\n    tag_98:\n        /* \"contracts/Voting.sol\":4548:4552  true */\n      0x01\n        /* \"contracts/Voting.sol\":4532:4545  electionEnded */\n      0x00\n      0x15\n        /* \"contracts/Voting.sol\":4532:4552  electionEnded = true */\n      0x0100\n      exp\n      dup2\n      sload\n      dup2\n      0xff\n      mul\n      not\n      and\n      swap1\n      dup4\n      iszero\n      iszero\n      mul\n      or\n      swap1\n      sstore\n      pop\n        /* \"contracts/Voting.sol\":4581:4586  false */\n      0x00\n        /* \"contracts/Voting.sol\":4563:4578  electionStarted */\n      dup1\n      0x14\n        /* \"contracts/Voting.sol\":4563:4586  electionStarted = false */\n      0x0100\n      exp\n      dup2\n      sload\n      dup2\n      0xff\n      mul\n      not\n      and\n      swap1\n      dup4\n      iszero\n      iszero\n      mul\n      or\n      swap1\n      sstore\n      pop\n        /* \"contracts/Voting.sol\":4415:4594  function stopElection() public onlyVotingAdmin {... */\n      jump\t// out\n        /* \"contracts/Voting.sol\":2252:2466  function fetchCadidate(uint _candidateId) public view returns(uint id, string memory name, string memory agenda){... */\n    tag_29:\n        /* \"contracts/Voting.sol\":2314:2321  uint id */\n      0x00\n        /* \"contracts/Voting.sol\":2323:2341  string memory name */\n      0x60\n        /* \"contracts/Voting.sol\":2343:2363  string memory agenda */\n      dup1\n        /* \"contracts/Voting.sol\":2383:2395  _candidateId */\n      dup4\n        /* \"contracts/Voting.sol\":2396:2406  candidates */\n      0x05\n        /* \"contracts/Voting.sol\":2407:2419  _candidateId */\n      dup6\n        /* \"contracts/Voting.sol\":2396:2420  candidates[_candidateId] */\n      dup2\n      sload\n      dup2\n      lt\n      tag_102\n      jumpi\n      tag_103\n      tag_104\n      jump\t// in\n    tag_103:\n    tag_102:\n      swap1\n      0x00\n      mstore\n      keccak256(0x00, 0x20)\n      swap1\n      0x04\n      mul\n      add\n        /* \"contracts/Voting.sol\":2396:2425  candidates[_candidateId].name */\n      0x00\n      add\n        /* \"contracts/Voting.sol\":2426:2436  candidates */\n      0x05\n        /* \"contracts/Voting.sol\":2437:2449  _candidateId */\n      dup7\n        /* \"contracts/Voting.sol\":2426:2450  candidates[_candidateId] */\n      dup2\n      sload\n      dup2\n      lt\n      tag_106\n      jumpi\n      tag_107\n      tag_104\n      jump\t// in\n    tag_107:\n    tag_106:\n      swap1\n      0x00\n      mstore\n      keccak256(0x00, 0x20)\n      swap1\n      0x04\n      mul\n      add\n        /* \"contracts/Voting.sol\":2426:2457  candidates[_candidateId].agenda */\n      0x01\n      add\n        /* \"contracts/Voting.sol\":2375:2458  return (_candidateId,candidates[_candidateId].name,candidates[_candidateId].agenda) */\n      dup2\n      dup1\n      sload\n      tag_109\n      swap1\n      tag_110\n      jump\t// in\n    tag_109:\n      dup1\n      0x1f\n      add\n      0x20\n      dup1\n      swap2\n      div\n      mul\n      0x20\n      add\n      mload(0x40)\n      swap1\n      dup2\n      add\n      0x40\n      mstore\n      dup1\n      swap3\n      swap2\n      swap1\n      dup2\n      dup2\n      mstore\n      0x20\n      add\n      dup3\n      dup1\n      sload\n      tag_111\n      swap1\n      tag_110\n      jump\t// in\n    tag_111:\n      dup1\n      iszero\n      tag_112\n      jumpi\n      dup1\n      0x1f\n      lt\n      tag_113\n      jumpi\n      0x0100\n      dup1\n      dup4\n      sload\n      div\n      mul\n      dup4\n      mstore\n      swap2\n      0x20\n      add\n      swap2\n      jump(tag_112)\n    tag_113:\n      dup3\n      add\n      swap2\n      swap1\n      0x00\n      mstore\n      keccak256(0x00, 0x20)\n      swap1\n    tag_114:\n      dup2\n      sload\n      dup2\n      mstore\n      swap1\n      0x01\n      add\n      swap1\n      0x20\n      add\n      dup1\n      dup4\n      gt\n      tag_114\n      jumpi\n      dup3\n      swap1\n      sub\n      0x1f\n      and\n      dup3\n      add\n      swap2\n    tag_112:\n      pop\n      pop\n      pop\n      pop\n      pop\n      swap2\n      pop\n      dup1\n      dup1\n      sload\n      tag_115\n      swap1\n      tag_110\n      jump\t// in\n    tag_115:\n      dup1\n      0x1f\n      add\n      0x20\n      dup1\n      swap2\n      div\n      mul\n      0x20\n      add\n      mload(0x40)\n      swap1\n      dup2\n      add\n      0x40\n      mstore\n      dup1\n      swap3\n      swap2\n      swap1\n      dup2\n      dup2\n      mstore\n      0x20\n      add\n      dup3\n      dup1\n      sload\n      tag_116\n      swap1\n      tag_110\n      jump\t// in\n    tag_116:\n      dup1\n      iszero\n      tag_117\n      jumpi\n      dup1\n      0x1f\n      lt\n      tag_118\n      jumpi\n      0x0100\n      dup1\n      dup4\n      sload\n      div\n      mul\n      dup4\n      mstore\n      swap2\n      0x20\n      add\n      swap2\n      jump(tag_117)\n    tag_118:\n      dup3\n      add\n      swap2\n      swap1\n      0x00\n      mstore\n      keccak256(0x00, 0x20)\n      swap1\n    tag_119:\n      dup2\n      sload\n      dup2\n      mstore\n      swap1\n      0x01\n      add\n      swap1\n      0x20\n      add\n      dup1\n      dup4\n      gt\n      tag_119\n      jumpi\n      dup3\n      swap1\n      sub\n      0x1f\n      and\n      dup3\n      add\n      swap2\n    tag_117:\n      pop\n      pop\n      pop\n      pop\n      pop\n      swap1\n      pop\n      swap3\n      pop\n      swap3\n      pop\n      swap3\n      pop\n        /* \"contracts/Voting.sol\":2252:2466  function fetchCadidate(uint _candidateId) public view returns(uint id, string memory name, string memory agenda){... */\n      swap2\n      swap4\n      swap1\n      swap3\n      pop\n      jump\t// out\n        /* \"contracts/Voting.sol\":282:304  uint public voterCount */\n    tag_33:\n      sload(0x03)\n      dup2\n      jump\t// out\n        /* \"contracts/Voting.sol\":1677:2246  function addVoter(address _voterAddress, string memory _name, string memory _voterIdProof) public onlyVotingAdmin {... */\n    tag_39:\n        /* \"contracts/Voting.sol\":1010:1020  msg.sender */\n      caller\n        /* \"contracts/Voting.sol\":995:1020  votingAdmin == msg.sender */\n      0xffffffffffffffffffffffffffffffffffffffff\n      and\n        /* \"contracts/Voting.sol\":995:1006  votingAdmin */\n      0x00\n      dup1\n      sload\n      swap1\n      0x0100\n      exp\n      swap1\n      div\n      0xffffffffffffffffffffffffffffffffffffffff\n      and\n        /* \"contracts/Voting.sol\":995:1020  votingAdmin == msg.sender */\n      0xffffffffffffffffffffffffffffffffffffffff\n      and\n      eq\n        /* \"contracts/Voting.sol\":987:1075  require(votingAdmin == msg.sender,\"Only Voting Admin is allowed to perform this action\") */\n      tag_121\n      jumpi\n      mload(0x40)\n      0x08c379a000000000000000000000000000000000000000000000000000000000\n      dup2\n      mstore\n      0x04\n      add\n      tag_122\n      swap1\n      tag_76\n      jump\t// in\n    tag_122:\n      mload(0x40)\n      dup1\n      swap2\n      sub\n      swap1\n      revert\n    tag_121:\n        /* \"contracts/Voting.sol\":1811:1829  uniqueVoterIdProof */\n      0x09\n        /* \"contracts/Voting.sol\":1830:1843  _voterIdProof */\n      dup2\n        /* \"contracts/Voting.sol\":1811:1844  uniqueVoterIdProof[_voterIdProof] */\n      mload(0x40)\n      tag_124\n      swap2\n      swap1\n      tag_125\n      jump\t// in\n    tag_124:\n      swap1\n      dup2\n      mstore\n      0x20\n      add\n      mload(0x40)\n      dup1\n      swap2\n      sub\n      swap1\n      keccak256\n      0x00\n      swap1\n      sload\n      swap1\n      0x0100\n      exp\n      swap1\n      div\n      0xff\n      and\n        /* \"contracts/Voting.sol\":1810:1844  !uniqueVoterIdProof[_voterIdProof] */\n      iszero\n        /* \"contracts/Voting.sol\":1802:1892  require(!uniqueVoterIdProof[_voterIdProof], \"Voter with this id proof already registered\") */\n      tag_126\n      jumpi\n      mload(0x40)\n      0x08c379a000000000000000000000000000000000000000000000000000000000\n      dup2\n      mstore\n      0x04\n      add\n      tag_127\n      swap1\n      tag_128\n      jump\t// in\n    tag_127:\n      mload(0x40)\n      dup1\n      swap2\n      sub\n      swap1\n      revert\n    tag_126:\n        /* \"contracts/Voting.sol\":1955:1956  0 */\n      0x00\n        /* \"contracts/Voting.sol\":1919:1924  voter */\n      0x08\n        /* \"contracts/Voting.sol\":1919:1939  voter[_voterAddress] */\n      0x00\n        /* \"contracts/Voting.sol\":1925:1938  _voterAddress */\n      dup6\n        /* \"contracts/Voting.sol\":1919:1939  voter[_voterAddress] */\n      0xffffffffffffffffffffffffffffffffffffffff\n      and\n      0xffffffffffffffffffffffffffffffffffffffff\n      and\n      dup2\n      mstore\n      0x20\n      add\n      swap1\n      dup2\n      mstore\n      0x20\n      add\n      0x00\n      keccak256\n        /* \"contracts/Voting.sol\":1919:1944  voter[_voterAddress].name */\n      0x00\n      add\n        /* \"contracts/Voting.sol\":1913:1952  bytes(voter[_voterAddress].name).length */\n      dup1\n      sload\n      tag_129\n      swap1\n      tag_110\n      jump\t// in\n    tag_129:\n      swap1\n      pop\n        /* \"contracts/Voting.sol\":1913:1956  bytes(voter[_voterAddress].name).length > 0 */\n      gt\n        /* \"contracts/Voting.sol\":1911:1957  !(bytes(voter[_voterAddress].name).length > 0) */\n      iszero\n        /* \"contracts/Voting.sol\":1903:1986  require(!(bytes(voter[_voterAddress].name).length > 0), \"Voter Already Registered\") */\n      tag_130\n      jumpi\n      mload(0x40)\n      0x08c379a000000000000000000000000000000000000000000000000000000000\n      dup2\n      mstore\n      0x04\n      add\n      tag_131\n      swap1\n      tag_132\n      jump\t// in\n    tag_131:\n      mload(0x40)\n      dup1\n      swap2\n      sub\n      swap1\n      revert\n    tag_130:\n        /* \"contracts/Voting.sol\":2006:2021  electionStarted */\n      0x00\n      0x14\n      swap1\n      sload\n      swap1\n      0x0100\n      exp\n      swap1\n      div\n      0xff\n      and\n        /* \"contracts/Voting.sol\":2005:2021  !electionStarted */\n      iszero\n        /* \"contracts/Voting.sol\":1997:2062  require(!electionStarted, \"Cannot add Voter as election started\") */\n      tag_133\n      jumpi\n      mload(0x40)\n      0x08c379a000000000000000000000000000000000000000000000000000000000\n      dup2\n      mstore\n      0x04\n      add\n      tag_134\n      swap1\n      tag_135\n      jump\t// in\n    tag_134:\n      mload(0x40)\n      dup1\n      swap2\n      sub\n      swap1\n      revert\n    tag_133:\n        /* \"contracts/Voting.sol\":2105:2161  voterDetails(_name,_voterIdProof,false,false,address(0)) */\n      mload(0x40)\n      dup1\n      0xa0\n      add\n      0x40\n      mstore\n      dup1\n        /* \"contracts/Voting.sol\":2118:2123  _name */\n      dup4\n        /* \"contracts/Voting.sol\":2105:2161  voterDetails(_name,_voterIdProof,false,false,address(0)) */\n      dup2\n      mstore\n      0x20\n      add\n        /* \"contracts/Voting.sol\":2124:2137  _voterIdProof */\n      dup3\n        /* \"contracts/Voting.sol\":2105:2161  voterDetails(_name,_voterIdProof,false,false,address(0)) */\n      dup2\n      mstore\n      0x20\n      add\n        /* \"contracts/Voting.sol\":2138:2143  false */\n      0x00\n        /* \"contracts/Voting.sol\":2105:2161  voterDetails(_name,_voterIdProof,false,false,address(0)) */\n      iszero\n      iszero\n      dup2\n      mstore\n      0x20\n      add\n        /* \"contracts/Voting.sol\":2144:2149  false */\n      0x00\n        /* \"contracts/Voting.sol\":2105:2161  voterDetails(_name,_voterIdProof,false,false,address(0)) */\n      iszero\n      iszero\n      dup2\n      mstore\n      0x20\n      add\n        /* \"contracts/Voting.sol\":2158:2159  0 */\n      0x00\n        /* \"contracts/Voting.sol\":2105:2161  voterDetails(_name,_voterIdProof,false,false,address(0)) */\n      0xffffffffffffffffffffffffffffffffffffffff\n      and\n      dup2\n      mstore\n      pop\n        /* \"contracts/Voting.sol\":2073:2078  voter */\n      0x08\n        /* \"contracts/Voting.sol\":2073:2093  voter[_voterAddress] */\n      0x00\n        /* \"contracts/Voting.sol\":2079:2092  _voterAddress */\n      dup6\n        /* \"contracts/Voting.sol\":2073:2093  voter[_voterAddress] */\n      0xffffffffffffffffffffffffffffffffffffffff\n      and\n      0xffffffffffffffffffffffffffffffffffffffff\n      and\n      dup2\n      mstore\n      0x20\n      add\n      swap1\n      dup2\n      mstore\n      0x20\n      add\n      0x00\n      keccak256\n        /* \"contracts/Voting.sol\":2073:2161  voter[_voterAddress] =... */\n      0x00\n      dup3\n      add\n      mload\n      dup2\n      0x00\n      add\n      swap1\n      dup2\n      tag_136\n      swap2\n      swap1\n      tag_85\n      jump\t// in\n    tag_136:\n      pop\n      0x20\n      dup3\n      add\n      mload\n      dup2\n      0x01\n      add\n      swap1\n      dup2\n      tag_137\n      swap2\n      swap1\n      tag_85\n      jump\t// in\n    tag_137:\n      pop\n      0x40\n      dup3\n      add\n      mload\n      dup2\n      0x02\n      add\n      exp(0x0100, 0x00)\n      dup2\n      sload\n      dup2\n      0xff\n      mul\n      not\n      and\n      swap1\n      dup4\n      iszero\n      iszero\n      mul\n      or\n      swap1\n      sstore\n      pop\n      0x60\n      dup3\n      add\n      mload\n      dup2\n      0x02\n      add\n      exp(0x0100, 0x01)\n      dup2\n      sload\n      dup2\n      0xff\n      mul\n      not\n      and\n      swap1\n      dup4\n      iszero\n      iszero\n      mul\n      or\n      swap1\n      sstore\n      pop\n      0x80\n      dup3\n      add\n      mload\n      dup2\n      0x02\n      add\n      exp(0x0100, 0x02)\n      dup2\n      sload\n      dup2\n      0xffffffffffffffffffffffffffffffffffffffff\n      mul\n      not\n      and\n      swap1\n      dup4\n      0xffffffffffffffffffffffffffffffffffffffff\n      and\n      mul\n      or\n      swap1\n      sstore\n      pop\n      swap1\n      pop\n      pop\n        /* \"contracts/Voting.sol\":2208:2212  true */\n      0x01\n        /* \"contracts/Voting.sol\":2172:2190  uniqueVoterIdProof */\n      0x09\n        /* \"contracts/Voting.sol\":2191:2204  _voterIdProof */\n      dup3\n        /* \"contracts/Voting.sol\":2172:2205  uniqueVoterIdProof[_voterIdProof] */\n      mload(0x40)\n      tag_138\n      swap2\n      swap1\n      tag_125\n      jump\t// in\n    tag_138:\n      swap1\n      dup2\n      mstore\n      0x20\n      add\n      mload(0x40)\n      dup1\n      swap2\n      sub\n      swap1\n      keccak256\n      0x00\n        /* \"contracts/Voting.sol\":2172:2212  uniqueVoterIdProof[_voterIdProof] = true */\n      0x0100\n      exp\n      dup2\n      sload\n      dup2\n      0xff\n      mul\n      not\n      and\n      swap1\n      dup4\n      iszero\n      iszero\n      mul\n      or\n      swap1\n      sstore\n      pop\n        /* \"contracts/Voting.sol\":2237:2238  1 */\n      0x01\n        /* \"contracts/Voting.sol\":2223:2233  voterCount */\n      0x03\n      0x00\n        /* \"contracts/Voting.sol\":2223:2238  voterCount += 1 */\n      dup3\n      dup3\n      sload\n      tag_139\n      swap2\n      swap1\n      tag_92\n      jump\t// in\n    tag_139:\n      swap3\n      pop\n      pop\n      dup2\n      swap1\n      sstore\n      pop\n        /* \"contracts/Voting.sol\":1677:2246  function addVoter(address _voterAddress, string memory _name, string memory _voterIdProof) public onlyVotingAdmin {... */\n      pop\n      pop\n      pop\n      jump\t// out\n        /* \"contracts/Voting.sol\":3228:3317  function startElection() public onlyVotingAdmin {... */\n    tag_41:\n        /* \"contracts/Voting.sol\":1010:1020  msg.sender */\n      caller\n        /* \"contracts/Voting.sol\":995:1020  votingAdmin == msg.sender */\n      0xffffffffffffffffffffffffffffffffffffffff\n      and\n        /* \"contracts/Voting.sol\":995:1006  votingAdmin */\n      0x00\n      dup1\n      sload\n      swap1\n      0x0100\n      exp\n      swap1\n      div\n      0xffffffffffffffffffffffffffffffffffffffff\n      and\n        /* \"contracts/Voting.sol\":995:1020  votingAdmin == msg.sender */\n      0xffffffffffffffffffffffffffffffffffffffff\n      and\n      eq\n        /* \"contracts/Voting.sol\":987:1075  require(votingAdmin == msg.sender,\"Only Voting Admin is allowed to perform this action\") */\n      tag_141\n      jumpi\n      mload(0x40)\n      0x08c379a000000000000000000000000000000000000000000000000000000000\n      dup2\n      mstore\n      0x04\n      add\n      tag_142\n      swap1\n      tag_76\n      jump\t// in\n    tag_142:\n      mload(0x40)\n      dup1\n      swap2\n      sub\n      swap1\n      revert\n    tag_141:\n        /* \"contracts/Voting.sol\":3305:3309  true */\n      0x01\n        /* \"contracts/Voting.sol\":3287:3302  electionStarted */\n      0x00\n      0x14\n        /* \"contracts/Voting.sol\":3287:3309  electionStarted = true */\n      0x0100\n      exp\n      dup2\n      sload\n      dup2\n      0xff\n      mul\n      not\n      and\n      swap1\n      dup4\n      iszero\n      iszero\n      mul\n      or\n      swap1\n      sstore\n      pop\n        /* \"contracts/Voting.sol\":3228:3317  function startElection() public onlyVotingAdmin {... */\n      jump\t// out\n        /* \"contracts/Voting.sol\":311:338  uint public totalVoteCasted */\n    tag_43:\n      sload(0x04)\n      dup2\n      jump\t// out\n        /* \"contracts/Voting.sol\":4600:4896  function showResults(uint _candidateId) public view returns (string memory name, string memory agenda, uint votes){... */\n    tag_47:\n        /* \"contracts/Voting.sol\":4661:4679  string memory name */\n      0x60\n        /* \"contracts/Voting.sol\":4681:4701  string memory agenda */\n      dup1\n        /* \"contracts/Voting.sol\":4703:4713  uint votes */\n      0x00\n        /* \"contracts/Voting.sol\":4733:4746  electionEnded */\n      dup1\n      0x15\n      swap1\n      sload\n      swap1\n      0x0100\n      exp\n      swap1\n      div\n      0xff\n      and\n        /* \"contracts/Voting.sol\":4725:4777  require(electionEnded, \"Election has not ended yet\") */\n      tag_145\n      jumpi\n      mload(0x40)\n      0x08c379a000000000000000000000000000000000000000000000000000000000\n      dup2\n      mstore\n      0x04\n      add\n      tag_146\n      swap1\n      tag_147\n      jump\t// in\n    tag_146:\n      mload(0x40)\n      dup1\n      swap2\n      sub\n      swap1\n      revert\n    tag_145:\n        /* \"contracts/Voting.sol\":4795:4805  candidates */\n      0x05\n        /* \"contracts/Voting.sol\":4806:4818  _candidateId */\n      dup5\n        /* \"contracts/Voting.sol\":4795:4819  candidates[_candidateId] */\n      dup2\n      sload\n      dup2\n      lt\n      tag_148\n      jumpi\n      tag_149\n      tag_104\n      jump\t// in\n    tag_149:\n    tag_148:\n      swap1\n      0x00\n      mstore\n      keccak256(0x00, 0x20)\n      swap1\n      0x04\n      mul\n      add\n        /* \"contracts/Voting.sol\":4795:4824  candidates[_candidateId].name */\n      0x00\n      add\n        /* \"contracts/Voting.sol\":4825:4835  candidates */\n      0x05\n        /* \"contracts/Voting.sol\":4836:4848  _candidateId */\n      dup6\n        /* \"contracts/Voting.sol\":4825:4849  candidates[_candidateId] */\n      dup2\n      sload\n      dup2\n      lt\n      tag_151\n      jumpi\n      tag_152\n      tag_104\n      jump\t// in\n    tag_152:\n    tag_151:\n      swap1\n      0x00\n      mstore\n      keccak256(0x00, 0x20)\n      swap1\n      0x04\n      mul\n      add\n        /* \"contracts/Voting.sol\":4825:4856  candidates[_candidateId].agenda */\n      0x01\n      add\n        /* \"contracts/Voting.sol\":4857:4867  candidates */\n      0x05\n        /* \"contracts/Voting.sol\":4868:4880  _candidateId */\n      dup7\n        /* \"contracts/Voting.sol\":4857:4881  candidates[_candidateId] */\n      dup2\n      sload\n      dup2\n      lt\n      tag_154\n      jumpi\n      tag_155\n      tag_104\n      jump\t// in\n    tag_155:\n    tag_154:\n      swap1\n      0x00\n      mstore\n      keccak256(0x00, 0x20)\n      swap1\n      0x04\n      mul\n      add\n        /* \"contracts/Voting.sol\":4857:4887  candidates[_candidateId].votes */\n      0x02\n      add\n      sload\n        /* \"contracts/Voting.sol\":4788:4888  return(candidates[_candidateId].name,candidates[_candidateId].agenda,candidates[_candidateId].votes) */\n      dup3\n      dup1\n      sload\n      tag_157\n      swap1\n      tag_110\n      jump\t// in\n    tag_157:\n      dup1\n      0x1f\n      add\n      0x20\n      dup1\n      swap2\n      div\n      mul\n      0x20\n      add\n      mload(0x40)\n      swap1\n      dup2\n      add\n      0x40\n      mstore\n      dup1\n      swap3\n      swap2\n      swap1\n      dup2\n      dup2\n      mstore\n      0x20\n      add\n      dup3\n      dup1\n      sload\n      tag_158\n      swap1\n      tag_110\n      jump\t// in\n    tag_158:\n      dup1\n      iszero\n      tag_159\n      jumpi\n      dup1\n      0x1f\n      lt\n      tag_160\n      jumpi\n      0x0100\n      dup1\n      dup4\n      sload\n      div\n      mul\n      dup4\n      mstore\n      swap2\n      0x20\n      add\n      swap2\n      jump(tag_159)\n    tag_160:\n      dup3\n      add\n      swap2\n      swap1\n      0x00\n      mstore\n      keccak256(0x00, 0x20)\n      swap1\n    tag_161:\n      dup2\n      sload\n      dup2\n      mstore\n      swap1\n      0x01\n      add\n      swap1\n      0x20\n      add\n      dup1\n      dup4\n      gt\n      tag_161\n      jumpi\n      dup3\n      swap1\n      sub\n      0x1f\n      and\n      dup3\n      add\n      swap2\n    tag_159:\n      pop\n      pop\n      pop\n      pop\n      pop\n      swap3\n      pop\n      dup2\n      dup1\n      sload\n      tag_162\n      swap1\n      tag_110\n      jump\t// in\n    tag_162:\n      dup1\n      0x1f\n      add\n      0x20\n      dup1\n      swap2\n      div\n      mul\n      0x20\n      add\n      mload(0x40)\n      swap1\n      dup2\n      add\n      0x40\n      mstore\n      dup1\n      swap3\n      swap2\n      swap1\n      dup2\n      dup2\n      mstore\n      0x20\n      add\n      dup3\n      dup1\n      sload\n      tag_163\n      swap1\n      tag_110\n      jump\t// in\n    tag_163:\n      dup1\n      iszero\n      tag_164\n      jumpi\n      dup1\n      0x1f\n      lt\n      tag_165\n      jumpi\n      0x0100\n      dup1\n      dup4\n      sload\n      div\n      mul\n      dup4\n      mstore\n      swap2\n      0x20\n      add\n      swap2\n      jump(tag_164)\n    tag_165:\n      dup3\n      add\n      swap2\n      swap1\n      0x00\n      mstore\n      keccak256(0x00, 0x20)\n      swap1\n    tag_166:\n      dup2\n      sload\n      dup2\n      mstore\n      swap1\n      0x01\n      add\n      swap1\n      0x20\n      add\n      dup1\n      dup4\n      gt\n      tag_166\n      jumpi\n      dup3\n      swap1\n      sub\n      0x1f\n      and\n      dup3\n      add\n      swap2\n    tag_164:\n      pop\n      pop\n      pop\n      pop\n      pop\n      swap2\n      pop\n      swap3\n      pop\n      swap3\n      pop\n      swap3\n      pop\n        /* \"contracts/Voting.sol\":4600:4896  function showResults(uint _candidateId) public view returns (string memory name, string memory agenda, uint votes){... */\n      swap2\n      swap4\n      swap1\n      swap3\n      pop\n      jump\t// out\n        /* \"contracts/Voting.sol\":2472:3222  function fetchVoter() public view returns(string memory name, string memory voterIdProof, bool voteDeligated, bool voteCasted, address voteDelegatedTo,string memory votedCandidateName){... */\n    tag_51:\n        /* \"contracts/Voting.sol\":2514:2532  string memory name */\n      0x60\n        /* \"contracts/Voting.sol\":2534:2560  string memory voterIdProof */\n      dup1\n        /* \"contracts/Voting.sol\":2562:2580  bool voteDeligated */\n      0x00\n        /* \"contracts/Voting.sol\":2582:2597  bool voteCasted */\n      dup1\n        /* \"contracts/Voting.sol\":2599:2622  address voteDelegatedTo */\n      0x00\n        /* \"contracts/Voting.sol\":2623:2655  string memory votedCandidateName */\n      0x60\n        /* \"contracts/Voting.sol\":2714:2715  0 */\n      0x00\n        /* \"contracts/Voting.sol\":2681:2686  voter */\n      0x08\n        /* \"contracts/Voting.sol\":2681:2698  voter[msg.sender] */\n      0x00\n        /* \"contracts/Voting.sol\":2687:2697  msg.sender */\n      caller\n        /* \"contracts/Voting.sol\":2681:2698  voter[msg.sender] */\n      0xffffffffffffffffffffffffffffffffffffffff\n      and\n      0xffffffffffffffffffffffffffffffffffffffff\n      and\n      dup2\n      mstore\n      0x20\n      add\n      swap1\n      dup2\n      mstore\n      0x20\n      add\n      0x00\n      keccak256\n        /* \"contracts/Voting.sol\":2681:2703  voter[msg.sender].name */\n      0x00\n      add\n        /* \"contracts/Voting.sol\":2675:2711  bytes(voter[msg.sender].name).length */\n      dup1\n      sload\n      tag_168\n      swap1\n      tag_110\n      jump\t// in\n    tag_168:\n      swap1\n      pop\n        /* \"contracts/Voting.sol\":2675:2715  bytes(voter[msg.sender].name).length > 0 */\n      gt\n        /* \"contracts/Voting.sol\":2667:2750  require(bytes(voter[msg.sender].name).length > 0, \"You are not a registered voter\") */\n      tag_169\n      jumpi\n      mload(0x40)\n      0x08c379a000000000000000000000000000000000000000000000000000000000\n      dup2\n      mstore\n      0x04\n      add\n      tag_170\n      swap1\n      tag_171\n      jump\t// in\n    tag_170:\n      mload(0x40)\n      dup1\n      swap2\n      sub\n      swap1\n      revert\n    tag_169:\n        /* \"contracts/Voting.sol\":2765:2770  voter */\n      0x08\n        /* \"contracts/Voting.sol\":2765:2782  voter[msg.sender] */\n      0x00\n        /* \"contracts/Voting.sol\":2771:2781  msg.sender */\n      caller\n        /* \"contracts/Voting.sol\":2765:2782  voter[msg.sender] */\n      0xffffffffffffffffffffffffffffffffffffffff\n      and\n      0xffffffffffffffffffffffffffffffffffffffff\n      and\n      dup2\n      mstore\n      0x20\n      add\n      swap1\n      dup2\n      mstore\n      0x20\n      add\n      0x00\n      keccak256\n        /* \"contracts/Voting.sol\":2765:2793  voter[msg.sender].voteCasted */\n      0x02\n      add\n      0x01\n      swap1\n      sload\n      swap1\n      0x0100\n      exp\n      swap1\n      div\n      0xff\n      and\n        /* \"contracts/Voting.sol\":2761:3215  if (voter[msg.sender].voteCasted) {... */\n      iszero\n      tag_172\n      jumpi\n        /* \"contracts/Voting.sol\":2818:2823  voter */\n      0x08\n        /* \"contracts/Voting.sol\":2818:2835  voter[msg.sender] */\n      0x00\n        /* \"contracts/Voting.sol\":2824:2834  msg.sender */\n      caller\n        /* \"contracts/Voting.sol\":2818:2835  voter[msg.sender] */\n      0xffffffffffffffffffffffffffffffffffffffff\n      and\n      0xffffffffffffffffffffffffffffffffffffffff\n      and\n      dup2\n      mstore\n      0x20\n      add\n      swap1\n      dup2\n      mstore\n      0x20\n      add\n      0x00\n      keccak256\n        /* \"contracts/Voting.sol\":2818:2840  voter[msg.sender].name */\n      0x00\n      add\n        /* \"contracts/Voting.sol\":2841:2846  voter */\n      0x08\n        /* \"contracts/Voting.sol\":2841:2858  voter[msg.sender] */\n      0x00\n        /* \"contracts/Voting.sol\":2847:2857  msg.sender */\n      caller\n        /* \"contracts/Voting.sol\":2841:2858  voter[msg.sender] */\n      0xffffffffffffffffffffffffffffffffffffffff\n      and\n      0xffffffffffffffffffffffffffffffffffffffff\n      and\n      dup2\n      mstore\n      0x20\n      add\n      swap1\n      dup2\n      mstore\n      0x20\n      add\n      0x00\n      keccak256\n        /* \"contracts/Voting.sol\":2841:2871  voter[msg.sender].voterIdProof */\n      0x01\n      add\n        /* \"contracts/Voting.sol\":2872:2877  voter */\n      0x08\n        /* \"contracts/Voting.sol\":2872:2889  voter[msg.sender] */\n      0x00\n        /* \"contracts/Voting.sol\":2878:2888  msg.sender */\n      caller\n        /* \"contracts/Voting.sol\":2872:2889  voter[msg.sender] */\n      0xffffffffffffffffffffffffffffffffffffffff\n      and\n      0xffffffffffffffffffffffffffffffffffffffff\n      and\n      dup2\n      mstore\n      0x20\n      add\n      swap1\n      dup2\n      mstore\n      0x20\n      add\n      0x00\n      keccak256\n        /* \"contracts/Voting.sol\":2872:2903  voter[msg.sender].voteDeligated */\n      0x02\n      add\n      0x00\n      swap1\n      sload\n      swap1\n      0x0100\n      exp\n      swap1\n      div\n      0xff\n      and\n        /* \"contracts/Voting.sol\":2904:2909  voter */\n      0x08\n        /* \"contracts/Voting.sol\":2904:2921  voter[msg.sender] */\n      0x00\n        /* \"contracts/Voting.sol\":2910:2920  msg.sender */\n      caller\n        /* \"contracts/Voting.sol\":2904:2921  voter[msg.sender] */\n      0xffffffffffffffffffffffffffffffffffffffff\n      and\n      0xffffffffffffffffffffffffffffffffffffffff\n      and\n      dup2\n      mstore\n      0x20\n      add\n      swap1\n      dup2\n      mstore\n      0x20\n      add\n      0x00\n      keccak256\n        /* \"contracts/Voting.sol\":2904:2932  voter[msg.sender].voteCasted */\n      0x02\n      add\n      0x01\n      swap1\n      sload\n      swap1\n      0x0100\n      exp\n      swap1\n      div\n      0xff\n      and\n        /* \"contracts/Voting.sol\":2933:2938  voter */\n      0x08\n        /* \"contracts/Voting.sol\":2933:2950  voter[msg.sender] */\n      0x00\n        /* \"contracts/Voting.sol\":2939:2949  msg.sender */\n      caller\n        /* \"contracts/Voting.sol\":2933:2950  voter[msg.sender] */\n      0xffffffffffffffffffffffffffffffffffffffff\n      and\n      0xffffffffffffffffffffffffffffffffffffffff\n      and\n      dup2\n      mstore\n      0x20\n      add\n      swap1\n      dup2\n      mstore\n      0x20\n      add\n      0x00\n      keccak256\n        /* \"contracts/Voting.sol\":2933:2966  voter[msg.sender].voteDelegatedTo */\n      0x02\n      add\n      0x02\n      swap1\n      sload\n      swap1\n      0x0100\n      exp\n      swap1\n      div\n      0xffffffffffffffffffffffffffffffffffffffff\n      and\n        /* \"contracts/Voting.sol\":2967:2977  candidates */\n      0x05\n        /* \"contracts/Voting.sol\":2978:2990  voteCastedTo */\n      0x0a\n        /* \"contracts/Voting.sol\":2978:3002  voteCastedTo[msg.sender] */\n      0x00\n        /* \"contracts/Voting.sol\":2991:3001  msg.sender */\n      caller\n        /* \"contracts/Voting.sol\":2978:3002  voteCastedTo[msg.sender] */\n      0xffffffffffffffffffffffffffffffffffffffff\n      and\n      0xffffffffffffffffffffffffffffffffffffffff\n      and\n      dup2\n      mstore\n      0x20\n      add\n      swap1\n      dup2\n      mstore\n      0x20\n      add\n      0x00\n      keccak256\n      sload\n        /* \"contracts/Voting.sol\":2967:3003  candidates[voteCastedTo[msg.sender]] */\n      dup2\n      sload\n      dup2\n      lt\n      tag_173\n      jumpi\n      tag_174\n      tag_104\n      jump\t// in\n    tag_174:\n    tag_173:\n      swap1\n      0x00\n      mstore\n      keccak256(0x00, 0x20)\n      swap1\n      0x04\n      mul\n      add\n        /* \"contracts/Voting.sol\":2967:3008  candidates[voteCastedTo[msg.sender]].name */\n      0x00\n      add\n        /* \"contracts/Voting.sol\":2810:3009  return (voter[msg.sender].name,voter[msg.sender].voterIdProof,voter[msg.sender].voteDeligated,voter[msg.sender].voteCasted,voter[msg.sender].voteDelegatedTo,candidates[voteCastedTo[msg.sender]].name) */\n      dup6\n      dup1\n      sload\n      tag_176\n      swap1\n      tag_110\n      jump\t// in\n    tag_176:\n      dup1\n      0x1f\n      add\n      0x20\n      dup1\n      swap2\n      div\n      mul\n      0x20\n      add\n      mload(0x40)\n      swap1\n      dup2\n      add\n      0x40\n      mstore\n      dup1\n      swap3\n      swap2\n      swap1\n      dup2\n      dup2\n      mstore\n      0x20\n      add\n      dup3\n      dup1\n      sload\n      tag_177\n      swap1\n      tag_110\n      jump\t// in\n    tag_177:\n      dup1\n      iszero\n      tag_178\n      jumpi\n      dup1\n      0x1f\n      lt\n      tag_179\n      jumpi\n      0x0100\n      dup1\n      dup4\n      sload\n      div\n      mul\n      dup4\n      mstore\n      swap2\n      0x20\n      add\n      swap2\n      jump(tag_178)\n    tag_179:\n      dup3\n      add\n      swap2\n      swap1\n      0x00\n      mstore\n      keccak256(0x00, 0x20)\n      swap1\n    tag_180:\n      dup2\n      sload\n      dup2\n      mstore\n      swap1\n      0x01\n      add\n      swap1\n      0x20\n      add\n      dup1\n      dup4\n      gt\n      tag_180\n      jumpi\n      dup3\n      swap1\n      sub\n      0x1f\n      and\n      dup3\n      add\n      swap2\n    tag_178:\n      pop\n      pop\n      pop\n      pop\n      pop\n      swap6\n      pop\n      dup5\n      dup1\n      sload\n      tag_181\n      swap1\n      tag_110\n      jump\t// in\n    tag_181:\n      dup1\n      0x1f\n      add\n      0x20\n      dup1\n      swap2\n      div\n      mul\n      0x20\n      add\n      mload(0x40)\n      swap1\n      dup2\n      add\n      0x40\n      mstore\n      dup1\n      swap3\n      swap2\n      swap1\n      dup2\n      dup2\n      mstore\n      0x20\n      add\n      dup3\n      dup1\n      sload\n      tag_182\n      swap1\n      tag_110\n      jump\t// in\n    tag_182:\n      dup1\n      iszero\n      tag_183\n      jumpi\n      dup1\n      0x1f\n      lt\n      tag_184\n      jumpi\n      0x0100\n      dup1\n      dup4\n      sload\n      div\n      mul\n      dup4\n      mstore\n      swap2\n      0x20\n      add\n      swap2\n      jump(tag_183)\n    tag_184:\n      dup3\n      add\n      swap2\n      swap1\n      0x00\n      mstore\n      keccak256(0x00, 0x20)\n      swap1\n    tag_185:\n      dup2\n      sload\n      dup2\n      mstore\n      swap1\n      0x01\n      add\n      swap1\n      0x20\n      add\n      dup1\n      dup4\n      gt\n      tag_185\n      jumpi\n      dup3\n      swap1\n      sub\n      0x1f\n      and\n      dup3\n      add\n      swap2\n    tag_183:\n      pop\n      pop\n      pop\n      pop\n      pop\n      swap5\n      pop\n      dup1\n      dup1\n      sload\n      tag_186\n      swap1\n      tag_110\n      jump\t// in\n    tag_186:\n      dup1\n      0x1f\n      add\n      0x20\n      dup1\n      swap2\n      div\n      mul\n      0x20\n      add\n      mload(0x40)\n      swap1\n      dup2\n      add\n      0x40\n      mstore\n      dup1\n      swap3\n      swap2\n      swap1\n      dup2\n      dup2\n      mstore\n      0x20\n      add\n      dup3\n      dup1\n      sload\n      tag_187\n      swap1\n      tag_110\n      jump\t// in\n    tag_187:\n      dup1\n      iszero\n      tag_188\n      jumpi\n      dup1\n      0x1f\n      lt\n      tag_189\n      jumpi\n      0x0100\n      dup1\n      dup4\n      sload\n      div\n      mul\n      dup4\n      mstore\n      swap2\n      0x20\n      add\n      swap2\n      jump(tag_188)\n    tag_189:\n      dup3\n      add\n      swap2\n      swap1\n      0x00\n      mstore\n      keccak256(0x00, 0x20)\n      swap1\n    tag_190:\n      dup2\n      sload\n      dup2\n      mstore\n      swap1\n      0x01\n      add\n      swap1\n      0x20\n      add\n      dup1\n      dup4\n      gt\n      tag_190\n      jumpi\n      dup3\n      swap1\n      sub\n      0x1f\n      and\n      dup3\n      add\n      swap2\n    tag_188:\n      pop\n      pop\n      pop\n      pop\n      pop\n      swap1\n      pop\n      swap6\n      pop\n      swap6\n      pop\n      swap6\n      pop\n      swap6\n      pop\n      swap6\n      pop\n      swap6\n      pop\n      jump(tag_167)\n        /* \"contracts/Voting.sol\":2761:3215  if (voter[msg.sender].voteCasted) {... */\n    tag_172:\n        /* \"contracts/Voting.sol\":3050:3055  voter */\n      0x08\n        /* \"contracts/Voting.sol\":3050:3067  voter[msg.sender] */\n      0x00\n        /* \"contracts/Voting.sol\":3056:3066  msg.sender */\n      caller\n        /* \"contracts/Voting.sol\":3050:3067  voter[msg.sender] */\n      0xffffffffffffffffffffffffffffffffffffffff\n      and\n      0xffffffffffffffffffffffffffffffffffffffff\n      and\n      dup2\n      mstore\n      0x20\n      add\n      swap1\n      dup2\n      mstore\n      0x20\n      add\n      0x00\n      keccak256\n        /* \"contracts/Voting.sol\":3050:3072  voter[msg.sender].name */\n      0x00\n      add\n        /* \"contracts/Voting.sol\":3073:3078  voter */\n      0x08\n        /* \"contracts/Voting.sol\":3073:3090  voter[msg.sender] */\n      0x00\n        /* \"contracts/Voting.sol\":3079:3089  msg.sender */\n      caller\n        /* \"contracts/Voting.sol\":3073:3090  voter[msg.sender] */\n      0xffffffffffffffffffffffffffffffffffffffff\n      and\n      0xffffffffffffffffffffffffffffffffffffffff\n      and\n      dup2\n      mstore\n      0x20\n      add\n      swap1\n      dup2\n      mstore\n      0x20\n      add\n      0x00\n      keccak256\n        /* \"contracts/Voting.sol\":3073:3103  voter[msg.sender].voterIdProof */\n      0x01\n      add\n        /* \"contracts/Voting.sol\":3104:3109  voter */\n      0x08\n        /* \"contracts/Voting.sol\":3104:3121  voter[msg.sender] */\n      0x00\n        /* \"contracts/Voting.sol\":3110:3120  msg.sender */\n      caller\n        /* \"contracts/Voting.sol\":3104:3121  voter[msg.sender] */\n      0xffffffffffffffffffffffffffffffffffffffff\n      and\n      0xffffffffffffffffffffffffffffffffffffffff\n      and\n      dup2\n      mstore\n      0x20\n      add\n      swap1\n      dup2\n      mstore\n      0x20\n      add\n      0x00\n      keccak256\n        /* \"contracts/Voting.sol\":3104:3135  voter[msg.sender].voteDeligated */\n      0x02\n      add\n      0x00\n      swap1\n      sload\n      swap1\n      0x0100\n      exp\n      swap1\n      div\n      0xff\n      and\n        /* \"contracts/Voting.sol\":3136:3141  voter */\n      0x08\n        /* \"contracts/Voting.sol\":3136:3153  voter[msg.sender] */\n      0x00\n        /* \"contracts/Voting.sol\":3142:3152  msg.sender */\n      caller\n        /* \"contracts/Voting.sol\":3136:3153  voter[msg.sender] */\n      0xffffffffffffffffffffffffffffffffffffffff\n      and\n      0xffffffffffffffffffffffffffffffffffffffff\n      and\n      dup2\n      mstore\n      0x20\n      add\n      swap1\n      dup2\n      mstore\n      0x20\n      add\n      0x00\n      keccak256\n        /* \"contracts/Voting.sol\":3136:3164  voter[msg.sender].voteCasted */\n      0x02\n      add\n      0x01\n      swap1\n      sload\n      swap1\n      0x0100\n      exp\n      swap1\n      div\n      0xff\n      and\n        /* \"contracts/Voting.sol\":3165:3170  voter */\n      0x08\n        /* \"contracts/Voting.sol\":3165:3182  voter[msg.sender] */\n      0x00\n        /* \"contracts/Voting.sol\":3171:3181  msg.sender */\n      caller\n        /* \"contracts/Voting.sol\":3165:3182  voter[msg.sender] */\n      0xffffffffffffffffffffffffffffffffffffffff\n      and\n      0xffffffffffffffffffffffffffffffffffffffff\n      and\n      dup2\n      mstore\n      0x20\n      add\n      swap1\n      dup2\n      mstore\n      0x20\n      add\n      0x00\n      keccak256\n        /* \"contracts/Voting.sol\":3165:3198  voter[msg.sender].voteDelegatedTo */\n      0x02\n      add\n      0x02\n      swap1\n      sload\n      swap1\n      0x0100\n      exp\n      swap1\n      div\n      0xffffffffffffffffffffffffffffffffffffffff\n      and\n        /* \"contracts/Voting.sol\":3042:3203  return (voter[msg.sender].name,voter[msg.sender].voterIdProof,voter[msg.sender].voteDeligated,voter[msg.sender].voteCasted,voter[msg.sender].voteDelegatedTo,\" \") */\n      dup5\n      dup1\n      sload\n      tag_192\n      swap1\n      tag_110\n      jump\t// in\n    tag_192:\n      dup1\n      0x1f\n      add\n      0x20\n      dup1\n      swap2\n      div\n      mul\n      0x20\n      add\n      mload(0x40)\n      swap1\n      dup2\n      add\n      0x40\n      mstore\n      dup1\n      swap3\n      swap2\n      swap1\n      dup2\n      dup2\n      mstore\n      0x20\n      add\n      dup3\n      dup1\n      sload\n      tag_193\n      swap1\n      tag_110\n      jump\t// in\n    tag_193:\n      dup1\n      iszero\n      tag_194\n      jumpi\n      dup1\n      0x1f\n      lt\n      tag_195\n      jumpi\n      0x0100\n      dup1\n      dup4\n      sload\n      div\n      mul\n      dup4\n      mstore\n      swap2\n      0x20\n      add\n      swap2\n      jump(tag_194)\n    tag_195:\n      dup3\n      add\n      swap2\n      swap1\n      0x00\n      mstore\n      keccak256(0x00, 0x20)\n      swap1\n    tag_196:\n      dup2\n      sload\n      dup2\n      mstore\n      swap1\n      0x01\n      add\n      swap1\n      0x20\n      add\n      dup1\n      dup4\n      gt\n      tag_196\n      jumpi\n      dup3\n      swap1\n      sub\n      0x1f\n      and\n      dup3\n      add\n      swap2\n    tag_194:\n      pop\n      pop\n      pop\n      pop\n      pop\n      swap5\n      pop\n      dup4\n      dup1\n      sload\n      tag_197\n      swap1\n      tag_110\n      jump\t// in\n    tag_197:\n      dup1\n      0x1f\n      add\n      0x20\n      dup1\n      swap2\n      div\n      mul\n      0x20\n      add\n      mload(0x40)\n      swap1\n      dup2\n      add\n      0x40\n      mstore\n      dup1\n      swap3\n      swap2\n      swap1\n      dup2\n      dup2\n      mstore\n      0x20\n      add\n      dup3\n      dup1\n      sload\n      tag_198\n      swap1\n      tag_110\n      jump\t// in\n    tag_198:\n      dup1\n      iszero\n      tag_199\n      jumpi\n      dup1\n      0x1f\n      lt\n      tag_200\n      jumpi\n      0x0100\n      dup1\n      dup4\n      sload\n      div\n      mul\n      dup4\n      mstore\n      swap2\n      0x20\n      add\n      swap2\n      jump(tag_199)\n    tag_200:\n      dup3\n      add\n      swap2\n      swap1\n      0x00\n      mstore\n      keccak256(0x00, 0x20)\n      swap1\n    tag_201:\n      dup2\n      sload\n      dup2\n      mstore\n      swap1\n      0x01\n      add\n      swap1\n      0x20\n      add\n      dup1\n      dup4\n      gt\n      tag_201\n      jumpi\n      dup3\n      swap1\n      sub\n      0x1f\n      and\n      dup3\n      add\n      swap2\n    tag_199:\n      pop\n      pop\n      pop\n      pop\n      pop\n      swap4\n      pop\n      mload(0x40)\n      dup1\n      0x40\n      add\n      0x40\n      mstore\n      dup1\n      0x01\n      dup2\n      mstore\n      0x20\n      add\n      0x2000000000000000000000000000000000000000000000000000000000000000\n      dup2\n      mstore\n      pop\n      swap6\n      pop\n      swap6\n      pop\n      swap6\n      pop\n      swap6\n      pop\n      swap6\n      pop\n      swap6\n      pop\n        /* \"contracts/Voting.sol\":2472:3222  function fetchVoter() public view returns(string memory name, string memory voterIdProof, bool voteDeligated, bool voteCasted, address voteDelegatedTo,string memory votedCandidateName){... */\n    tag_167:\n      swap1\n      swap2\n      swap3\n      swap4\n      swap5\n      swap6\n      jump\t// out\n        /* \"contracts/Voting.sol\":249:275  uint public candidateCount */\n    tag_55:\n      sload(0x02)\n      dup2\n      jump\t// out\n        /* \"contracts/Voting.sol\":3323:3793  function delegateVote(address _delegatedTo) public {... */\n    tag_60:\n        /* \"contracts/Voting.sol\":3393:3408  electionStarted */\n      0x00\n      0x14\n      swap1\n      sload\n      swap1\n      0x0100\n      exp\n      swap1\n      div\n      0xff\n      and\n        /* \"contracts/Voting.sol\":3385:3433  require(electionStarted, \"Election Not Started\") */\n      tag_203\n      jumpi\n      mload(0x40)\n      0x08c379a000000000000000000000000000000000000000000000000000000000\n      dup2\n      mstore\n      0x04\n      add\n      tag_204\n      swap1\n      tag_100\n      jump\t// in\n    tag_204:\n      mload(0x40)\n      dup1\n      swap2\n      sub\n      swap1\n      revert\n    tag_203:\n        /* \"contracts/Voting.sol\":3492:3493  0 */\n      0x00\n        /* \"contracts/Voting.sol\":3459:3464  voter */\n      0x08\n        /* \"contracts/Voting.sol\":3459:3476  voter[msg.sender] */\n      0x00\n        /* \"contracts/Voting.sol\":3465:3475  msg.sender */\n      caller\n        /* \"contracts/Voting.sol\":3459:3476  voter[msg.sender] */\n      0xffffffffffffffffffffffffffffffffffffffff\n      and\n      0xffffffffffffffffffffffffffffffffffffffff\n      and\n      dup2\n      mstore\n      0x20\n      add\n      swap1\n      dup2\n      mstore\n      0x20\n      add\n      0x00\n      keccak256\n        /* \"contracts/Voting.sol\":3459:3481  voter[msg.sender].name */\n      0x00\n      add\n        /* \"contracts/Voting.sol\":3453:3489  bytes(voter[msg.sender].name).length */\n      dup1\n      sload\n      tag_205\n      swap1\n      tag_110\n      jump\t// in\n    tag_205:\n      swap1\n      pop\n        /* \"contracts/Voting.sol\":3453:3493  bytes(voter[msg.sender].name).length > 0 */\n      gt\n        /* \"contracts/Voting.sol\":3444:3522  require((bytes(voter[msg.sender].name).length > 0), \"Voter is not Registered\") */\n      tag_206\n      jumpi\n      mload(0x40)\n      0x08c379a000000000000000000000000000000000000000000000000000000000\n      dup2\n      mstore\n      0x04\n      add\n      tag_207\n      swap1\n      tag_208\n      jump\t// in\n    tag_207:\n      mload(0x40)\n      dup1\n      swap2\n      sub\n      swap1\n      revert\n    tag_206:\n        /* \"contracts/Voting.sol\":3542:3547  voter */\n      0x08\n        /* \"contracts/Voting.sol\":3542:3559  voter[msg.sender] */\n      0x00\n        /* \"contracts/Voting.sol\":3548:3558  msg.sender */\n      caller\n        /* \"contracts/Voting.sol\":3542:3559  voter[msg.sender] */\n      0xffffffffffffffffffffffffffffffffffffffff\n      and\n      0xffffffffffffffffffffffffffffffffffffffff\n      and\n      dup2\n      mstore\n      0x20\n      add\n      swap1\n      dup2\n      mstore\n      0x20\n      add\n      0x00\n      keccak256\n        /* \"contracts/Voting.sol\":3542:3570  voter[msg.sender].voteCasted */\n      0x02\n      add\n      0x01\n      swap1\n      sload\n      swap1\n      0x0100\n      exp\n      swap1\n      div\n      0xff\n      and\n        /* \"contracts/Voting.sol\":3541:3570  !voter[msg.sender].voteCasted */\n      iszero\n        /* \"contracts/Voting.sol\":3533:3608  require(!voter[msg.sender].voteCasted, \"You have already casted your vote\") */\n      tag_209\n      jumpi\n      mload(0x40)\n      0x08c379a000000000000000000000000000000000000000000000000000000000\n      dup2\n      mstore\n      0x04\n      add\n      tag_210\n      swap1\n      tag_211\n      jump\t// in\n    tag_210:\n      mload(0x40)\n      dup1\n      swap2\n      sub\n      swap1\n      revert\n    tag_209:\n        /* \"contracts/Voting.sol\":3669:3670  0 */\n      0x00\n        /* \"contracts/Voting.sol\":3634:3639  voter */\n      0x08\n        /* \"contracts/Voting.sol\":3634:3653  voter[_delegatedTo] */\n      0x00\n        /* \"contracts/Voting.sol\":3640:3652  _delegatedTo */\n      dup4\n        /* \"contracts/Voting.sol\":3634:3653  voter[_delegatedTo] */\n      0xffffffffffffffffffffffffffffffffffffffff\n      and\n      0xffffffffffffffffffffffffffffffffffffffff\n      and\n      dup2\n      mstore\n      0x20\n      add\n      swap1\n      dup2\n      mstore\n      0x20\n      add\n      0x00\n      keccak256\n        /* \"contracts/Voting.sol\":3634:3658  voter[_delegatedTo].name */\n      0x00\n      add\n        /* \"contracts/Voting.sol\":3628:3666  bytes(voter[_delegatedTo].name).length */\n      dup1\n      sload\n      tag_212\n      swap1\n      tag_110\n      jump\t// in\n    tag_212:\n      swap1\n      pop\n        /* \"contracts/Voting.sol\":3628:3670  bytes(voter[_delegatedTo].name).length > 0 */\n      gt\n        /* \"contracts/Voting.sol\":3619:3726  require((bytes(voter[_delegatedTo].name).length > 0), \"Voter you are trying to delegate is not Registered\") */\n      tag_213\n      jumpi\n      mload(0x40)\n      0x08c379a000000000000000000000000000000000000000000000000000000000\n      dup2\n      mstore\n      0x04\n      add\n      tag_214\n      swap1\n      tag_215\n      jump\t// in\n    tag_214:\n      mload(0x40)\n      dup1\n      swap2\n      sub\n      swap1\n      revert\n    tag_213:\n        /* \"contracts/Voting.sol\":3773:3785  _delegatedTo */\n      dup1\n        /* \"contracts/Voting.sol\":3737:3742  voter */\n      0x08\n        /* \"contracts/Voting.sol\":3737:3754  voter[msg.sender] */\n      0x00\n        /* \"contracts/Voting.sol\":3743:3753  msg.sender */\n      caller\n        /* \"contracts/Voting.sol\":3737:3754  voter[msg.sender] */\n      0xffffffffffffffffffffffffffffffffffffffff\n      and\n      0xffffffffffffffffffffffffffffffffffffffff\n      and\n      dup2\n      mstore\n      0x20\n      add\n      swap1\n      dup2\n      mstore\n      0x20\n      add\n      0x00\n      keccak256\n        /* \"contracts/Voting.sol\":3737:3770  voter[msg.sender].voteDelegatedTo */\n      0x02\n      add\n      0x02\n        /* \"contracts/Voting.sol\":3737:3785  voter[msg.sender].voteDelegatedTo = _delegatedTo */\n      0x0100\n      exp\n      dup2\n      sload\n      dup2\n      0xffffffffffffffffffffffffffffffffffffffff\n      mul\n      not\n      and\n      swap1\n      dup4\n      0xffffffffffffffffffffffffffffffffffffffff\n      and\n      mul\n      or\n      swap1\n      sstore\n      pop\n        /* \"contracts/Voting.sol\":3323:3793  function delegateVote(address _delegatedTo) public {... */\n      pop\n      jump\t// out\n        /* \"contracts/Voting.sol\":4902:5515  function showWinner() public view returns(uint id,string memory name, uint votes){... */\n    tag_62:\n        /* \"contracts/Voting.sol\":4944:4951  uint id */\n      0x00\n        /* \"contracts/Voting.sol\":4952:4970  string memory name */\n      0x60\n        /* \"contracts/Voting.sol\":4972:4982  uint votes */\n      0x00\n        /* \"contracts/Voting.sol\":5002:5015  electionEnded */\n      dup1\n      0x15\n      swap1\n      sload\n      swap1\n      0x0100\n      exp\n      swap1\n      div\n      0xff\n      and\n        /* \"contracts/Voting.sol\":4994:5046  require(electionEnded, \"Election has not ended yet\") */\n      tag_217\n      jumpi\n      mload(0x40)\n      0x08c379a000000000000000000000000000000000000000000000000000000000\n      dup2\n      mstore\n      0x04\n      add\n      tag_218\n      swap1\n      tag_147\n      jump\t// in\n    tag_218:\n      mload(0x40)\n      dup1\n      swap2\n      sub\n      swap1\n      revert\n    tag_217:\n        /* \"contracts/Voting.sol\":5057:5078  uint winningVoteCount */\n      0x00\n        /* \"contracts/Voting.sol\":5093:5117  string memory winnerName */\n      0x60\n        /* \"contracts/Voting.sol\":5128:5150  uint winnerCandidateId */\n      0x00\n        /* \"contracts/Voting.sol\":5170:5176  uint p */\n      dup1\n        /* \"contracts/Voting.sol\":5165:5443  for (uint p = 0; p < candidates.length; p++) {... */\n    tag_219:\n        /* \"contracts/Voting.sol\":5186:5196  candidates */\n      0x05\n        /* \"contracts/Voting.sol\":5186:5203  candidates.length */\n      dup1\n      sload\n      swap1\n      pop\n        /* \"contracts/Voting.sol\":5182:5183  p */\n      dup2\n        /* \"contracts/Voting.sol\":5182:5203  p < candidates.length */\n      lt\n        /* \"contracts/Voting.sol\":5165:5443  for (uint p = 0; p < candidates.length; p++) {... */\n      iszero\n      tag_220\n      jumpi\n        /* \"contracts/Voting.sol\":5251:5267  winningVoteCount */\n      dup4\n        /* \"contracts/Voting.sol\":5229:5239  candidates */\n      0x05\n        /* \"contracts/Voting.sol\":5240:5241  p */\n      dup3\n        /* \"contracts/Voting.sol\":5229:5242  candidates[p] */\n      dup2\n      sload\n      dup2\n      lt\n      tag_222\n      jumpi\n      tag_223\n      tag_104\n      jump\t// in\n    tag_223:\n    tag_222:\n      swap1\n      0x00\n      mstore\n      keccak256(0x00, 0x20)\n      swap1\n      0x04\n      mul\n      add\n        /* \"contracts/Voting.sol\":5229:5248  candidates[p].votes */\n      0x02\n      add\n      sload\n        /* \"contracts/Voting.sol\":5229:5267  candidates[p].votes > winningVoteCount */\n      gt\n        /* \"contracts/Voting.sol\":5225:5432  if (candidates[p].votes > winningVoteCount) {... */\n      iszero\n      tag_225\n      jumpi\n        /* \"contracts/Voting.sol\":5307:5317  candidates */\n      0x05\n        /* \"contracts/Voting.sol\":5318:5319  p */\n      dup2\n        /* \"contracts/Voting.sol\":5307:5320  candidates[p] */\n      dup2\n      sload\n      dup2\n      lt\n      tag_226\n      jumpi\n      tag_227\n      tag_104\n      jump\t// in\n    tag_227:\n    tag_226:\n      swap1\n      0x00\n      mstore\n      keccak256(0x00, 0x20)\n      swap1\n      0x04\n      mul\n      add\n        /* \"contracts/Voting.sol\":5307:5326  candidates[p].votes */\n      0x02\n      add\n      sload\n        /* \"contracts/Voting.sol\":5288:5326  winningVoteCount = candidates[p].votes */\n      swap4\n      pop\n        /* \"contracts/Voting.sol\":5358:5368  candidates */\n      0x05\n        /* \"contracts/Voting.sol\":5369:5370  p */\n      dup2\n        /* \"contracts/Voting.sol\":5358:5371  candidates[p] */\n      dup2\n      sload\n      dup2\n      lt\n      tag_229\n      jumpi\n      tag_230\n      tag_104\n      jump\t// in\n    tag_230:\n    tag_229:\n      swap1\n      0x00\n      mstore\n      keccak256(0x00, 0x20)\n      swap1\n      0x04\n      mul\n      add\n        /* \"contracts/Voting.sol\":5358:5376  candidates[p].name */\n      0x00\n      add\n        /* \"contracts/Voting.sol\":5345:5376  winnerName = candidates[p].name */\n      dup1\n      sload\n      tag_232\n      swap1\n      tag_110\n      jump\t// in\n    tag_232:\n      dup1\n      0x1f\n      add\n      0x20\n      dup1\n      swap2\n      div\n      mul\n      0x20\n      add\n      mload(0x40)\n      swap1\n      dup2\n      add\n      0x40\n      mstore\n      dup1\n      swap3\n      swap2\n      swap1\n      dup2\n      dup2\n      mstore\n      0x20\n      add\n      dup3\n      dup1\n      sload\n      tag_233\n      swap1\n      tag_110\n      jump\t// in\n    tag_233:\n      dup1\n      iszero\n      tag_234\n      jumpi\n      dup1\n      0x1f\n      lt\n      tag_235\n      jumpi\n      0x0100\n      dup1\n      dup4\n      sload\n      div\n      mul\n      dup4\n      mstore\n      swap2\n      0x20\n      add\n      swap2\n      jump(tag_234)\n    tag_235:\n      dup3\n      add\n      swap2\n      swap1\n      0x00\n      mstore\n      keccak256(0x00, 0x20)\n      swap1\n    tag_236:\n      dup2\n      sload\n      dup2\n      mstore\n      swap1\n      0x01\n      add\n      swap1\n      0x20\n      add\n      dup1\n      dup4\n      gt\n      tag_236\n      jumpi\n      dup3\n      swap1\n      sub\n      0x1f\n      and\n      dup3\n      add\n      swap2\n    tag_234:\n      pop\n      pop\n      pop\n      pop\n      pop\n      swap3\n      pop\n        /* \"contracts/Voting.sol\":5415:5416  p */\n      dup1\n        /* \"contracts/Voting.sol\":5395:5416  winnerCandidateId = p */\n      swap2\n      pop\n        /* \"contracts/Voting.sol\":5225:5432  if (candidates[p].votes > winningVoteCount) {... */\n    tag_225:\n        /* \"contracts/Voting.sol\":5205:5208  p++ */\n      dup1\n      dup1\n      0x01\n      add\n      swap2\n      pop\n      pop\n        /* \"contracts/Voting.sol\":5165:5443  for (uint p = 0; p < candidates.length; p++) {... */\n      jump(tag_219)\n    tag_220:\n      pop\n        /* \"contracts/Voting.sol\":5461:5478  winnerCandidateId */\n      dup1\n        /* \"contracts/Voting.sol\":5479:5489  winnerName */\n      dup3\n        /* \"contracts/Voting.sol\":5490:5506  winningVoteCount */\n      dup5\n        /* \"contracts/Voting.sol\":5453:5507  return (winnerCandidateId,winnerName,winningVoteCount) */\n      swap6\n      pop\n      swap6\n      pop\n      swap6\n      pop\n      pop\n      pop\n      pop\n        /* \"contracts/Voting.sol\":4902:5515  function showWinner() public view returns(uint id,string memory name, uint votes){... */\n      swap1\n      swap2\n      swap3\n      jump\t// out\n        /* \"contracts/Voting.sol\":5521:5632  function getCandidateList() public view returns (candidateDetails[] memory){... */\n    tag_66:\n        /* \"contracts/Voting.sol\":5570:5595  candidateDetails[] memory */\n      0x60\n        /* \"contracts/Voting.sol\":5614:5624  candidates */\n      0x05\n        /* \"contracts/Voting.sol\":5607:5624  return candidates */\n      dup1\n      sload\n      dup1\n      0x20\n      mul\n      0x20\n      add\n      mload(0x40)\n      swap1\n      dup2\n      add\n      0x40\n      mstore\n      dup1\n      swap3\n      swap2\n      swap1\n      dup2\n      dup2\n      mstore\n      0x20\n      add\n      0x00\n      swap1\n    tag_238:\n      dup3\n      dup3\n      lt\n      iszero\n      tag_239\n      jumpi\n      dup4\n      dup3\n      swap1\n      0x00\n      mstore\n      keccak256(0x00, 0x20)\n      swap1\n      0x04\n      mul\n      add\n      mload(0x40)\n      dup1\n      0x80\n      add\n      0x40\n      mstore\n      swap1\n      dup2\n      0x00\n      dup3\n      add\n      dup1\n      sload\n      tag_241\n      swap1\n      tag_110\n      jump\t// in\n    tag_241:\n      dup1\n      0x1f\n      add\n      0x20\n      dup1\n      swap2\n      div\n      mul\n      0x20\n      add\n      mload(0x40)\n      swap1\n      dup2\n      add\n      0x40\n      mstore\n      dup1\n      swap3\n      swap2\n      swap1\n      dup2\n      dup2\n      mstore\n      0x20\n      add\n      dup3\n      dup1\n      sload\n      tag_242\n      swap1\n      tag_110\n      jump\t// in\n    tag_242:\n      dup1\n      iszero\n      tag_243\n      jumpi\n      dup1\n      0x1f\n      lt\n      tag_244\n      jumpi\n      0x0100\n      dup1\n      dup4\n      sload\n      div\n      mul\n      dup4\n      mstore\n      swap2\n      0x20\n      add\n      swap2\n      jump(tag_243)\n    tag_244:\n      dup3\n      add\n      swap2\n      swap1\n      0x00\n      mstore\n      keccak256(0x00, 0x20)\n      swap1\n    tag_245:\n      dup2\n      sload\n      dup2\n      mstore\n      swap1\n      0x01\n      add\n      swap1\n      0x20\n      add\n      dup1\n      dup4\n      gt\n      tag_245\n      jumpi\n      dup3\n      swap1\n      sub\n      0x1f\n      and\n      dup3\n      add\n      swap2\n    tag_243:\n      pop\n      pop\n      pop\n      pop\n      pop\n      dup2\n      mstore\n      0x20\n      add\n      0x01\n      dup3\n      add\n      dup1\n      sload\n      tag_246\n      swap1\n      tag_110\n      jump\t// in\n    tag_246:\n      dup1\n      0x1f\n      add\n      0x20\n      dup1\n      swap2\n      div\n      mul\n      0x20\n      add\n      mload(0x40)\n      swap1\n      dup2\n      add\n      0x40\n      mstore\n      dup1\n      swap3\n      swap2\n      swap1\n      dup2\n      dup2\n      mstore\n      0x20\n      add\n      dup3\n      dup1\n      sload\n      tag_247\n      swap1\n      tag_110\n      jump\t// in\n    tag_247:\n      dup1\n      iszero\n      tag_248\n      jumpi\n      dup1\n      0x1f\n      lt\n      tag_249\n      jumpi\n      0x0100\n      dup1\n      dup4\n      sload\n      div\n      mul\n      dup4\n      mstore\n      swap2\n      0x20\n      add\n      swap2\n      jump(tag_248)\n    tag_249:\n      dup3\n      add\n      swap2\n      swap1\n      0x00\n      mstore\n      keccak256(0x00, 0x20)\n      swap1\n    tag_250:\n      dup2\n      sload\n      dup2\n      mstore\n      swap1\n      0x01\n      add\n      swap1\n      0x20\n      add\n      dup1\n      dup4\n      gt\n      tag_250\n      jumpi\n      dup3\n      swap1\n      sub\n      0x1f\n      and\n      dup3\n      add\n      swap2\n    tag_248:\n      pop\n      pop\n      pop\n      pop\n      pop\n      dup2\n      mstore\n      0x20\n      add\n      0x02\n      dup3\n      add\n      sload\n      dup2\n      mstore\n      0x20\n      add\n      0x03\n      dup3\n      add\n      0x00\n      swap1\n      sload\n      swap1\n      0x0100\n      exp\n      swap1\n      div\n      0xffffffffffffffffffffffffffffffffffffffff\n      and\n      0xffffffffffffffffffffffffffffffffffffffff\n      and\n      0xffffffffffffffffffffffffffffffffffffffff\n      and\n      dup2\n      mstore\n      pop\n      pop\n      dup2\n      mstore\n      0x20\n      add\n      swap1\n      0x01\n      add\n      swap1\n      jump(tag_238)\n    tag_239:\n      pop\n      pop\n      pop\n      pop\n      swap1\n      pop\n        /* \"contracts/Voting.sol\":5521:5632  function getCandidateList() public view returns (candidateDetails[] memory){... */\n      swap1\n      jump\t// out\n        /* \"contracts/Voting.sol\":3799:4409  function castVote(address _voterAddress, uint _candidateId) public {... */\n    tag_72:\n        /* \"contracts/Voting.sol\":3885:3900  electionStarted */\n      0x00\n      0x14\n      swap1\n      sload\n      swap1\n      0x0100\n      exp\n      swap1\n      div\n      0xff\n      and\n        /* \"contracts/Voting.sol\":3877:3925  require(electionStarted, \"Election Not Started\") */\n      tag_252\n      jumpi\n      mload(0x40)\n      0x08c379a000000000000000000000000000000000000000000000000000000000\n      dup2\n      mstore\n      0x04\n      add\n      tag_253\n      swap1\n      tag_100\n      jump\t// in\n    tag_253:\n      mload(0x40)\n      dup1\n      swap2\n      sub\n      swap1\n      revert\n    tag_252:\n        /* \"contracts/Voting.sol\":3954:3967  _voterAddress */\n      dup2\n        /* \"contracts/Voting.sol\":3940:3967  msg.sender == _voterAddress */\n      0xffffffffffffffffffffffffffffffffffffffff\n      and\n        /* \"contracts/Voting.sol\":3940:3950  msg.sender */\n      caller\n        /* \"contracts/Voting.sol\":3940:3967  msg.sender == _voterAddress */\n      0xffffffffffffffffffffffffffffffffffffffff\n      and\n      sub\n        /* \"contracts/Voting.sol\":3936:4223  if (msg.sender == _voterAddress) {... */\n      tag_254\n      jumpi\n        /* \"contracts/Voting.sol\":3993:3998  voter */\n      0x08\n        /* \"contracts/Voting.sol\":3993:4013  voter[_voterAddress] */\n      0x00\n        /* \"contracts/Voting.sol\":3999:4012  _voterAddress */\n      dup4\n        /* \"contracts/Voting.sol\":3993:4013  voter[_voterAddress] */\n      0xffffffffffffffffffffffffffffffffffffffff\n      and\n      0xffffffffffffffffffffffffffffffffffffffff\n      and\n      dup2\n      mstore\n      0x20\n      add\n      swap1\n      dup2\n      mstore\n      0x20\n      add\n      0x00\n      keccak256\n        /* \"contracts/Voting.sol\":3993:4024  voter[_voterAddress].voteCasted */\n      0x02\n      add\n      0x01\n      swap1\n      sload\n      swap1\n      0x0100\n      exp\n      swap1\n      div\n      0xff\n      and\n        /* \"contracts/Voting.sol\":3992:4024  !voter[_voterAddress].voteCasted */\n      iszero\n        /* \"contracts/Voting.sol\":3984:4062  require(!voter[_voterAddress].voteCasted, \"You have already casted your vote\") */\n      tag_255\n      jumpi\n      mload(0x40)\n      0x08c379a000000000000000000000000000000000000000000000000000000000\n      dup2\n      mstore\n      0x04\n      add\n      tag_256\n      swap1\n      tag_211\n      jump\t// in\n    tag_256:\n      mload(0x40)\n      dup1\n      swap2\n      sub\n      swap1\n      revert\n    tag_255:\n        /* \"contracts/Voting.sol\":3936:4223  if (msg.sender == _voterAddress) {... */\n      jump(tag_257)\n    tag_254:\n        /* \"contracts/Voting.sol\":4143:4153  msg.sender */\n      caller\n        /* \"contracts/Voting.sol\":4103:4153  voter[_voterAddress].voteDelegatedTo == msg.sender */\n      0xffffffffffffffffffffffffffffffffffffffff\n      and\n        /* \"contracts/Voting.sol\":4103:4108  voter */\n      0x08\n        /* \"contracts/Voting.sol\":4103:4123  voter[_voterAddress] */\n      0x00\n        /* \"contracts/Voting.sol\":4109:4122  _voterAddress */\n      dup5\n        /* \"contracts/Voting.sol\":4103:4123  voter[_voterAddress] */\n      0xffffffffffffffffffffffffffffffffffffffff\n      and\n      0xffffffffffffffffffffffffffffffffffffffff\n      and\n      dup2\n      mstore\n      0x20\n      add\n      swap1\n      dup2\n      mstore\n      0x20\n      add\n      0x00\n      keccak256\n        /* \"contracts/Voting.sol\":4103:4139  voter[_voterAddress].voteDelegatedTo */\n      0x02\n      add\n      0x02\n      swap1\n      sload\n      swap1\n      0x0100\n      exp\n      swap1\n      div\n      0xffffffffffffffffffffffffffffffffffffffff\n      and\n        /* \"contracts/Voting.sol\":4103:4153  voter[_voterAddress].voteDelegatedTo == msg.sender */\n      0xffffffffffffffffffffffffffffffffffffffff\n      and\n      eq\n        /* \"contracts/Voting.sol\":4095:4211  require(voter[_voterAddress].voteDelegatedTo == msg.sender, \"You are not authorized to vote on this voter's behalf\") */\n      tag_258\n      jumpi\n      mload(0x40)\n      0x08c379a000000000000000000000000000000000000000000000000000000000\n      dup2\n      mstore\n      0x04\n      add\n      tag_259\n      swap1\n      tag_260\n      jump\t// in\n    tag_259:\n      mload(0x40)\n      dup1\n      swap2\n      sub\n      swap1\n      revert\n    tag_258:\n        /* \"contracts/Voting.sol\":3936:4223  if (msg.sender == _voterAddress) {... */\n    tag_257:\n        /* \"contracts/Voting.sol\":4267:4271  true */\n      0x01\n        /* \"contracts/Voting.sol\":4233:4238  voter */\n      0x08\n        /* \"contracts/Voting.sol\":4233:4253  voter[_voterAddress] */\n      0x00\n        /* \"contracts/Voting.sol\":4239:4252  _voterAddress */\n      dup5\n        /* \"contracts/Voting.sol\":4233:4253  voter[_voterAddress] */\n      0xffffffffffffffffffffffffffffffffffffffff\n      and\n      0xffffffffffffffffffffffffffffffffffffffff\n      and\n      dup2\n      mstore\n      0x20\n      add\n      swap1\n      dup2\n      mstore\n      0x20\n      add\n      0x00\n      keccak256\n        /* \"contracts/Voting.sol\":4233:4264  voter[_voterAddress].voteCasted */\n      0x02\n      add\n      0x01\n        /* \"contracts/Voting.sol\":4233:4271  voter[_voterAddress].voteCasted = true */\n      0x0100\n      exp\n      dup2\n      sload\n      dup2\n      0xff\n      mul\n      not\n      and\n      swap1\n      dup4\n      iszero\n      iszero\n      mul\n      or\n      swap1\n      sstore\n      pop\n        /* \"contracts/Voting.sol\":4316:4317  1 */\n      0x01\n        /* \"contracts/Voting.sol\":4282:4292  candidates */\n      0x05\n        /* \"contracts/Voting.sol\":4293:4305  _candidateId */\n      dup3\n        /* \"contracts/Voting.sol\":4282:4306  candidates[_candidateId] */\n      dup2\n      sload\n      dup2\n      lt\n      tag_261\n      jumpi\n      tag_262\n      tag_104\n      jump\t// in\n    tag_262:\n    tag_261:\n      swap1\n      0x00\n      mstore\n      keccak256(0x00, 0x20)\n      swap1\n      0x04\n      mul\n      add\n        /* \"contracts/Voting.sol\":4282:4312  candidates[_candidateId].votes */\n      0x02\n      add\n      0x00\n        /* \"contracts/Voting.sol\":4282:4317  candidates[_candidateId].votes += 1 */\n      dup3\n      dup3\n      sload\n      tag_264\n      swap2\n      swap1\n      tag_92\n      jump\t// in\n    tag_264:\n      swap3\n      pop\n      pop\n      dup2\n      swap1\n      sstore\n      pop\n        /* \"contracts/Voting.sol\":4358:4370  _candidateId */\n      dup1\n        /* \"contracts/Voting.sol\":4328:4340  voteCastedTo */\n      0x0a\n        /* \"contracts/Voting.sol\":4328:4355  voteCastedTo[_voterAddress] */\n      0x00\n        /* \"contracts/Voting.sol\":4341:4354  _voterAddress */\n      dup5\n        /* \"contracts/Voting.sol\":4328:4355  voteCastedTo[_voterAddress] */\n      0xffffffffffffffffffffffffffffffffffffffff\n      and\n      0xffffffffffffffffffffffffffffffffffffffff\n      and\n      dup2\n      mstore\n      0x20\n      add\n      swap1\n      dup2\n      mstore\n      0x20\n      add\n      0x00\n      keccak256\n        /* \"contracts/Voting.sol\":4328:4370  voteCastedTo[_voterAddress] = _candidateId */\n      dup2\n      swap1\n      sstore\n      pop\n        /* \"contracts/Voting.sol\":4400:4401  1 */\n      0x01\n        /* \"contracts/Voting.sol\":4381:4396  totalVoteCasted */\n      0x04\n      0x00\n        /* \"contracts/Voting.sol\":4381:4401  totalVoteCasted += 1 */\n      dup3\n      dup3\n      sload\n      tag_265\n      swap2\n      swap1\n      tag_92\n      jump\t// in\n    tag_265:\n      swap3\n      pop\n      pop\n      dup2\n      swap1\n      sstore\n      pop\n        /* \"contracts/Voting.sol\":3799:4409  function castVote(address _voterAddress, uint _candidateId) public {... */\n      pop\n      pop\n      jump\t// out\n        /* \"#utility.yul\":7:82   */\n    tag_266:\n        /* \"#utility.yul\":40:46   */\n      0x00\n        /* \"#utility.yul\":73:75   */\n      0x40\n        /* \"#utility.yul\":67:76   */\n      mload\n        /* \"#utility.yul\":57:76   */\n      swap1\n      pop\n        /* \"#utility.yul\":7:82   */\n      swap1\n      jump\t// out\n        /* \"#utility.yul\":88:205   */\n    tag_267:\n        /* \"#utility.yul\":197:198   */\n      0x00\n        /* \"#utility.yul\":194:195   */\n      dup1\n        /* \"#utility.yul\":187:199   */\n      revert\n        /* \"#utility.yul\":211:328   */\n    tag_268:\n        /* \"#utility.yul\":320:321   */\n      0x00\n        /* \"#utility.yul\":317:318   */\n      dup1\n        /* \"#utility.yul\":310:322   */\n      revert\n        /* \"#utility.yul\":334:451   */\n    tag_269:\n        /* \"#utility.yul\":443:444   */\n      0x00\n        /* \"#utility.yul\":440:441   */\n      dup1\n        /* \"#utility.yul\":433:445   */\n      revert\n        /* \"#utility.yul\":457:574   */\n    tag_270:\n        /* \"#utility.yul\":566:567   */\n      0x00\n        /* \"#utility.yul\":563:564   */\n      dup1\n        /* \"#utility.yul\":556:568   */\n      revert\n        /* \"#utility.yul\":580:682   */\n    tag_271:\n        /* \"#utility.yul\":621:627   */\n      0x00\n        /* \"#utility.yul\":672:674   */\n      0x1f\n        /* \"#utility.yul\":668:675   */\n      not\n        /* \"#utility.yul\":663:665   */\n      0x1f\n        /* \"#utility.yul\":656:661   */\n      dup4\n        /* \"#utility.yul\":652:666   */\n      add\n        /* \"#utility.yul\":648:676   */\n      and\n        /* \"#utility.yul\":638:676   */\n      swap1\n      pop\n        /* \"#utility.yul\":580:682   */\n      swap2\n      swap1\n      pop\n      jump\t// out\n        /* \"#utility.yul\":688:868   */\n    tag_272:\n        /* \"#utility.yul\":736:813   */\n      0x4e487b7100000000000000000000000000000000000000000000000000000000\n        /* \"#utility.yul\":733:734   */\n      0x00\n        /* \"#utility.yul\":726:814   */\n      mstore\n        /* \"#utility.yul\":833:837   */\n      0x41\n        /* \"#utility.yul\":830:831   */\n      0x04\n        /* \"#utility.yul\":823:838   */\n      mstore\n        /* \"#utility.yul\":857:861   */\n      0x24\n        /* \"#utility.yul\":854:855   */\n      0x00\n        /* \"#utility.yul\":847:862   */\n      revert\n        /* \"#utility.yul\":874:1155   */\n    tag_273:\n        /* \"#utility.yul\":957:984   */\n      tag_360\n        /* \"#utility.yul\":979:983   */\n      dup3\n        /* \"#utility.yul\":957:984   */\n      tag_271\n      jump\t// in\n    tag_360:\n        /* \"#utility.yul\":949:955   */\n      dup2\n        /* \"#utility.yul\":945:985   */\n      add\n        /* \"#utility.yul\":1087:1093   */\n      dup2\n        /* \"#utility.yul\":1075:1085   */\n      dup2\n        /* \"#utility.yul\":1072:1094   */\n      lt\n        /* \"#utility.yul\":1051:1069   */\n      0xffffffffffffffff\n        /* \"#utility.yul\":1039:1049   */\n      dup3\n        /* \"#utility.yul\":1036:1070   */\n      gt\n        /* \"#utility.yul\":1033:1095   */\n      or\n        /* \"#utility.yul\":1030:1118   */\n      iszero\n      tag_361\n      jumpi\n        /* \"#utility.yul\":1098:1116   */\n      tag_362\n      tag_272\n      jump\t// in\n    tag_362:\n        /* \"#utility.yul\":1030:1118   */\n    tag_361:\n        /* \"#utility.yul\":1138:1148   */\n      dup1\n        /* \"#utility.yul\":1134:1136   */\n      0x40\n        /* \"#utility.yul\":1127:1149   */\n      mstore\n        /* \"#utility.yul\":917:1155   */\n      pop\n        /* \"#utility.yul\":874:1155   */\n      pop\n      pop\n      jump\t// out\n        /* \"#utility.yul\":1161:1290   */\n    tag_274:\n        /* \"#utility.yul\":1195:1201   */\n      0x00\n        /* \"#utility.yul\":1222:1242   */\n      tag_364\n      tag_266\n      jump\t// in\n    tag_364:\n        /* \"#utility.yul\":1212:1242   */\n      swap1\n      pop\n        /* \"#utility.yul\":1251:1284   */\n      tag_365\n        /* \"#utility.yul\":1279:1283   */\n      dup3\n        /* \"#utility.yul\":1271:1277   */\n      dup3\n        /* \"#utility.yul\":1251:1284   */\n      tag_273\n      jump\t// in\n    tag_365:\n        /* \"#utility.yul\":1161:1290   */\n      swap2\n      swap1\n      pop\n      jump\t// out\n        /* \"#utility.yul\":1296:1604   */\n    tag_275:\n        /* \"#utility.yul\":1358:1362   */\n      0x00\n        /* \"#utility.yul\":1448:1466   */\n      0xffffffffffffffff\n        /* \"#utility.yul\":1440:1446   */\n      dup3\n        /* \"#utility.yul\":1437:1467   */\n      gt\n        /* \"#utility.yul\":1434:1490   */\n      iszero\n      tag_367\n      jumpi\n        /* \"#utility.yul\":1470:1488   */\n      tag_368\n      tag_272\n      jump\t// in\n    tag_368:\n        /* \"#utility.yul\":1434:1490   */\n    tag_367:\n        /* \"#utility.yul\":1508:1537   */\n      tag_369\n        /* \"#utility.yul\":1530:1536   */\n      dup3\n        /* \"#utility.yul\":1508:1537   */\n      tag_271\n      jump\t// in\n    tag_369:\n        /* \"#utility.yul\":1500:1537   */\n      swap1\n      pop\n        /* \"#utility.yul\":1592:1596   */\n      0x20\n        /* \"#utility.yul\":1586:1590   */\n      dup2\n        /* \"#utility.yul\":1582:1597   */\n      add\n        /* \"#utility.yul\":1574:1597   */\n      swap1\n      pop\n        /* \"#utility.yul\":1296:1604   */\n      swap2\n      swap1\n      pop\n      jump\t// out\n        /* \"#utility.yul\":1610:1756   */\n    tag_276:\n        /* \"#utility.yul\":1707:1713   */\n      dup3\n        /* \"#utility.yul\":1702:1705   */\n      dup2\n        /* \"#utility.yul\":1697:1700   */\n      dup4\n        /* \"#utility.yul\":1684:1714   */\n      calldatacopy\n        /* \"#utility.yul\":1748:1749   */\n      0x00\n        /* \"#utility.yul\":1739:1745   */\n      dup4\n        /* \"#utility.yul\":1734:1737   */\n      dup4\n        /* \"#utility.yul\":1730:1746   */\n      add\n        /* \"#utility.yul\":1723:1750   */\n      mstore\n        /* \"#utility.yul\":1610:1756   */\n      pop\n      pop\n      pop\n      jump\t// out\n        /* \"#utility.yul\":1762:2187   */\n    tag_277:\n        /* \"#utility.yul\":1840:1845   */\n      0x00\n        /* \"#utility.yul\":1865:1931   */\n      tag_372\n        /* \"#utility.yul\":1881:1930   */\n      tag_373\n        /* \"#utility.yul\":1923:1929   */\n      dup5\n        /* \"#utility.yul\":1881:1930   */\n      tag_275\n      jump\t// in\n    tag_373:\n        /* \"#utility.yul\":1865:1931   */\n      tag_274\n      jump\t// in\n    tag_372:\n        /* \"#utility.yul\":1856:1931   */\n      swap1\n      pop\n        /* \"#utility.yul\":1954:1960   */\n      dup3\n        /* \"#utility.yul\":1947:1952   */\n      dup2\n        /* \"#utility.yul\":1940:1961   */\n      mstore\n        /* \"#utility.yul\":1992:1996   */\n      0x20\n        /* \"#utility.yul\":1985:1990   */\n      dup2\n        /* \"#utility.yul\":1981:1997   */\n      add\n        /* \"#utility.yul\":2030:2033   */\n      dup5\n        /* \"#utility.yul\":2021:2027   */\n      dup5\n        /* \"#utility.yul\":2016:2019   */\n      dup5\n        /* \"#utility.yul\":2012:2028   */\n      add\n        /* \"#utility.yul\":2009:2034   */\n      gt\n        /* \"#utility.yul\":2006:2118   */\n      iszero\n      tag_374\n      jumpi\n        /* \"#utility.yul\":2037:2116   */\n      tag_375\n      tag_270\n      jump\t// in\n    tag_375:\n        /* \"#utility.yul\":2006:2118   */\n    tag_374:\n        /* \"#utility.yul\":2127:2181   */\n      tag_376\n        /* \"#utility.yul\":2174:2180   */\n      dup5\n        /* \"#utility.yul\":2169:2172   */\n      dup3\n        /* \"#utility.yul\":2164:2167   */\n      dup6\n        /* \"#utility.yul\":2127:2181   */\n      tag_276\n      jump\t// in\n    tag_376:\n        /* \"#utility.yul\":1846:2187   */\n      pop\n        /* \"#utility.yul\":1762:2187   */\n      swap4\n      swap3\n      pop\n      pop\n      pop\n      jump\t// out\n        /* \"#utility.yul\":2207:2547   */\n    tag_278:\n        /* \"#utility.yul\":2263:2268   */\n      0x00\n        /* \"#utility.yul\":2312:2315   */\n      dup3\n        /* \"#utility.yul\":2305:2309   */\n      0x1f\n        /* \"#utility.yul\":2297:2303   */\n      dup4\n        /* \"#utility.yul\":2293:2310   */\n      add\n        /* \"#utility.yul\":2289:2316   */\n      slt\n        /* \"#utility.yul\":2279:2401   */\n      tag_378\n      jumpi\n        /* \"#utility.yul\":2320:2399   */\n      tag_379\n      tag_269\n      jump\t// in\n    tag_379:\n        /* \"#utility.yul\":2279:2401   */\n    tag_378:\n        /* \"#utility.yul\":2437:2443   */\n      dup2\n        /* \"#utility.yul\":2424:2444   */\n      calldataload\n        /* \"#utility.yul\":2462:2541   */\n      tag_380\n        /* \"#utility.yul\":2537:2540   */\n      dup5\n        /* \"#utility.yul\":2529:2535   */\n      dup3\n        /* \"#utility.yul\":2522:2526   */\n      0x20\n        /* \"#utility.yul\":2514:2520   */\n      dup7\n        /* \"#utility.yul\":2510:2527   */\n      add\n        /* \"#utility.yul\":2462:2541   */\n      tag_277\n      jump\t// in\n    tag_380:\n        /* \"#utility.yul\":2453:2541   */\n      swap2\n      pop\n        /* \"#utility.yul\":2269:2547   */\n      pop\n        /* \"#utility.yul\":2207:2547   */\n      swap3\n      swap2\n      pop\n      pop\n      jump\t// out\n        /* \"#utility.yul\":2553:2679   */\n    tag_279:\n        /* \"#utility.yul\":2590:2597   */\n      0x00\n        /* \"#utility.yul\":2630:2672   */\n      0xffffffffffffffffffffffffffffffffffffffff\n        /* \"#utility.yul\":2623:2628   */\n      dup3\n        /* \"#utility.yul\":2619:2673   */\n      and\n        /* \"#utility.yul\":2608:2673   */\n      swap1\n      pop\n        /* \"#utility.yul\":2553:2679   */\n      swap2\n      swap1\n      pop\n      jump\t// out\n        /* \"#utility.yul\":2685:2781   */\n    tag_280:\n        /* \"#utility.yul\":2722:2729   */\n      0x00\n        /* \"#utility.yul\":2751:2775   */\n      tag_383\n        /* \"#utility.yul\":2769:2774   */\n      dup3\n        /* \"#utility.yul\":2751:2775   */\n      tag_279\n      jump\t// in\n    tag_383:\n        /* \"#utility.yul\":2740:2775   */\n      swap1\n      pop\n        /* \"#utility.yul\":2685:2781   */\n      swap2\n      swap1\n      pop\n      jump\t// out\n        /* \"#utility.yul\":2787:2909   */\n    tag_281:\n        /* \"#utility.yul\":2860:2884   */\n      tag_385\n        /* \"#utility.yul\":2878:2883   */\n      dup2\n        /* \"#utility.yul\":2860:2884   */\n      tag_280\n      jump\t// in\n    tag_385:\n        /* \"#utility.yul\":2853:2858   */\n      dup2\n        /* \"#utility.yul\":2850:2885   */\n      eq\n        /* \"#utility.yul\":2840:2903   */\n      tag_386\n      jumpi\n        /* \"#utility.yul\":2899:2900   */\n      0x00\n        /* \"#utility.yul\":2896:2897   */\n      dup1\n        /* \"#utility.yul\":2889:2901   */\n      revert\n        /* \"#utility.yul\":2840:2903   */\n    tag_386:\n        /* \"#utility.yul\":2787:2909   */\n      pop\n      jump\t// out\n        /* \"#utility.yul\":2915:3054   */\n    tag_282:\n        /* \"#utility.yul\":2961:2966   */\n      0x00\n        /* \"#utility.yul\":2999:3005   */\n      dup2\n        /* \"#utility.yul\":2986:3006   */\n      calldataload\n        /* \"#utility.yul\":2977:3006   */\n      swap1\n      pop\n        /* \"#utility.yul\":3015:3048   */\n      tag_388\n        /* \"#utility.yul\":3042:3047   */\n      dup2\n        /* \"#utility.yul\":3015:3048   */\n      tag_281\n      jump\t// in\n    tag_388:\n        /* \"#utility.yul\":2915:3054   */\n      swap3\n      swap2\n      pop\n      pop\n      jump\t// out\n        /* \"#utility.yul\":3060:4039   */\n    tag_22:\n        /* \"#utility.yul\":3157:3163   */\n      0x00\n        /* \"#utility.yul\":3165:3171   */\n      dup1\n        /* \"#utility.yul\":3173:3179   */\n      0x00\n        /* \"#utility.yul\":3222:3224   */\n      0x60\n        /* \"#utility.yul\":3210:3219   */\n      dup5\n        /* \"#utility.yul\":3201:3208   */\n      dup7\n        /* \"#utility.yul\":3197:3220   */\n      sub\n        /* \"#utility.yul\":3193:3225   */\n      slt\n        /* \"#utility.yul\":3190:3309   */\n      iszero\n      tag_390\n      jumpi\n        /* \"#utility.yul\":3228:3307   */\n      tag_391\n      tag_267\n      jump\t// in\n    tag_391:\n        /* \"#utility.yul\":3190:3309   */\n    tag_390:\n        /* \"#utility.yul\":3376:3377   */\n      0x00\n        /* \"#utility.yul\":3365:3374   */\n      dup5\n        /* \"#utility.yul\":3361:3378   */\n      add\n        /* \"#utility.yul\":3348:3379   */\n      calldataload\n        /* \"#utility.yul\":3406:3424   */\n      0xffffffffffffffff\n        /* \"#utility.yul\":3398:3404   */\n      dup2\n        /* \"#utility.yul\":3395:3425   */\n      gt\n        /* \"#utility.yul\":3392:3509   */\n      iszero\n      tag_392\n      jumpi\n        /* \"#utility.yul\":3428:3507   */\n      tag_393\n      tag_268\n      jump\t// in\n    tag_393:\n        /* \"#utility.yul\":3392:3509   */\n    tag_392:\n        /* \"#utility.yul\":3533:3596   */\n      tag_394\n        /* \"#utility.yul\":3588:3595   */\n      dup7\n        /* \"#utility.yul\":3579:3585   */\n      dup3\n        /* \"#utility.yul\":3568:3577   */\n      dup8\n        /* \"#utility.yul\":3564:3586   */\n      add\n        /* \"#utility.yul\":3533:3596   */\n      tag_278\n      jump\t// in\n    tag_394:\n        /* \"#utility.yul\":3523:3596   */\n      swap4\n      pop\n        /* \"#utility.yul\":3319:3606   */\n      pop\n        /* \"#utility.yul\":3673:3675   */\n      0x20\n        /* \"#utility.yul\":3662:3671   */\n      dup5\n        /* \"#utility.yul\":3658:3676   */\n      add\n        /* \"#utility.yul\":3645:3677   */\n      calldataload\n        /* \"#utility.yul\":3704:3722   */\n      0xffffffffffffffff\n        /* \"#utility.yul\":3696:3702   */\n      dup2\n        /* \"#utility.yul\":3693:3723   */\n      gt\n        /* \"#utility.yul\":3690:3807   */\n      iszero\n      tag_395\n      jumpi\n        /* \"#utility.yul\":3726:3805   */\n      tag_396\n      tag_268\n      jump\t// in\n    tag_396:\n        /* \"#utility.yul\":3690:3807   */\n    tag_395:\n        /* \"#utility.yul\":3831:3894   */\n      tag_397\n        /* \"#utility.yul\":3886:3893   */\n      dup7\n        /* \"#utility.yul\":3877:3883   */\n      dup3\n        /* \"#utility.yul\":3866:3875   */\n      dup8\n        /* \"#utility.yul\":3862:3884   */\n      add\n        /* \"#utility.yul\":3831:3894   */\n      tag_278\n      jump\t// in\n    tag_397:\n        /* \"#utility.yul\":3821:3894   */\n      swap3\n      pop\n        /* \"#utility.yul\":3616:3904   */\n      pop\n        /* \"#utility.yul\":3943:3945   */\n      0x40\n        /* \"#utility.yul\":3969:4022   */\n      tag_398\n        /* \"#utility.yul\":4014:4021   */\n      dup7\n        /* \"#utility.yul\":4005:4011   */\n      dup3\n        /* \"#utility.yul\":3994:4003   */\n      dup8\n        /* \"#utility.yul\":3990:4012   */\n      add\n        /* \"#utility.yul\":3969:4022   */\n      tag_282\n      jump\t// in\n    tag_398:\n        /* \"#utility.yul\":3959:4022   */\n      swap2\n      pop\n        /* \"#utility.yul\":3914:4032   */\n      pop\n        /* \"#utility.yul\":3060:4039   */\n      swap3\n      pop\n      swap3\n      pop\n      swap3\n      jump\t// out\n        /* \"#utility.yul\":4045:4122   */\n    tag_283:\n        /* \"#utility.yul\":4082:4089   */\n      0x00\n        /* \"#utility.yul\":4111:4116   */\n      dup2\n        /* \"#utility.yul\":4100:4116   */\n      swap1\n      pop\n        /* \"#utility.yul\":4045:4122   */\n      swap2\n      swap1\n      pop\n      jump\t// out\n        /* \"#utility.yul\":4128:4250   */\n    tag_284:\n        /* \"#utility.yul\":4201:4225   */\n      tag_401\n        /* \"#utility.yul\":4219:4224   */\n      dup2\n        /* \"#utility.yul\":4201:4225   */\n      tag_283\n      jump\t// in\n    tag_401:\n        /* \"#utility.yul\":4194:4199   */\n      dup2\n        /* \"#utility.yul\":4191:4226   */\n      eq\n        /* \"#utility.yul\":4181:4244   */\n      tag_402\n      jumpi\n        /* \"#utility.yul\":4240:4241   */\n      0x00\n        /* \"#utility.yul\":4237:4238   */\n      dup1\n        /* \"#utility.yul\":4230:4242   */\n      revert\n        /* \"#utility.yul\":4181:4244   */\n    tag_402:\n        /* \"#utility.yul\":4128:4250   */\n      pop\n      jump\t// out\n        /* \"#utility.yul\":4256:4395   */\n    tag_285:\n        /* \"#utility.yul\":4302:4307   */\n      0x00\n        /* \"#utility.yul\":4340:4346   */\n      dup2\n        /* \"#utility.yul\":4327:4347   */\n      calldataload\n        /* \"#utility.yul\":4318:4347   */\n      swap1\n      pop\n        /* \"#utility.yul\":4356:4389   */\n      tag_404\n        /* \"#utility.yul\":4383:4388   */\n      dup2\n        /* \"#utility.yul\":4356:4389   */\n      tag_284\n      jump\t// in\n    tag_404:\n        /* \"#utility.yul\":4256:4395   */\n      swap3\n      swap2\n      pop\n      pop\n      jump\t// out\n        /* \"#utility.yul\":4401:4730   */\n    tag_28:\n        /* \"#utility.yul\":4460:4466   */\n      0x00\n        /* \"#utility.yul\":4509:4511   */\n      0x20\n        /* \"#utility.yul\":4497:4506   */\n      dup3\n        /* \"#utility.yul\":4488:4495   */\n      dup5\n        /* \"#utility.yul\":4484:4507   */\n      sub\n        /* \"#utility.yul\":4480:4512   */\n      slt\n        /* \"#utility.yul\":4477:4596   */\n      iszero\n      tag_406\n      jumpi\n        /* \"#utility.yul\":4515:4594   */\n      tag_407\n      tag_267\n      jump\t// in\n    tag_407:\n        /* \"#utility.yul\":4477:4596   */\n    tag_406:\n        /* \"#utility.yul\":4635:4636   */\n      0x00\n        /* \"#utility.yul\":4660:4713   */\n      tag_408\n        /* \"#utility.yul\":4705:4712   */\n      dup5\n        /* \"#utility.yul\":4696:4702   */\n      dup3\n        /* \"#utility.yul\":4685:4694   */\n      dup6\n        /* \"#utility.yul\":4681:4703   */\n      add\n        /* \"#utility.yul\":4660:4713   */\n      tag_285\n      jump\t// in\n    tag_408:\n        /* \"#utility.yul\":4650:4713   */\n      swap2\n      pop\n        /* \"#utility.yul\":4606:4723   */\n      pop\n        /* \"#utility.yul\":4401:4730   */\n      swap3\n      swap2\n      pop\n      pop\n      jump\t// out\n        /* \"#utility.yul\":4736:4854   */\n    tag_286:\n        /* \"#utility.yul\":4823:4847   */\n      tag_410\n        /* \"#utility.yul\":4841:4846   */\n      dup2\n        /* \"#utility.yul\":4823:4847   */\n      tag_283\n      jump\t// in\n    tag_410:\n        /* \"#utility.yul\":4818:4821   */\n      dup3\n        /* \"#utility.yul\":4811:4848   */\n      mstore\n        /* \"#utility.yul\":4736:4854   */\n      pop\n      pop\n      jump\t// out\n        /* \"#utility.yul\":4860:4959   */\n    tag_287:\n        /* \"#utility.yul\":4912:4918   */\n      0x00\n        /* \"#utility.yul\":4946:4951   */\n      dup2\n        /* \"#utility.yul\":4940:4952   */\n      mload\n        /* \"#utility.yul\":4930:4952   */\n      swap1\n      pop\n        /* \"#utility.yul\":4860:4959   */\n      swap2\n      swap1\n      pop\n      jump\t// out\n        /* \"#utility.yul\":4965:5134   */\n    tag_288:\n        /* \"#utility.yul\":5049:5060   */\n      0x00\n        /* \"#utility.yul\":5083:5089   */\n      dup3\n        /* \"#utility.yul\":5078:5081   */\n      dup3\n        /* \"#utility.yul\":5071:5090   */\n      mstore\n        /* \"#utility.yul\":5123:5127   */\n      0x20\n        /* \"#utility.yul\":5118:5121   */\n      dup3\n        /* \"#utility.yul\":5114:5128   */\n      add\n        /* \"#utility.yul\":5099:5128   */\n      swap1\n      pop\n        /* \"#utility.yul\":4965:5134   */\n      swap3\n      swap2\n      pop\n      pop\n      jump\t// out\n        /* \"#utility.yul\":5140:5386   */\n    tag_289:\n        /* \"#utility.yul\":5221:5222   */\n      0x00\n        /* \"#utility.yul\":5231:5344   */\n    tag_414:\n        /* \"#utility.yul\":5245:5251   */\n      dup4\n        /* \"#utility.yul\":5242:5243   */\n      dup2\n        /* \"#utility.yul\":5239:5252   */\n      lt\n        /* \"#utility.yul\":5231:5344   */\n      iszero\n      tag_416\n      jumpi\n        /* \"#utility.yul\":5330:5331   */\n      dup1\n        /* \"#utility.yul\":5325:5328   */\n      dup3\n        /* \"#utility.yul\":5321:5332   */\n      add\n        /* \"#utility.yul\":5315:5333   */\n      mload\n        /* \"#utility.yul\":5311:5312   */\n      dup2\n        /* \"#utility.yul\":5306:5309   */\n      dup5\n        /* \"#utility.yul\":5302:5313   */\n      add\n        /* \"#utility.yul\":5295:5334   */\n      mstore\n        /* \"#utility.yul\":5267:5269   */\n      0x20\n        /* \"#utility.yul\":5264:5265   */\n      dup2\n        /* \"#utility.yul\":5260:5270   */\n      add\n        /* \"#utility.yul\":5255:5270   */\n      swap1\n      pop\n        /* \"#utility.yul\":5231:5344   */\n      jump(tag_414)\n    tag_416:\n        /* \"#utility.yul\":5378:5379   */\n      0x00\n        /* \"#utility.yul\":5369:5375   */\n      dup5\n        /* \"#utility.yul\":5364:5367   */\n      dup5\n        /* \"#utility.yul\":5360:5376   */\n      add\n        /* \"#utility.yul\":5353:5380   */\n      mstore\n        /* \"#utility.yul\":5202:5386   */\n      pop\n        /* \"#utility.yul\":5140:5386   */\n      pop\n      pop\n      pop\n      jump\t// out\n        /* \"#utility.yul\":5392:5769   */\n    tag_290:\n        /* \"#utility.yul\":5480:5483   */\n      0x00\n        /* \"#utility.yul\":5508:5547   */\n      tag_418\n        /* \"#utility.yul\":5541:5546   */\n      dup3\n        /* \"#utility.yul\":5508:5547   */\n      tag_287\n      jump\t// in\n    tag_418:\n        /* \"#utility.yul\":5563:5634   */\n      tag_419\n        /* \"#utility.yul\":5627:5633   */\n      dup2\n        /* \"#utility.yul\":5622:5625   */\n      dup6\n        /* \"#utility.yul\":5563:5634   */\n      tag_288\n      jump\t// in\n    tag_419:\n        /* \"#utility.yul\":5556:5634   */\n      swap4\n      pop\n        /* \"#utility.yul\":5643:5708   */\n      tag_420\n        /* \"#utility.yul\":5701:5707   */\n      dup2\n        /* \"#utility.yul\":5696:5699   */\n      dup6\n        /* \"#utility.yul\":5689:5693   */\n      0x20\n        /* \"#utility.yul\":5682:5687   */\n      dup7\n        /* \"#utility.yul\":5678:5694   */\n      add\n        /* \"#utility.yul\":5643:5708   */\n      tag_289\n      jump\t// in\n    tag_420:\n        /* \"#utility.yul\":5733:5762   */\n      tag_421\n        /* \"#utility.yul\":5755:5761   */\n      dup2\n        /* \"#utility.yul\":5733:5762   */\n      tag_271\n      jump\t// in\n    tag_421:\n        /* \"#utility.yul\":5728:5731   */\n      dup5\n        /* \"#utility.yul\":5724:5763   */\n      add\n        /* \"#utility.yul\":5717:5763   */\n      swap2\n      pop\n        /* \"#utility.yul\":5484:5769   */\n      pop\n        /* \"#utility.yul\":5392:5769   */\n      swap3\n      swap2\n      pop\n      pop\n      jump\t// out\n        /* \"#utility.yul\":5775:6399   */\n    tag_31:\n        /* \"#utility.yul\":5964:5968   */\n      0x00\n        /* \"#utility.yul\":6002:6004   */\n      0x60\n        /* \"#utility.yul\":5991:6000   */\n      dup3\n        /* \"#utility.yul\":5987:6005   */\n      add\n        /* \"#utility.yul\":5979:6005   */\n      swap1\n      pop\n        /* \"#utility.yul\":6015:6086   */\n      tag_423\n        /* \"#utility.yul\":6083:6084   */\n      0x00\n        /* \"#utility.yul\":6072:6081   */\n      dup4\n        /* \"#utility.yul\":6068:6085   */\n      add\n        /* \"#utility.yul\":6059:6065   */\n      dup7\n        /* \"#utility.yul\":6015:6086   */\n      tag_286\n      jump\t// in\n    tag_423:\n        /* \"#utility.yul\":6133:6142   */\n      dup2\n        /* \"#utility.yul\":6127:6131   */\n      dup2\n        /* \"#utility.yul\":6123:6143   */\n      sub\n        /* \"#utility.yul\":6118:6120   */\n      0x20\n        /* \"#utility.yul\":6107:6116   */\n      dup4\n        /* \"#utility.yul\":6103:6121   */\n      add\n        /* \"#utility.yul\":6096:6144   */\n      mstore\n        /* \"#utility.yul\":6161:6239   */\n      tag_424\n        /* \"#utility.yul\":6234:6238   */\n      dup2\n        /* \"#utility.yul\":6225:6231   */\n      dup6\n        /* \"#utility.yul\":6161:6239   */\n      tag_290\n      jump\t// in\n    tag_424:\n        /* \"#utility.yul\":6153:6239   */\n      swap1\n      pop\n        /* \"#utility.yul\":6286:6295   */\n      dup2\n        /* \"#utility.yul\":6280:6284   */\n      dup2\n        /* \"#utility.yul\":6276:6296   */\n      sub\n        /* \"#utility.yul\":6271:6273   */\n      0x40\n        /* \"#utility.yul\":6260:6269   */\n      dup4\n        /* \"#utility.yul\":6256:6274   */\n      add\n        /* \"#utility.yul\":6249:6297   */\n      mstore\n        /* \"#utility.yul\":6314:6392   */\n      tag_425\n        /* \"#utility.yul\":6387:6391   */\n      dup2\n        /* \"#utility.yul\":6378:6384   */\n      dup5\n        /* \"#utility.yul\":6314:6392   */\n      tag_290\n      jump\t// in\n    tag_425:\n        /* \"#utility.yul\":6306:6392   */\n      swap1\n      pop\n        /* \"#utility.yul\":5775:6399   */\n      swap5\n      swap4\n      pop\n      pop\n      pop\n      pop\n      jump\t// out\n        /* \"#utility.yul\":6405:6627   */\n    tag_35:\n        /* \"#utility.yul\":6498:6502   */\n      0x00\n        /* \"#utility.yul\":6536:6538   */\n      0x20\n        /* \"#utility.yul\":6525:6534   */\n      dup3\n        /* \"#utility.yul\":6521:6539   */\n      add\n        /* \"#utility.yul\":6513:6539   */\n      swap1\n      pop\n        /* \"#utility.yul\":6549:6620   */\n      tag_427\n        /* \"#utility.yul\":6617:6618   */\n      0x00\n        /* \"#utility.yul\":6606:6615   */\n      dup4\n        /* \"#utility.yul\":6602:6619   */\n      add\n        /* \"#utility.yul\":6593:6599   */\n      dup5\n        /* \"#utility.yul\":6549:6620   */\n      tag_286\n      jump\t// in\n    tag_427:\n        /* \"#utility.yul\":6405:6627   */\n      swap3\n      swap2\n      pop\n      pop\n      jump\t// out\n        /* \"#utility.yul\":6633:7612   */\n    tag_38:\n        /* \"#utility.yul\":6730:6736   */\n      0x00\n        /* \"#utility.yul\":6738:6744   */\n      dup1\n        /* \"#utility.yul\":6746:6752   */\n      0x00\n        /* \"#utility.yul\":6795:6797   */\n      0x60\n        /* \"#utility.yul\":6783:6792   */\n      dup5\n        /* \"#utility.yul\":6774:6781   */\n      dup7\n        /* \"#utility.yul\":6770:6793   */\n      sub\n        /* \"#utility.yul\":6766:6798   */\n      slt\n        /* \"#utility.yul\":6763:6882   */\n      iszero\n      tag_429\n      jumpi\n        /* \"#utility.yul\":6801:6880   */\n      tag_430\n      tag_267\n      jump\t// in\n    tag_430:\n        /* \"#utility.yul\":6763:6882   */\n    tag_429:\n        /* \"#utility.yul\":6921:6922   */\n      0x00\n        /* \"#utility.yul\":6946:6999   */\n      tag_431\n        /* \"#utility.yul\":6991:6998   */\n      dup7\n        /* \"#utility.yul\":6982:6988   */\n      dup3\n        /* \"#utility.yul\":6971:6980   */\n      dup8\n        /* \"#utility.yul\":6967:6989   */\n      add\n        /* \"#utility.yul\":6946:6999   */\n      tag_282\n      jump\t// in\n    tag_431:\n        /* \"#utility.yul\":6936:6999   */\n      swap4\n      pop\n        /* \"#utility.yul\":6892:7009   */\n      pop\n        /* \"#utility.yul\":7076:7078   */\n      0x20\n        /* \"#utility.yul\":7065:7074   */\n      dup5\n        /* \"#utility.yul\":7061:7079   */\n      add\n        /* \"#utility.yul\":7048:7080   */\n      calldataload\n        /* \"#utility.yul\":7107:7125   */\n      0xffffffffffffffff\n        /* \"#utility.yul\":7099:7105   */\n      dup2\n        /* \"#utility.yul\":7096:7126   */\n      gt\n        /* \"#utility.yul\":7093:7210   */\n      iszero\n      tag_432\n      jumpi\n        /* \"#utility.yul\":7129:7208   */\n      tag_433\n      tag_268\n      jump\t// in\n    tag_433:\n        /* \"#utility.yul\":7093:7210   */\n    tag_432:\n        /* \"#utility.yul\":7234:7297   */\n      tag_434\n        /* \"#utility.yul\":7289:7296   */\n      dup7\n        /* \"#utility.yul\":7280:7286   */\n      dup3\n        /* \"#utility.yul\":7269:7278   */\n      dup8\n        /* \"#utility.yul\":7265:7287   */\n      add\n        /* \"#utility.yul\":7234:7297   */\n      tag_278\n      jump\t// in\n    tag_434:\n        /* \"#utility.yul\":7224:7297   */\n      swap3\n      pop\n        /* \"#utility.yul\":7019:7307   */\n      pop\n        /* \"#utility.yul\":7374:7376   */\n      0x40\n        /* \"#utility.yul\":7363:7372   */\n      dup5\n        /* \"#utility.yul\":7359:7377   */\n      add\n        /* \"#utility.yul\":7346:7378   */\n      calldataload\n        /* \"#utility.yul\":7405:7423   */\n      0xffffffffffffffff\n        /* \"#utility.yul\":7397:7403   */\n      dup2\n        /* \"#utility.yul\":7394:7424   */\n      gt\n        /* \"#utility.yul\":7391:7508   */\n      iszero\n      tag_435\n      jumpi\n        /* \"#utility.yul\":7427:7506   */\n      tag_436\n      tag_268\n      jump\t// in\n    tag_436:\n        /* \"#utility.yul\":7391:7508   */\n    tag_435:\n        /* \"#utility.yul\":7532:7595   */\n      tag_437\n        /* \"#utility.yul\":7587:7594   */\n      dup7\n        /* \"#utility.yul\":7578:7584   */\n      dup3\n        /* \"#utility.yul\":7567:7576   */\n      dup8\n        /* \"#utility.yul\":7563:7585   */\n      add\n        /* \"#utility.yul\":7532:7595   */\n      tag_278\n      jump\t// in\n    tag_437:\n        /* \"#utility.yul\":7522:7595   */\n      swap2\n      pop\n        /* \"#utility.yul\":7317:7605   */\n      pop\n        /* \"#utility.yul\":6633:7612   */\n      swap3\n      pop\n      swap3\n      pop\n      swap3\n      jump\t// out\n        /* \"#utility.yul\":7618:8242   */\n    tag_49:\n        /* \"#utility.yul\":7807:7811   */\n      0x00\n        /* \"#utility.yul\":7845:7847   */\n      0x60\n        /* \"#utility.yul\":7834:7843   */\n      dup3\n        /* \"#utility.yul\":7830:7848   */\n      add\n        /* \"#utility.yul\":7822:7848   */\n      swap1\n      pop\n        /* \"#utility.yul\":7894:7903   */\n      dup2\n        /* \"#utility.yul\":7888:7892   */\n      dup2\n        /* \"#utility.yul\":7884:7904   */\n      sub\n        /* \"#utility.yul\":7880:7881   */\n      0x00\n        /* \"#utility.yul\":7869:7878   */\n      dup4\n        /* \"#utility.yul\":7865:7882   */\n      add\n        /* \"#utility.yul\":7858:7905   */\n      mstore\n        /* \"#utility.yul\":7922:8000   */\n      tag_439\n        /* \"#utility.yul\":7995:7999   */\n      dup2\n        /* \"#utility.yul\":7986:7992   */\n      dup7\n        /* \"#utility.yul\":7922:8000   */\n      tag_290\n      jump\t// in\n    tag_439:\n        /* \"#utility.yul\":7914:8000   */\n      swap1\n      pop\n        /* \"#utility.yul\":8047:8056   */\n      dup2\n        /* \"#utility.yul\":8041:8045   */\n      dup2\n        /* \"#utility.yul\":8037:8057   */\n      sub\n        /* \"#utility.yul\":8032:8034   */\n      0x20\n        /* \"#utility.yul\":8021:8030   */\n      dup4\n        /* \"#utility.yul\":8017:8035   */\n      add\n        /* \"#utility.yul\":8010:8058   */\n      mstore\n        /* \"#utility.yul\":8075:8153   */\n      tag_440\n        /* \"#utility.yul\":8148:8152   */\n      dup2\n        /* \"#utility.yul\":8139:8145   */\n      dup6\n        /* \"#utility.yul\":8075:8153   */\n      tag_290\n      jump\t// in\n    tag_440:\n        /* \"#utility.yul\":8067:8153   */\n      swap1\n      pop\n        /* \"#utility.yul\":8163:8235   */\n      tag_441\n        /* \"#utility.yul\":8231:8233   */\n      0x40\n        /* \"#utility.yul\":8220:8229   */\n      dup4\n        /* \"#utility.yul\":8216:8234   */\n      add\n        /* \"#utility.yul\":8207:8213   */\n      dup5\n        /* \"#utility.yul\":8163:8235   */\n      tag_286\n      jump\t// in\n    tag_441:\n        /* \"#utility.yul\":7618:8242   */\n      swap5\n      swap4\n      pop\n      pop\n      pop\n      pop\n      jump\t// out\n        /* \"#utility.yul\":8248:8338   */\n    tag_291:\n        /* \"#utility.yul\":8282:8289   */\n      0x00\n        /* \"#utility.yul\":8325:8330   */\n      dup2\n        /* \"#utility.yul\":8318:8331   */\n      iszero\n        /* \"#utility.yul\":8311:8332   */\n      iszero\n        /* \"#utility.yul\":8300:8332   */\n      swap1\n      pop\n        /* \"#utility.yul\":8248:8338   */\n      swap2\n      swap1\n      pop\n      jump\t// out\n        /* \"#utility.yul\":8344:8453   */\n    tag_292:\n        /* \"#utility.yul\":8425:8446   */\n      tag_444\n        /* \"#utility.yul\":8440:8445   */\n      dup2\n        /* \"#utility.yul\":8425:8446   */\n      tag_291\n      jump\t// in\n    tag_444:\n        /* \"#utility.yul\":8420:8423   */\n      dup3\n        /* \"#utility.yul\":8413:8447   */\n      mstore\n        /* \"#utility.yul\":8344:8453   */\n      pop\n      pop\n      jump\t// out\n        /* \"#utility.yul\":8459:8577   */\n    tag_293:\n        /* \"#utility.yul\":8546:8570   */\n      tag_446\n        /* \"#utility.yul\":8564:8569   */\n      dup2\n        /* \"#utility.yul\":8546:8570   */\n      tag_280\n      jump\t// in\n    tag_446:\n        /* \"#utility.yul\":8541:8544   */\n      dup3\n        /* \"#utility.yul\":8534:8571   */\n      mstore\n        /* \"#utility.yul\":8459:8577   */\n      pop\n      pop\n      jump\t// out\n        /* \"#utility.yul\":8583:9607   */\n    tag_53:\n        /* \"#utility.yul\":8864:8868   */\n      0x00\n        /* \"#utility.yul\":8902:8905   */\n      0xc0\n        /* \"#utility.yul\":8891:8900   */\n      dup3\n        /* \"#utility.yul\":8887:8906   */\n      add\n        /* \"#utility.yul\":8879:8906   */\n      swap1\n      pop\n        /* \"#utility.yul\":8952:8961   */\n      dup2\n        /* \"#utility.yul\":8946:8950   */\n      dup2\n        /* \"#utility.yul\":8942:8962   */\n      sub\n        /* \"#utility.yul\":8938:8939   */\n      0x00\n        /* \"#utility.yul\":8927:8936   */\n      dup4\n        /* \"#utility.yul\":8923:8940   */\n      add\n        /* \"#utility.yul\":8916:8963   */\n      mstore\n        /* \"#utility.yul\":8980:9058   */\n      tag_448\n        /* \"#utility.yul\":9053:9057   */\n      dup2\n        /* \"#utility.yul\":9044:9050   */\n      dup10\n        /* \"#utility.yul\":8980:9058   */\n      tag_290\n      jump\t// in\n    tag_448:\n        /* \"#utility.yul\":8972:9058   */\n      swap1\n      pop\n        /* \"#utility.yul\":9105:9114   */\n      dup2\n        /* \"#utility.yul\":9099:9103   */\n      dup2\n        /* \"#utility.yul\":9095:9115   */\n      sub\n        /* \"#utility.yul\":9090:9092   */\n      0x20\n        /* \"#utility.yul\":9079:9088   */\n      dup4\n        /* \"#utility.yul\":9075:9093   */\n      add\n        /* \"#utility.yul\":9068:9116   */\n      mstore\n        /* \"#utility.yul\":9133:9211   */\n      tag_449\n        /* \"#utility.yul\":9206:9210   */\n      dup2\n        /* \"#utility.yul\":9197:9203   */\n      dup9\n        /* \"#utility.yul\":9133:9211   */\n      tag_290\n      jump\t// in\n    tag_449:\n        /* \"#utility.yul\":9125:9211   */\n      swap1\n      pop\n        /* \"#utility.yul\":9221:9287   */\n      tag_450\n        /* \"#utility.yul\":9283:9285   */\n      0x40\n        /* \"#utility.yul\":9272:9281   */\n      dup4\n        /* \"#utility.yul\":9268:9286   */\n      add\n        /* \"#utility.yul\":9259:9265   */\n      dup8\n        /* \"#utility.yul\":9221:9287   */\n      tag_292\n      jump\t// in\n    tag_450:\n        /* \"#utility.yul\":9297:9363   */\n      tag_451\n        /* \"#utility.yul\":9359:9361   */\n      0x60\n        /* \"#utility.yul\":9348:9357   */\n      dup4\n        /* \"#utility.yul\":9344:9362   */\n      add\n        /* \"#utility.yul\":9335:9341   */\n      dup7\n        /* \"#utility.yul\":9297:9363   */\n      tag_292\n      jump\t// in\n    tag_451:\n        /* \"#utility.yul\":9373:9446   */\n      tag_452\n        /* \"#utility.yul\":9441:9444   */\n      0x80\n        /* \"#utility.yul\":9430:9439   */\n      dup4\n        /* \"#utility.yul\":9426:9445   */\n      add\n        /* \"#utility.yul\":9417:9423   */\n      dup6\n        /* \"#utility.yul\":9373:9446   */\n      tag_293\n      jump\t// in\n    tag_452:\n        /* \"#utility.yul\":9494:9503   */\n      dup2\n        /* \"#utility.yul\":9488:9492   */\n      dup2\n        /* \"#utility.yul\":9484:9504   */\n      sub\n        /* \"#utility.yul\":9478:9481   */\n      0xa0\n        /* \"#utility.yul\":9467:9476   */\n      dup4\n        /* \"#utility.yul\":9463:9482   */\n      add\n        /* \"#utility.yul\":9456:9505   */\n      mstore\n        /* \"#utility.yul\":9522:9600   */\n      tag_453\n        /* \"#utility.yul\":9595:9599   */\n      dup2\n        /* \"#utility.yul\":9586:9592   */\n      dup5\n        /* \"#utility.yul\":9522:9600   */\n      tag_290\n      jump\t// in\n    tag_453:\n        /* \"#utility.yul\":9514:9600   */\n      swap1\n      pop\n        /* \"#utility.yul\":8583:9607   */\n      swap8\n      swap7\n      pop\n      pop\n      pop\n      pop\n      pop\n      pop\n      pop\n      jump\t// out\n        /* \"#utility.yul\":9613:9942   */\n    tag_59:\n        /* \"#utility.yul\":9672:9678   */\n      0x00\n        /* \"#utility.yul\":9721:9723   */\n      0x20\n        /* \"#utility.yul\":9709:9718   */\n      dup3\n        /* \"#utility.yul\":9700:9707   */\n      dup5\n        /* \"#utility.yul\":9696:9719   */\n      sub\n        /* \"#utility.yul\":9692:9724   */\n      slt\n        /* \"#utility.yul\":9689:9808   */\n      iszero\n      tag_455\n      jumpi\n        /* \"#utility.yul\":9727:9806   */\n      tag_456\n      tag_267\n      jump\t// in\n    tag_456:\n        /* \"#utility.yul\":9689:9808   */\n    tag_455:\n        /* \"#utility.yul\":9847:9848   */\n      0x00\n        /* \"#utility.yul\":9872:9925   */\n      tag_457\n        /* \"#utility.yul\":9917:9924   */\n      dup5\n        /* \"#utility.yul\":9908:9914   */\n      dup3\n        /* \"#utility.yul\":9897:9906   */\n      dup6\n        /* \"#utility.yul\":9893:9915   */\n      add\n        /* \"#utility.yul\":9872:9925   */\n      tag_282\n      jump\t// in\n    tag_457:\n        /* \"#utility.yul\":9862:9925   */\n      swap2\n      pop\n        /* \"#utility.yul\":9818:9935   */\n      pop\n        /* \"#utility.yul\":9613:9942   */\n      swap3\n      swap2\n      pop\n      pop\n      jump\t// out\n        /* \"#utility.yul\":9948:10481   */\n    tag_64:\n        /* \"#utility.yul\":10117:10121   */\n      0x00\n        /* \"#utility.yul\":10155:10157   */\n      0x60\n        /* \"#utility.yul\":10144:10153   */\n      dup3\n        /* \"#utility.yul\":10140:10158   */\n      add\n        /* \"#utility.yul\":10132:10158   */\n      swap1\n      pop\n        /* \"#utility.yul\":10168:10239   */\n      tag_459\n        /* \"#utility.yul\":10236:10237   */\n      0x00\n        /* \"#utility.yul\":10225:10234   */\n      dup4\n        /* \"#utility.yul\":10221:10238   */\n      add\n        /* \"#utility.yul\":10212:10218   */\n      dup7\n        /* \"#utility.yul\":10168:10239   */\n      tag_286\n      jump\t// in\n    tag_459:\n        /* \"#utility.yul\":10286:10295   */\n      dup2\n        /* \"#utility.yul\":10280:10284   */\n      dup2\n        /* \"#utility.yul\":10276:10296   */\n      sub\n        /* \"#utility.yul\":10271:10273   */\n      0x20\n        /* \"#utility.yul\":10260:10269   */\n      dup4\n        /* \"#utility.yul\":10256:10274   */\n      add\n        /* \"#utility.yul\":10249:10297   */\n      mstore\n        /* \"#utility.yul\":10314:10392   */\n      tag_460\n        /* \"#utility.yul\":10387:10391   */\n      dup2\n        /* \"#utility.yul\":10378:10384   */\n      dup6\n        /* \"#utility.yul\":10314:10392   */\n      tag_290\n      jump\t// in\n    tag_460:\n        /* \"#utility.yul\":10306:10392   */\n      swap1\n      pop\n        /* \"#utility.yul\":10402:10474   */\n      tag_461\n        /* \"#utility.yul\":10470:10472   */\n      0x40\n        /* \"#utility.yul\":10459:10468   */\n      dup4\n        /* \"#utility.yul\":10455:10473   */\n      add\n        /* \"#utility.yul\":10446:10452   */\n      dup5\n        /* \"#utility.yul\":10402:10474   */\n      tag_286\n      jump\t// in\n    tag_461:\n        /* \"#utility.yul\":9948:10481   */\n      swap5\n      swap4\n      pop\n      pop\n      pop\n      pop\n      jump\t// out\n        /* \"#utility.yul\":10487:10633   */\n    tag_294:\n        /* \"#utility.yul\":10586:10592   */\n      0x00\n        /* \"#utility.yul\":10620:10625   */\n      dup2\n        /* \"#utility.yul\":10614:10626   */\n      mload\n        /* \"#utility.yul\":10604:10626   */\n      swap1\n      pop\n        /* \"#utility.yul\":10487:10633   */\n      swap2\n      swap1\n      pop\n      jump\t// out\n        /* \"#utility.yul\":10639:10855   */\n    tag_295:\n        /* \"#utility.yul\":10770:10781   */\n      0x00\n        /* \"#utility.yul\":10804:10810   */\n      dup3\n        /* \"#utility.yul\":10799:10802   */\n      dup3\n        /* \"#utility.yul\":10792:10811   */\n      mstore\n        /* \"#utility.yul\":10844:10848   */\n      0x20\n        /* \"#utility.yul\":10839:10842   */\n      dup3\n        /* \"#utility.yul\":10835:10849   */\n      add\n        /* \"#utility.yul\":10820:10849   */\n      swap1\n      pop\n        /* \"#utility.yul\":10639:10855   */\n      swap3\n      swap2\n      pop\n      pop\n      jump\t// out\n        /* \"#utility.yul\":10861:11025   */\n    tag_296:\n        /* \"#utility.yul\":10960:10964   */\n      0x00\n        /* \"#utility.yul\":10983:10986   */\n      dup2\n        /* \"#utility.yul\":10975:10986   */\n      swap1\n      pop\n        /* \"#utility.yul\":11013:11017   */\n      0x20\n        /* \"#utility.yul\":11008:11011   */\n      dup3\n        /* \"#utility.yul\":11004:11018   */\n      add\n        /* \"#utility.yul\":10996:11018   */\n      swap1\n      pop\n        /* \"#utility.yul\":10861:11025   */\n      swap2\n      swap1\n      pop\n      jump\t// out\n        /* \"#utility.yul\":11031:11190   */\n    tag_297:\n        /* \"#utility.yul\":11105:11116   */\n      0x00\n        /* \"#utility.yul\":11139:11145   */\n      dup3\n        /* \"#utility.yul\":11134:11137   */\n      dup3\n        /* \"#utility.yul\":11127:11146   */\n      mstore\n        /* \"#utility.yul\":11179:11183   */\n      0x20\n        /* \"#utility.yul\":11174:11177   */\n      dup3\n        /* \"#utility.yul\":11170:11184   */\n      add\n        /* \"#utility.yul\":11155:11184   */\n      swap1\n      pop\n        /* \"#utility.yul\":11031:11190   */\n      swap3\n      swap2\n      pop\n      pop\n      jump\t// out\n        /* \"#utility.yul\":11196:11553   */\n    tag_298:\n        /* \"#utility.yul\":11274:11277   */\n      0x00\n        /* \"#utility.yul\":11302:11341   */\n      tag_467\n        /* \"#utility.yul\":11335:11340   */\n      dup3\n        /* \"#utility.yul\":11302:11341   */\n      tag_287\n      jump\t// in\n    tag_467:\n        /* \"#utility.yul\":11357:11418   */\n      tag_468\n        /* \"#utility.yul\":11411:11417   */\n      dup2\n        /* \"#utility.yul\":11406:11409   */\n      dup6\n        /* \"#utility.yul\":11357:11418   */\n      tag_297\n      jump\t// in\n    tag_468:\n        /* \"#utility.yul\":11350:11418   */\n      swap4\n      pop\n        /* \"#utility.yul\":11427:11492   */\n      tag_469\n        /* \"#utility.yul\":11485:11491   */\n      dup2\n        /* \"#utility.yul\":11480:11483   */\n      dup6\n        /* \"#utility.yul\":11473:11477   */\n      0x20\n        /* \"#utility.yul\":11466:11471   */\n      dup7\n        /* \"#utility.yul\":11462:11478   */\n      add\n        /* \"#utility.yul\":11427:11492   */\n      tag_289\n      jump\t// in\n    tag_469:\n        /* \"#utility.yul\":11517:11546   */\n      tag_470\n        /* \"#utility.yul\":11539:11545   */\n      dup2\n        /* \"#utility.yul\":11517:11546   */\n      tag_271\n      jump\t// in\n    tag_470:\n        /* \"#utility.yul\":11512:11515   */\n      dup5\n        /* \"#utility.yul\":11508:11547   */\n      add\n        /* \"#utility.yul\":11501:11547   */\n      swap2\n      pop\n        /* \"#utility.yul\":11278:11553   */\n      pop\n        /* \"#utility.yul\":11196:11553   */\n      swap3\n      swap2\n      pop\n      pop\n      jump\t// out\n        /* \"#utility.yul\":11559:11667   */\n    tag_299:\n        /* \"#utility.yul\":11636:11660   */\n      tag_472\n        /* \"#utility.yul\":11654:11659   */\n      dup2\n        /* \"#utility.yul\":11636:11660   */\n      tag_283\n      jump\t// in\n    tag_472:\n        /* \"#utility.yul\":11631:11634   */\n      dup3\n        /* \"#utility.yul\":11624:11661   */\n      mstore\n        /* \"#utility.yul\":11559:11667   */\n      pop\n      pop\n      jump\t// out\n        /* \"#utility.yul\":11673:11781   */\n    tag_300:\n        /* \"#utility.yul\":11750:11774   */\n      tag_474\n        /* \"#utility.yul\":11768:11773   */\n      dup2\n        /* \"#utility.yul\":11750:11774   */\n      tag_280\n      jump\t// in\n    tag_474:\n        /* \"#utility.yul\":11745:11748   */\n      dup3\n        /* \"#utility.yul\":11738:11775   */\n      mstore\n        /* \"#utility.yul\":11673:11781   */\n      pop\n      pop\n      jump\t// out\n        /* \"#utility.yul\":11859:12903   */\n    tag_301:\n        /* \"#utility.yul\":11982:11985   */\n      0x00\n        /* \"#utility.yul\":12018:12022   */\n      0x80\n        /* \"#utility.yul\":12013:12016   */\n      dup4\n        /* \"#utility.yul\":12009:12023   */\n      add\n        /* \"#utility.yul\":12105:12109   */\n      0x00\n        /* \"#utility.yul\":12098:12103   */\n      dup4\n        /* \"#utility.yul\":12094:12110   */\n      add\n        /* \"#utility.yul\":12088:12111   */\n      mload\n        /* \"#utility.yul\":12158:12161   */\n      dup5\n        /* \"#utility.yul\":12152:12156   */\n      dup3\n        /* \"#utility.yul\":12148:12162   */\n      sub\n        /* \"#utility.yul\":12141:12145   */\n      0x00\n        /* \"#utility.yul\":12136:12139   */\n      dup7\n        /* \"#utility.yul\":12132:12146   */\n      add\n        /* \"#utility.yul\":12125:12163   */\n      mstore\n        /* \"#utility.yul\":12184:12257   */\n      tag_476\n        /* \"#utility.yul\":12252:12256   */\n      dup3\n        /* \"#utility.yul\":12238:12250   */\n      dup3\n        /* \"#utility.yul\":12184:12257   */\n      tag_298\n      jump\t// in\n    tag_476:\n        /* \"#utility.yul\":12176:12257   */\n      swap2\n      pop\n        /* \"#utility.yul\":12033:12268   */\n      pop\n        /* \"#utility.yul\":12352:12356   */\n      0x20\n        /* \"#utility.yul\":12345:12350   */\n      dup4\n        /* \"#utility.yul\":12341:12357   */\n      add\n        /* \"#utility.yul\":12335:12358   */\n      mload\n        /* \"#utility.yul\":12405:12408   */\n      dup5\n        /* \"#utility.yul\":12399:12403   */\n      dup3\n        /* \"#utility.yul\":12395:12409   */\n      sub\n        /* \"#utility.yul\":12388:12392   */\n      0x20\n        /* \"#utility.yul\":12383:12386   */\n      dup7\n        /* \"#utility.yul\":12379:12393   */\n      add\n        /* \"#utility.yul\":12372:12410   */\n      mstore\n        /* \"#utility.yul\":12431:12504   */\n      tag_477\n        /* \"#utility.yul\":12499:12503   */\n      dup3\n        /* \"#utility.yul\":12485:12497   */\n      dup3\n        /* \"#utility.yul\":12431:12504   */\n      tag_298\n      jump\t// in\n    tag_477:\n        /* \"#utility.yul\":12423:12504   */\n      swap2\n      pop\n        /* \"#utility.yul\":12278:12515   */\n      pop\n        /* \"#utility.yul\":12598:12602   */\n      0x40\n        /* \"#utility.yul\":12591:12596   */\n      dup4\n        /* \"#utility.yul\":12587:12603   */\n      add\n        /* \"#utility.yul\":12581:12604   */\n      mload\n        /* \"#utility.yul\":12617:12680   */\n      tag_478\n        /* \"#utility.yul\":12674:12678   */\n      0x40\n        /* \"#utility.yul\":12669:12672   */\n      dup7\n        /* \"#utility.yul\":12665:12679   */\n      add\n        /* \"#utility.yul\":12651:12663   */\n      dup3\n        /* \"#utility.yul\":12617:12680   */\n      tag_299\n      jump\t// in\n    tag_478:\n        /* \"#utility.yul\":12525:12690   */\n      pop\n        /* \"#utility.yul\":12784:12788   */\n      0x60\n        /* \"#utility.yul\":12777:12782   */\n      dup4\n        /* \"#utility.yul\":12773:12789   */\n      add\n        /* \"#utility.yul\":12767:12790   */\n      mload\n        /* \"#utility.yul\":12803:12866   */\n      tag_479\n        /* \"#utility.yul\":12860:12864   */\n      0x60\n        /* \"#utility.yul\":12855:12858   */\n      dup7\n        /* \"#utility.yul\":12851:12865   */\n      add\n        /* \"#utility.yul\":12837:12849   */\n      dup3\n        /* \"#utility.yul\":12803:12866   */\n      tag_300\n      jump\t// in\n    tag_479:\n        /* \"#utility.yul\":12700:12876   */\n      pop\n        /* \"#utility.yul\":12893:12897   */\n      dup1\n        /* \"#utility.yul\":12886:12897   */\n      swap2\n      pop\n        /* \"#utility.yul\":11987:12903   */\n      pop\n        /* \"#utility.yul\":11859:12903   */\n      swap3\n      swap2\n      pop\n      pop\n      jump\t// out\n        /* \"#utility.yul\":12909:13193   */\n    tag_302:\n        /* \"#utility.yul\":13042:13052   */\n      0x00\n        /* \"#utility.yul\":13077:13187   */\n      tag_481\n        /* \"#utility.yul\":13183:13186   */\n      dup4\n        /* \"#utility.yul\":13175:13181   */\n      dup4\n        /* \"#utility.yul\":13077:13187   */\n      tag_301\n      jump\t// in\n    tag_481:\n        /* \"#utility.yul\":13063:13187   */\n      swap1\n      pop\n        /* \"#utility.yul\":12909:13193   */\n      swap3\n      swap2\n      pop\n      pop\n      jump\t// out\n        /* \"#utility.yul\":13199:13344   */\n    tag_303:\n        /* \"#utility.yul\":13301:13305   */\n      0x00\n        /* \"#utility.yul\":13333:13337   */\n      0x20\n        /* \"#utility.yul\":13328:13331   */\n      dup3\n        /* \"#utility.yul\":13324:13338   */\n      add\n        /* \"#utility.yul\":13316:13338   */\n      swap1\n      pop\n        /* \"#utility.yul\":13199:13344   */\n      swap2\n      swap1\n      pop\n      jump\t// out\n        /* \"#utility.yul\":13426:14593   */\n    tag_304:\n        /* \"#utility.yul\":13609:13612   */\n      0x00\n        /* \"#utility.yul\":13638:13724   */\n      tag_484\n        /* \"#utility.yul\":13718:13723   */\n      dup3\n        /* \"#utility.yul\":13638:13724   */\n      tag_294\n      jump\t// in\n    tag_484:\n        /* \"#utility.yul\":13740:13858   */\n      tag_485\n        /* \"#utility.yul\":13851:13857   */\n      dup2\n        /* \"#utility.yul\":13846:13849   */\n      dup6\n        /* \"#utility.yul\":13740:13858   */\n      tag_295\n      jump\t// in\n    tag_485:\n        /* \"#utility.yul\":13733:13858   */\n      swap4\n      pop\n        /* \"#utility.yul\":13884:13887   */\n      dup4\n        /* \"#utility.yul\":13929:13933   */\n      0x20\n        /* \"#utility.yul\":13921:13927   */\n      dup3\n        /* \"#utility.yul\":13917:13934   */\n      mul\n        /* \"#utility.yul\":13912:13915   */\n      dup6\n        /* \"#utility.yul\":13908:13935   */\n      add\n        /* \"#utility.yul\":13959:14047   */\n      tag_486\n        /* \"#utility.yul\":14041:14046   */\n      dup6\n        /* \"#utility.yul\":13959:14047   */\n      tag_296\n      jump\t// in\n    tag_486:\n        /* \"#utility.yul\":14070:14077   */\n      dup1\n        /* \"#utility.yul\":14101:14102   */\n      0x00\n        /* \"#utility.yul\":14086:14548   */\n    tag_487:\n        /* \"#utility.yul\":14111:14117   */\n      dup6\n        /* \"#utility.yul\":14108:14109   */\n      dup2\n        /* \"#utility.yul\":14105:14118   */\n      lt\n        /* \"#utility.yul\":14086:14548   */\n      iszero\n      tag_489\n      jumpi\n        /* \"#utility.yul\":14182:14191   */\n      dup5\n        /* \"#utility.yul\":14176:14180   */\n      dup5\n        /* \"#utility.yul\":14172:14192   */\n      sub\n        /* \"#utility.yul\":14167:14170   */\n      dup10\n        /* \"#utility.yul\":14160:14193   */\n      mstore\n        /* \"#utility.yul\":14233:14239   */\n      dup2\n        /* \"#utility.yul\":14227:14240   */\n      mload\n        /* \"#utility.yul\":14261:14389   */\n      tag_490\n        /* \"#utility.yul\":14384:14388   */\n      dup6\n        /* \"#utility.yul\":14369:14382   */\n      dup3\n        /* \"#utility.yul\":14261:14389   */\n      tag_302\n      jump\t// in\n    tag_490:\n        /* \"#utility.yul\":14253:14389   */\n      swap5\n      pop\n        /* \"#utility.yul\":14412:14504   */\n      tag_491\n        /* \"#utility.yul\":14497:14503   */\n      dup4\n        /* \"#utility.yul\":14412:14504   */\n      tag_303\n      jump\t// in\n    tag_491:\n        /* \"#utility.yul\":14402:14504   */\n      swap3\n      pop\n        /* \"#utility.yul\":14533:14537   */\n      0x20\n        /* \"#utility.yul\":14528:14531   */\n      dup11\n        /* \"#utility.yul\":14524:14538   */\n      add\n        /* \"#utility.yul\":14517:14538   */\n      swap10\n      pop\n        /* \"#utility.yul\":14146:14548   */\n      pop\n        /* \"#utility.yul\":14133:14134   */\n      0x01\n        /* \"#utility.yul\":14130:14131   */\n      dup2\n        /* \"#utility.yul\":14126:14135   */\n      add\n        /* \"#utility.yul\":14121:14135   */\n      swap1\n      pop\n        /* \"#utility.yul\":14086:14548   */\n      jump(tag_487)\n    tag_489:\n        /* \"#utility.yul\":14090:14104   */\n      pop\n        /* \"#utility.yul\":14564:14568   */\n      dup3\n        /* \"#utility.yul\":14557:14568   */\n      swap8\n      pop\n        /* \"#utility.yul\":14584:14587   */\n      dup8\n        /* \"#utility.yul\":14577:14587   */\n      swap6\n      pop\n        /* \"#utility.yul\":13614:14593   */\n      pop\n      pop\n      pop\n      pop\n      pop\n        /* \"#utility.yul\":13426:14593   */\n      swap3\n      swap2\n      pop\n      pop\n      jump\t// out\n        /* \"#utility.yul\":14599:15100   */\n    tag_68:\n        /* \"#utility.yul\":14806:14810   */\n      0x00\n        /* \"#utility.yul\":14844:14846   */\n      0x20\n        /* \"#utility.yul\":14833:14842   */\n      dup3\n        /* \"#utility.yul\":14829:14847   */\n      add\n        /* \"#utility.yul\":14821:14847   */\n      swap1\n      pop\n        /* \"#utility.yul\":14893:14902   */\n      dup2\n        /* \"#utility.yul\":14887:14891   */\n      dup2\n        /* \"#utility.yul\":14883:14903   */\n      sub\n        /* \"#utility.yul\":14879:14880   */\n      0x00\n        /* \"#utility.yul\":14868:14877   */\n      dup4\n        /* \"#utility.yul\":14864:14881   */\n      add\n        /* \"#utility.yul\":14857:14904   */\n      mstore\n        /* \"#utility.yul\":14921:15093   */\n      tag_493\n        /* \"#utility.yul\":15088:15092   */\n      dup2\n        /* \"#utility.yul\":15079:15085   */\n      dup5\n        /* \"#utility.yul\":14921:15093   */\n      tag_304\n      jump\t// in\n    tag_493:\n        /* \"#utility.yul\":14913:15093   */\n      swap1\n      pop\n        /* \"#utility.yul\":14599:15100   */\n      swap3\n      swap2\n      pop\n      pop\n      jump\t// out\n        /* \"#utility.yul\":15106:15580   */\n    tag_71:\n        /* \"#utility.yul\":15174:15180   */\n      0x00\n        /* \"#utility.yul\":15182:15188   */\n      dup1\n        /* \"#utility.yul\":15231:15233   */\n      0x40\n        /* \"#utility.yul\":15219:15228   */\n      dup4\n        /* \"#utility.yul\":15210:15217   */\n      dup6\n        /* \"#utility.yul\":15206:15229   */\n      sub\n        /* \"#utility.yul\":15202:15234   */\n      slt\n        /* \"#utility.yul\":15199:15318   */\n      iszero\n      tag_495\n      jumpi\n        /* \"#utility.yul\":15237:15316   */\n      tag_496\n      tag_267\n      jump\t// in\n    tag_496:\n        /* \"#utility.yul\":15199:15318   */\n    tag_495:\n        /* \"#utility.yul\":15357:15358   */\n      0x00\n        /* \"#utility.yul\":15382:15435   */\n      tag_497\n        /* \"#utility.yul\":15427:15434   */\n      dup6\n        /* \"#utility.yul\":15418:15424   */\n      dup3\n        /* \"#utility.yul\":15407:15416   */\n      dup7\n        /* \"#utility.yul\":15403:15425   */\n      add\n        /* \"#utility.yul\":15382:15435   */\n      tag_282\n      jump\t// in\n    tag_497:\n        /* \"#utility.yul\":15372:15435   */\n      swap3\n      pop\n        /* \"#utility.yul\":15328:15445   */\n      pop\n        /* \"#utility.yul\":15484:15486   */\n      0x20\n        /* \"#utility.yul\":15510:15563   */\n      tag_498\n        /* \"#utility.yul\":15555:15562   */\n      dup6\n        /* \"#utility.yul\":15546:15552   */\n      dup3\n        /* \"#utility.yul\":15535:15544   */\n      dup7\n        /* \"#utility.yul\":15531:15553   */\n      add\n        /* \"#utility.yul\":15510:15563   */\n      tag_285\n      jump\t// in\n    tag_498:\n        /* \"#utility.yul\":15500:15563   */\n      swap2\n      pop\n        /* \"#utility.yul\":15455:15573   */\n      pop\n        /* \"#utility.yul\":15106:15580   */\n      swap3\n      pop\n      swap3\n      swap1\n      pop\n      jump\t// out\n        /* \"#utility.yul\":15586:15824   */\n    tag_305:\n        /* \"#utility.yul\":15726:15760   */\n      0x4f6e6c7920566f74696e672041646d696e20697320616c6c6f77656420746f20\n        /* \"#utility.yul\":15722:15723   */\n      0x00\n        /* \"#utility.yul\":15714:15720   */\n      dup3\n        /* \"#utility.yul\":15710:15724   */\n      add\n        /* \"#utility.yul\":15703:15761   */\n      mstore\n        /* \"#utility.yul\":15795:15816   */\n      0x706572666f726d207468697320616374696f6e00000000000000000000000000\n        /* \"#utility.yul\":15790:15792   */\n      0x20\n        /* \"#utility.yul\":15782:15788   */\n      dup3\n        /* \"#utility.yul\":15778:15793   */\n      add\n        /* \"#utility.yul\":15771:15817   */\n      mstore\n        /* \"#utility.yul\":15586:15824   */\n      pop\n      jump\t// out\n        /* \"#utility.yul\":15830:16196   */\n    tag_306:\n        /* \"#utility.yul\":15972:15975   */\n      0x00\n        /* \"#utility.yul\":15993:16060   */\n      tag_501\n        /* \"#utility.yul\":16057:16059   */\n      0x33\n        /* \"#utility.yul\":16052:16055   */\n      dup4\n        /* \"#utility.yul\":15993:16060   */\n      tag_288\n      jump\t// in\n    tag_501:\n        /* \"#utility.yul\":15986:16060   */\n      swap2\n      pop\n        /* \"#utility.yul\":16069:16162   */\n      tag_502\n        /* \"#utility.yul\":16158:16161   */\n      dup3\n        /* \"#utility.yul\":16069:16162   */\n      tag_305\n      jump\t// in\n    tag_502:\n        /* \"#utility.yul\":16187:16189   */\n      0x40\n        /* \"#utility.yul\":16182:16185   */\n      dup3\n        /* \"#utility.yul\":16178:16190   */\n      add\n        /* \"#utility.yul\":16171:16190   */\n      swap1\n      pop\n        /* \"#utility.yul\":15830:16196   */\n      swap2\n      swap1\n      pop\n      jump\t// out\n        /* \"#utility.yul\":16202:16621   */\n    tag_76:\n        /* \"#utility.yul\":16368:16372   */\n      0x00\n        /* \"#utility.yul\":16406:16408   */\n      0x20\n        /* \"#utility.yul\":16395:16404   */\n      dup3\n        /* \"#utility.yul\":16391:16409   */\n      add\n        /* \"#utility.yul\":16383:16409   */\n      swap1\n      pop\n        /* \"#utility.yul\":16455:16464   */\n      dup2\n        /* \"#utility.yul\":16449:16453   */\n      dup2\n        /* \"#utility.yul\":16445:16465   */\n      sub\n        /* \"#utility.yul\":16441:16442   */\n      0x00\n        /* \"#utility.yul\":16430:16439   */\n      dup4\n        /* \"#utility.yul\":16426:16443   */\n      add\n        /* \"#utility.yul\":16419:16466   */\n      mstore\n        /* \"#utility.yul\":16483:16614   */\n      tag_504\n        /* \"#utility.yul\":16609:16613   */\n      dup2\n        /* \"#utility.yul\":16483:16614   */\n      tag_306\n      jump\t// in\n    tag_504:\n        /* \"#utility.yul\":16475:16614   */\n      swap1\n      pop\n        /* \"#utility.yul\":16202:16621   */\n      swap2\n      swap1\n      pop\n      jump\t// out\n        /* \"#utility.yul\":16627:16854   */\n    tag_307:\n        /* \"#utility.yul\":16767:16801   */\n      0x43616e6e6f74206164642043616e64696461746520617320656c656374696f6e\n        /* \"#utility.yul\":16763:16764   */\n      0x00\n        /* \"#utility.yul\":16755:16761   */\n      dup3\n        /* \"#utility.yul\":16751:16765   */\n      add\n        /* \"#utility.yul\":16744:16802   */\n      mstore\n        /* \"#utility.yul\":16836:16846   */\n      0x2073746172746564000000000000000000000000000000000000000000000000\n        /* \"#utility.yul\":16831:16833   */\n      0x20\n        /* \"#utility.yul\":16823:16829   */\n      dup3\n        /* \"#utility.yul\":16819:16834   */\n      add\n        /* \"#utility.yul\":16812:16847   */\n      mstore\n        /* \"#utility.yul\":16627:16854   */\n      pop\n      jump\t// out\n        /* \"#utility.yul\":16860:17226   */\n    tag_308:\n        /* \"#utility.yul\":17002:17005   */\n      0x00\n        /* \"#utility.yul\":17023:17090   */\n      tag_507\n        /* \"#utility.yul\":17087:17089   */\n      0x28\n        /* \"#utility.yul\":17082:17085   */\n      dup4\n        /* \"#utility.yul\":17023:17090   */\n      tag_288\n      jump\t// in\n    tag_507:\n        /* \"#utility.yul\":17016:17090   */\n      swap2\n      pop\n        /* \"#utility.yul\":17099:17192   */\n      tag_508\n        /* \"#utility.yul\":17188:17191   */\n      dup3\n        /* \"#utility.yul\":17099:17192   */\n      tag_307\n      jump\t// in\n    tag_508:\n        /* \"#utility.yul\":17217:17219   */\n      0x40\n        /* \"#utility.yul\":17212:17215   */\n      dup3\n        /* \"#utility.yul\":17208:17220   */\n      add\n        /* \"#utility.yul\":17201:17220   */\n      swap1\n      pop\n        /* \"#utility.yul\":16860:17226   */\n      swap2\n      swap1\n      pop\n      jump\t// out\n        /* \"#utility.yul\":17232:17651   */\n    tag_80:\n        /* \"#utility.yul\":17398:17402   */\n      0x00\n        /* \"#utility.yul\":17436:17438   */\n      0x20\n        /* \"#utility.yul\":17425:17434   */\n      dup3\n        /* \"#utility.yul\":17421:17439   */\n      add\n        /* \"#utility.yul\":17413:17439   */\n      swap1\n      pop\n        /* \"#utility.yul\":17485:17494   */\n      dup2\n        /* \"#utility.yul\":17479:17483   */\n      dup2\n        /* \"#utility.yul\":17475:17495   */\n      sub\n        /* \"#utility.yul\":17471:17472   */\n      0x00\n        /* \"#utility.yul\":17460:17469   */\n      dup4\n        /* \"#utility.yul\":17456:17473   */\n      add\n        /* \"#utility.yul\":17449:17496   */\n      mstore\n        /* \"#utility.yul\":17513:17644   */\n      tag_510\n        /* \"#utility.yul\":17639:17643   */\n      dup2\n        /* \"#utility.yul\":17513:17644   */\n      tag_308\n      jump\t// in\n    tag_510:\n        /* \"#utility.yul\":17505:17644   */\n      swap1\n      pop\n        /* \"#utility.yul\":17232:17651   */\n      swap2\n      swap1\n      pop\n      jump\t// out\n        /* \"#utility.yul\":17657:17835   */\n    tag_309:\n        /* \"#utility.yul\":17797:17827   */\n      0x43616e64696461746520416c7265616479205265676973746572656400000000\n        /* \"#utility.yul\":17793:17794   */\n      0x00\n        /* \"#utility.yul\":17785:17791   */\n      dup3\n        /* \"#utility.yul\":17781:17795   */\n      add\n        /* \"#utility.yul\":17774:17828   */\n      mstore\n        /* \"#utility.yul\":17657:17835   */\n      pop\n      jump\t// out\n        /* \"#utility.yul\":17841:18207   */\n    tag_310:\n        /* \"#utility.yul\":17983:17986   */\n      0x00\n        /* \"#utility.yul\":18004:18071   */\n      tag_513\n        /* \"#utility.yul\":18068:18070   */\n      0x1c\n        /* \"#utility.yul\":18063:18066   */\n      dup4\n        /* \"#utility.yul\":18004:18071   */\n      tag_288\n      jump\t// in\n    tag_513:\n        /* \"#utility.yul\":17997:18071   */\n      swap2\n      pop\n        /* \"#utility.yul\":18080:18173   */\n      tag_514\n        /* \"#utility.yul\":18169:18172   */\n      dup3\n        /* \"#utility.yul\":18080:18173   */\n      tag_309\n      jump\t// in\n    tag_514:\n        /* \"#utility.yul\":18198:18200   */\n      0x20\n        /* \"#utility.yul\":18193:18196   */\n      dup3\n        /* \"#utility.yul\":18189:18201   */\n      add\n        /* \"#utility.yul\":18182:18201   */\n      swap1\n      pop\n        /* \"#utility.yul\":17841:18207   */\n      swap2\n      swap1\n      pop\n      jump\t// out\n        /* \"#utility.yul\":18213:18632   */\n    tag_83:\n        /* \"#utility.yul\":18379:18383   */\n      0x00\n        /* \"#utility.yul\":18417:18419   */\n      0x20\n        /* \"#utility.yul\":18406:18415   */\n      dup3\n        /* \"#utility.yul\":18402:18420   */\n      add\n        /* \"#utility.yul\":18394:18420   */\n      swap1\n      pop\n        /* \"#utility.yul\":18466:18475   */\n      dup2\n        /* \"#utility.yul\":18460:18464   */\n      dup2\n        /* \"#utility.yul\":18456:18476   */\n      sub\n        /* \"#utility.yul\":18452:18453   */\n      0x00\n        /* \"#utility.yul\":18441:18450   */\n      dup4\n        /* \"#utility.yul\":18437:18454   */\n      add\n        /* \"#utility.yul\":18430:18477   */\n      mstore\n        /* \"#utility.yul\":18494:18625   */\n      tag_516\n        /* \"#utility.yul\":18620:18624   */\n      dup2\n        /* \"#utility.yul\":18494:18625   */\n      tag_310\n      jump\t// in\n    tag_516:\n        /* \"#utility.yul\":18486:18625   */\n      swap1\n      pop\n        /* \"#utility.yul\":18213:18632   */\n      swap2\n      swap1\n      pop\n      jump\t// out\n        /* \"#utility.yul\":18638:18818   */\n    tag_311:\n        /* \"#utility.yul\":18686:18763   */\n      0x4e487b7100000000000000000000000000000000000000000000000000000000\n        /* \"#utility.yul\":18683:18684   */\n      0x00\n        /* \"#utility.yul\":18676:18764   */\n      mstore\n        /* \"#utility.yul\":18783:18787   */\n      0x22\n        /* \"#utility.yul\":18780:18781   */\n      0x04\n        /* \"#utility.yul\":18773:18788   */\n      mstore\n        /* \"#utility.yul\":18807:18811   */\n      0x24\n        /* \"#utility.yul\":18804:18805   */\n      0x00\n        /* \"#utility.yul\":18797:18812   */\n      revert\n        /* \"#utility.yul\":18824:19144   */\n    tag_110:\n        /* \"#utility.yul\":18868:18874   */\n      0x00\n        /* \"#utility.yul\":18905:18906   */\n      0x02\n        /* \"#utility.yul\":18899:18903   */\n      dup3\n        /* \"#utility.yul\":18895:18907   */\n      div\n        /* \"#utility.yul\":18885:18907   */\n      swap1\n      pop\n        /* \"#utility.yul\":18952:18953   */\n      0x01\n        /* \"#utility.yul\":18946:18950   */\n      dup3\n        /* \"#utility.yul\":18942:18954   */\n      and\n        /* \"#utility.yul\":18973:18991   */\n      dup1\n        /* \"#utility.yul\":18963:19044   */\n      tag_519\n      jumpi\n        /* \"#utility.yul\":19029:19033   */\n      0x7f\n        /* \"#utility.yul\":19021:19027   */\n      dup3\n        /* \"#utility.yul\":19017:19034   */\n      and\n        /* \"#utility.yul\":19007:19034   */\n      swap2\n      pop\n        /* \"#utility.yul\":18963:19044   */\n    tag_519:\n        /* \"#utility.yul\":19091:19093   */\n      0x20\n        /* \"#utility.yul\":19083:19089   */\n      dup3\n        /* \"#utility.yul\":19080:19094   */\n      lt\n        /* \"#utility.yul\":19060:19078   */\n      dup2\n        /* \"#utility.yul\":19057:19095   */\n      sub\n        /* \"#utility.yul\":19054:19138   */\n      tag_520\n      jumpi\n        /* \"#utility.yul\":19110:19128   */\n      tag_521\n      tag_311\n      jump\t// in\n    tag_521:\n        /* \"#utility.yul\":19054:19138   */\n    tag_520:\n        /* \"#utility.yul\":18875:19144   */\n      pop\n        /* \"#utility.yul\":18824:19144   */\n      swap2\n      swap1\n      pop\n      jump\t// out\n        /* \"#utility.yul\":19150:19291   */\n    tag_312:\n        /* \"#utility.yul\":19199:19203   */\n      0x00\n        /* \"#utility.yul\":19222:19225   */\n      dup2\n        /* \"#utility.yul\":19214:19225   */\n      swap1\n      pop\n        /* \"#utility.yul\":19245:19248   */\n      dup2\n        /* \"#utility.yul\":19242:19243   */\n      0x00\n        /* \"#utility.yul\":19235:19249   */\n      mstore\n        /* \"#utility.yul\":19279:19283   */\n      0x20\n        /* \"#utility.yul\":19276:19277   */\n      0x00\n        /* \"#utility.yul\":19266:19284   */\n      keccak256\n        /* \"#utility.yul\":19258:19284   */\n      swap1\n      pop\n        /* \"#utility.yul\":19150:19291   */\n      swap2\n      swap1\n      pop\n      jump\t// out\n        /* \"#utility.yul\":19297:19390   */\n    tag_313:\n        /* \"#utility.yul\":19334:19340   */\n      0x00\n        /* \"#utility.yul\":19381:19383   */\n      0x20\n        /* \"#utility.yul\":19376:19378   */\n      0x1f\n        /* \"#utility.yul\":19369:19374   */\n      dup4\n        /* \"#utility.yul\":19365:19379   */\n      add\n        /* \"#utility.yul\":19361:19384   */\n      div\n        /* \"#utility.yul\":19351:19384   */\n      swap1\n      pop\n        /* \"#utility.yul\":19297:19390   */\n      swap2\n      swap1\n      pop\n      jump\t// out\n        /* \"#utility.yul\":19396:19503   */\n    tag_314:\n        /* \"#utility.yul\":19440:19448   */\n      0x00\n        /* \"#utility.yul\":19490:19495   */\n      dup3\n        /* \"#utility.yul\":19484:19488   */\n      dup3\n        /* \"#utility.yul\":19480:19496   */\n      shl\n        /* \"#utility.yul\":19459:19496   */\n      swap1\n      pop\n        /* \"#utility.yul\":19396:19503   */\n      swap3\n      swap2\n      pop\n      pop\n      jump\t// out\n        /* \"#utility.yul\":19509:19902   */\n    tag_315:\n        /* \"#utility.yul\":19578:19584   */\n      0x00\n        /* \"#utility.yul\":19628:19629   */\n      0x08\n        /* \"#utility.yul\":19616:19626   */\n      dup4\n        /* \"#utility.yul\":19612:19630   */\n      mul\n        /* \"#utility.yul\":19651:19748   */\n      tag_526\n        /* \"#utility.yul\":19681:19747   */\n      0xffffffffffffffffffffffffffffffffffffffffffffffffffffffffffffffff\n        /* \"#utility.yul\":19670:19679   */\n      dup3\n        /* \"#utility.yul\":19651:19748   */\n      tag_314\n      jump\t// in\n    tag_526:\n        /* \"#utility.yul\":19769:19808   */\n      tag_527\n        /* \"#utility.yul\":19799:19807   */\n      dup7\n        /* \"#utility.yul\":19788:19797   */\n      dup4\n        /* \"#utility.yul\":19769:19808   */\n      tag_314\n      jump\t// in\n    tag_527:\n        /* \"#utility.yul\":19757:19808   */\n      swap6\n      pop\n        /* \"#utility.yul\":19841:19845   */\n      dup1\n        /* \"#utility.yul\":19837:19846   */\n      not\n        /* \"#utility.yul\":19830:19835   */\n      dup5\n        /* \"#utility.yul\":19826:19847   */\n      and\n        /* \"#utility.yul\":19817:19847   */\n      swap4\n      pop\n        /* \"#utility.yul\":19890:19894   */\n      dup1\n        /* \"#utility.yul\":19880:19888   */\n      dup7\n        /* \"#utility.yul\":19876:19895   */\n      and\n        /* \"#utility.yul\":19869:19874   */\n      dup5\n        /* \"#utility.yul\":19866:19896   */\n      or\n        /* \"#utility.yul\":19856:19896   */\n      swap3\n      pop\n        /* \"#utility.yul\":19585:19902   */\n      pop\n      pop\n        /* \"#utility.yul\":19509:19902   */\n      swap4\n      swap3\n      pop\n      pop\n      pop\n      jump\t// out\n        /* \"#utility.yul\":19908:19968   */\n    tag_316:\n        /* \"#utility.yul\":19936:19939   */\n      0x00\n        /* \"#utility.yul\":19957:19962   */\n      dup2\n        /* \"#utility.yul\":19950:19962   */\n      swap1\n      pop\n        /* \"#utility.yul\":19908:19968   */\n      swap2\n      swap1\n      pop\n      jump\t// out\n        /* \"#utility.yul\":19974:20116   */\n    tag_317:\n        /* \"#utility.yul\":20024:20033   */\n      0x00\n        /* \"#utility.yul\":20057:20110   */\n      tag_530\n        /* \"#utility.yul\":20075:20109   */\n      tag_531\n        /* \"#utility.yul\":20084:20108   */\n      tag_532\n        /* \"#utility.yul\":20102:20107   */\n      dup5\n        /* \"#utility.yul\":20084:20108   */\n      tag_283\n      jump\t// in\n    tag_532:\n        /* \"#utility.yul\":20075:20109   */\n      tag_316\n      jump\t// in\n    tag_531:\n        /* \"#utility.yul\":20057:20110   */\n      tag_283\n      jump\t// in\n    tag_530:\n        /* \"#utility.yul\":20044:20110   */\n      swap1\n      pop\n        /* \"#utility.yul\":19974:20116   */\n      swap2\n      swap1\n      pop\n      jump\t// out\n        /* \"#utility.yul\":20122:20197   */\n    tag_318:\n        /* \"#utility.yul\":20165:20168   */\n      0x00\n        /* \"#utility.yul\":20186:20191   */\n      dup2\n        /* \"#utility.yul\":20179:20191   */\n      swap1\n      pop\n        /* \"#utility.yul\":20122:20197   */\n      swap2\n      swap1\n      pop\n      jump\t// out\n        /* \"#utility.yul\":20203:20472   */\n    tag_319:\n        /* \"#utility.yul\":20313:20352   */\n      tag_535\n        /* \"#utility.yul\":20344:20351   */\n      dup4\n        /* \"#utility.yul\":20313:20352   */\n      tag_317\n      jump\t// in\n    tag_535:\n        /* \"#utility.yul\":20374:20465   */\n      tag_536\n        /* \"#utility.yul\":20423:20464   */\n      tag_537\n        /* \"#utility.yul\":20447:20463   */\n      dup3\n        /* \"#utility.yul\":20423:20464   */\n      tag_318\n      jump\t// in\n    tag_537:\n        /* \"#utility.yul\":20415:20421   */\n      dup5\n        /* \"#utility.yul\":20408:20412   */\n      dup5\n        /* \"#utility.yul\":20402:20413   */\n      sload\n        /* \"#utility.yul\":20374:20465   */\n      tag_315\n      jump\t// in\n    tag_536:\n        /* \"#utility.yul\":20368:20372   */\n      dup3\n        /* \"#utility.yul\":20361:20466   */\n      sstore\n        /* \"#utility.yul\":20279:20472   */\n      pop\n        /* \"#utility.yul\":20203:20472   */\n      pop\n      pop\n      pop\n      jump\t// out\n        /* \"#utility.yul\":20478:20551   */\n    tag_320:\n        /* \"#utility.yul\":20523:20526   */\n      0x00\n        /* \"#utility.yul\":20478:20551   */\n      swap1\n      jump\t// out\n        /* \"#utility.yul\":20557:20746   */\n    tag_321:\n        /* \"#utility.yul\":20634:20666   */\n      tag_540\n      tag_320\n      jump\t// in\n    tag_540:\n        /* \"#utility.yul\":20675:20740   */\n      tag_541\n        /* \"#utility.yul\":20733:20739   */\n      dup2\n        /* \"#utility.yul\":20725:20731   */\n      dup5\n        /* \"#utility.yul\":20719:20723   */\n      dup5\n        /* \"#utility.yul\":20675:20740   */\n      tag_319\n      jump\t// in\n    tag_541:\n        /* \"#utility.yul\":20610:20746   */\n      pop\n        /* \"#utility.yul\":20557:20746   */\n      pop\n      pop\n      jump\t// out\n        /* \"#utility.yul\":20752:20938   */\n    tag_322:\n        /* \"#utility.yul\":20812:20932   */\n    tag_543:\n        /* \"#utility.yul\":20829:20832   */\n      dup2\n        /* \"#utility.yul\":20822:20827   */\n      dup2\n        /* \"#utility.yul\":20819:20833   */\n      lt\n        /* \"#utility.yul\":20812:20932   */\n      iszero\n      tag_545\n      jumpi\n        /* \"#utility.yul\":20883:20922   */\n      tag_546\n        /* \"#utility.yul\":20920:20921   */\n      0x00\n        /* \"#utility.yul\":20913:20918   */\n      dup3\n        /* \"#utility.yul\":20883:20922   */\n      tag_321\n      jump\t// in\n    tag_546:\n        /* \"#utility.yul\":20856:20857   */\n      0x01\n        /* \"#utility.yul\":20849:20854   */\n      dup2\n        /* \"#utility.yul\":20845:20858   */\n      add\n        /* \"#utility.yul\":20836:20858   */\n      swap1\n      pop\n        /* \"#utility.yul\":20812:20932   */\n      jump(tag_543)\n    tag_545:\n        /* \"#utility.yul\":20752:20938   */\n      pop\n      pop\n      jump\t// out\n        /* \"#utility.yul\":20944:21487   */\n    tag_323:\n        /* \"#utility.yul\":21045:21047   */\n      0x1f\n        /* \"#utility.yul\":21040:21043   */\n      dup3\n        /* \"#utility.yul\":21037:21048   */\n      gt\n        /* \"#utility.yul\":21034:21480   */\n      iszero\n      tag_548\n      jumpi\n        /* \"#utility.yul\":21079:21117   */\n      tag_549\n        /* \"#utility.yul\":21111:21116   */\n      dup2\n        /* \"#utility.yul\":21079:21117   */\n      tag_312\n      jump\t// in\n    tag_549:\n        /* \"#utility.yul\":21163:21192   */\n      tag_550\n        /* \"#utility.yul\":21181:21191   */\n      dup5\n        /* \"#utility.yul\":21163:21192   */\n      tag_313\n      jump\t// in\n    tag_550:\n        /* \"#utility.yul\":21153:21161   */\n      dup2\n        /* \"#utility.yul\":21149:21193   */\n      add\n        /* \"#utility.yul\":21346:21348   */\n      0x20\n        /* \"#utility.yul\":21334:21344   */\n      dup6\n        /* \"#utility.yul\":21331:21349   */\n      lt\n        /* \"#utility.yul\":21328:21377   */\n      iszero\n      tag_551\n      jumpi\n        /* \"#utility.yul\":21367:21375   */\n      dup2\n        /* \"#utility.yul\":21352:21375   */\n      swap1\n      pop\n        /* \"#utility.yul\":21328:21377   */\n    tag_551:\n        /* \"#utility.yul\":21390:21470   */\n      tag_552\n        /* \"#utility.yul\":21446:21468   */\n      tag_553\n        /* \"#utility.yul\":21464:21467   */\n      dup6\n        /* \"#utility.yul\":21446:21468   */\n      tag_313\n      jump\t// in\n    tag_553:\n        /* \"#utility.yul\":21436:21444   */\n      dup4\n        /* \"#utility.yul\":21432:21469   */\n      add\n        /* \"#utility.yul\":21419:21430   */\n      dup3\n        /* \"#utility.yul\":21390:21470   */\n      tag_322\n      jump\t// in\n    tag_552:\n        /* \"#utility.yul\":21049:21480   */\n      pop\n      pop\n        /* \"#utility.yul\":21034:21480   */\n    tag_548:\n        /* \"#utility.yul\":20944:21487   */\n      pop\n      pop\n      pop\n      jump\t// out\n        /* \"#utility.yul\":21493:21610   */\n    tag_324:\n        /* \"#utility.yul\":21547:21555   */\n      0x00\n        /* \"#utility.yul\":21597:21602   */\n      dup3\n        /* \"#utility.yul\":21591:21595   */\n      dup3\n        /* \"#utility.yul\":21587:21603   */\n      shr\n        /* \"#utility.yul\":21566:21603   */\n      swap1\n      pop\n        /* \"#utility.yul\":21493:21610   */\n      swap3\n      swap2\n      pop\n      pop\n      jump\t// out\n        /* \"#utility.yul\":21616:21785   */\n    tag_325:\n        /* \"#utility.yul\":21660:21666   */\n      0x00\n        /* \"#utility.yul\":21693:21744   */\n      tag_556\n        /* \"#utility.yul\":21741:21742   */\n      0x00\n        /* \"#utility.yul\":21737:21743   */\n      not\n        /* \"#utility.yul\":21729:21734   */\n      dup5\n        /* \"#utility.yul\":21726:21727   */\n      0x08\n        /* \"#utility.yul\":21722:21735   */\n      mul\n        /* \"#utility.yul\":21693:21744   */\n      tag_324\n      jump\t// in\n    tag_556:\n        /* \"#utility.yul\":21689:21745   */\n      not\n        /* \"#utility.yul\":21774:21778   */\n      dup1\n        /* \"#utility.yul\":21768:21772   */\n      dup4\n        /* \"#utility.yul\":21764:21779   */\n      and\n        /* \"#utility.yul\":21754:21779   */\n      swap2\n      pop\n        /* \"#utility.yul\":21667:21785   */\n      pop\n        /* \"#utility.yul\":21616:21785   */\n      swap3\n      swap2\n      pop\n      pop\n      jump\t// out\n        /* \"#utility.yul\":21790:22085   */\n    tag_326:\n        /* \"#utility.yul\":21866:21870   */\n      0x00\n        /* \"#utility.yul\":22012:22041   */\n      tag_558\n        /* \"#utility.yul\":22037:22040   */\n      dup4\n        /* \"#utility.yul\":22031:22035   */\n      dup4\n        /* \"#utility.yul\":22012:22041   */\n      tag_325\n      jump\t// in\n    tag_558:\n        /* \"#utility.yul\":22004:22041   */\n      swap2\n      pop\n        /* \"#utility.yul\":22074:22077   */\n      dup3\n        /* \"#utility.yul\":22071:22072   */\n      0x02\n        /* \"#utility.yul\":22067:22078   */\n      mul\n        /* \"#utility.yul\":22061:22065   */\n      dup3\n        /* \"#utility.yul\":22058:22079   */\n      or\n        /* \"#utility.yul\":22050:22079   */\n      swap1\n      pop\n        /* \"#utility.yul\":21790:22085   */\n      swap3\n      swap2\n      pop\n      pop\n      jump\t// out\n        /* \"#utility.yul\":22090:23485   */\n    tag_85:\n        /* \"#utility.yul\":22207:22244   */\n      tag_560\n        /* \"#utility.yul\":22240:22243   */\n      dup3\n        /* \"#utility.yul\":22207:22244   */\n      tag_287\n      jump\t// in\n    tag_560:\n        /* \"#utility.yul\":22309:22327   */\n      0xffffffffffffffff\n        /* \"#utility.yul\":22301:22307   */\n      dup2\n        /* \"#utility.yul\":22298:22328   */\n      gt\n        /* \"#utility.yul\":22295:22351   */\n      iszero\n      tag_561\n      jumpi\n        /* \"#utility.yul\":22331:22349   */\n      tag_562\n      tag_272\n      jump\t// in\n    tag_562:\n        /* \"#utility.yul\":22295:22351   */\n    tag_561:\n        /* \"#utility.yul\":22375:22413   */\n      tag_563\n        /* \"#utility.yul\":22407:22411   */\n      dup3\n        /* \"#utility.yul\":22401:22412   */\n      sload\n        /* \"#utility.yul\":22375:22413   */\n      tag_110\n      jump\t// in\n    tag_563:\n        /* \"#utility.yul\":22460:22527   */\n      tag_564\n        /* \"#utility.yul\":22520:22526   */\n      dup3\n        /* \"#utility.yul\":22512:22518   */\n      dup3\n        /* \"#utility.yul\":22506:22510   */\n      dup6\n        /* \"#utility.yul\":22460:22527   */\n      tag_323\n      jump\t// in\n    tag_564:\n        /* \"#utility.yul\":22554:22555   */\n      0x00\n        /* \"#utility.yul\":22578:22582   */\n      0x20\n        /* \"#utility.yul\":22565:22582   */\n      swap1\n      pop\n        /* \"#utility.yul\":22610:22612   */\n      0x1f\n        /* \"#utility.yul\":22602:22608   */\n      dup4\n        /* \"#utility.yul\":22599:22613   */\n      gt\n        /* \"#utility.yul\":22627:22628   */\n      0x01\n        /* \"#utility.yul\":22622:23240   */\n      dup2\n      eq\n      tag_566\n      jumpi\n        /* \"#utility.yul\":23284:23285   */\n      0x00\n        /* \"#utility.yul\":23301:23307   */\n      dup5\n        /* \"#utility.yul\":23298:23375   */\n      iszero\n      tag_567\n      jumpi\n        /* \"#utility.yul\":23350:23359   */\n      dup3\n        /* \"#utility.yul\":23345:23348   */\n      dup8\n        /* \"#utility.yul\":23341:23360   */\n      add\n        /* \"#utility.yul\":23335:23361   */\n      mload\n        /* \"#utility.yul\":23326:23361   */\n      swap1\n      pop\n        /* \"#utility.yul\":23298:23375   */\n    tag_567:\n        /* \"#utility.yul\":23401:23468   */\n      tag_568\n        /* \"#utility.yul\":23461:23467   */\n      dup6\n        /* \"#utility.yul\":23454:23459   */\n      dup3\n        /* \"#utility.yul\":23401:23468   */\n      tag_326\n      jump\t// in\n    tag_568:\n        /* \"#utility.yul\":23395:23399   */\n      dup7\n        /* \"#utility.yul\":23388:23469   */\n      sstore\n        /* \"#utility.yul\":23257:23479   */\n      pop\n        /* \"#utility.yul\":22592:23479   */\n      jump(tag_565)\n        /* \"#utility.yul\":22622:23240   */\n    tag_566:\n        /* \"#utility.yul\":22674:22678   */\n      0x1f\n        /* \"#utility.yul\":22670:22679   */\n      not\n        /* \"#utility.yul\":22662:22668   */\n      dup5\n        /* \"#utility.yul\":22658:22680   */\n      and\n        /* \"#utility.yul\":22708:22745   */\n      tag_569\n        /* \"#utility.yul\":22740:22744   */\n      dup7\n        /* \"#utility.yul\":22708:22745   */\n      tag_312\n      jump\t// in\n    tag_569:\n        /* \"#utility.yul\":22767:22768   */\n      0x00\n        /* \"#utility.yul\":22781:22989   */\n    tag_570:\n        /* \"#utility.yul\":22795:22802   */\n      dup3\n        /* \"#utility.yul\":22792:22793   */\n      dup2\n        /* \"#utility.yul\":22789:22803   */\n      lt\n        /* \"#utility.yul\":22781:22989   */\n      iszero\n      tag_572\n      jumpi\n        /* \"#utility.yul\":22874:22883   */\n      dup5\n        /* \"#utility.yul\":22869:22872   */\n      dup10\n        /* \"#utility.yul\":22865:22884   */\n      add\n        /* \"#utility.yul\":22859:22885   */\n      mload\n        /* \"#utility.yul\":22851:22857   */\n      dup3\n        /* \"#utility.yul\":22844:22886   */\n      sstore\n        /* \"#utility.yul\":22925:22926   */\n      0x01\n        /* \"#utility.yul\":22917:22923   */\n      dup3\n        /* \"#utility.yul\":22913:22927   */\n      add\n        /* \"#utility.yul\":22903:22927   */\n      swap2\n      pop\n        /* \"#utility.yul\":22972:22974   */\n      0x20\n        /* \"#utility.yul\":22961:22970   */\n      dup6\n        /* \"#utility.yul\":22957:22975   */\n      add\n        /* \"#utility.yul\":22944:22975   */\n      swap5\n      pop\n        /* \"#utility.yul\":22818:22822   */\n      0x20\n        /* \"#utility.yul\":22815:22816   */\n      dup2\n        /* \"#utility.yul\":22811:22823   */\n      add\n        /* \"#utility.yul\":22806:22823   */\n      swap1\n      pop\n        /* \"#utility.yul\":22781:22989   */\n      jump(tag_570)\n    tag_572:\n        /* \"#utility.yul\":23017:23023   */\n      dup7\n        /* \"#utility.yul\":23008:23015   */\n      dup4\n        /* \"#utility.yul\":23005:23024   */\n      lt\n        /* \"#utility.yul\":23002:23181   */\n      iszero\n      tag_573\n      jumpi\n        /* \"#utility.yul\":23075:23084   */\n      dup5\n        /* \"#utility.yul\":23070:23073   */\n      dup10\n        /* \"#utility.yul\":23066:23085   */\n      add\n        /* \"#utility.yul\":23060:23086   */\n      mload\n        /* \"#utility.yul\":23118:23166   */\n      tag_574\n        /* \"#utility.yul\":23160:23164   */\n      0x1f\n        /* \"#utility.yul\":23152:23158   */\n      dup10\n        /* \"#utility.yul\":23148:23165   */\n      and\n        /* \"#utility.yul\":23137:23146   */\n      dup3\n        /* \"#utility.yul\":23118:23166   */\n      tag_325\n      jump\t// in\n    tag_574:\n        /* \"#utility.yul\":23110:23116   */\n      dup4\n        /* \"#utility.yul\":23103:23167   */\n      sstore\n        /* \"#utility.yul\":23025:23181   */\n      pop\n        /* \"#utility.yul\":23002:23181   */\n    tag_573:\n        /* \"#utility.yul\":23227:23228   */\n      0x01\n        /* \"#utility.yul\":23223:23224   */\n      0x02\n        /* \"#utility.yul\":23215:23221   */\n      dup9\n        /* \"#utility.yul\":23211:23225   */\n      mul\n        /* \"#utility.yul\":23207:23229   */\n      add\n        /* \"#utility.yul\":23201:23205   */\n      dup9\n        /* \"#utility.yul\":23194:23230   */\n      sstore\n        /* \"#utility.yul\":22629:23240   */\n      pop\n      pop\n      pop\n        /* \"#utility.yul\":22592:23479   */\n    tag_565:\n      pop\n        /* \"#utility.yul\":22182:23485   */\n      pop\n      pop\n      pop\n        /* \"#utility.yul\":22090:23485   */\n      pop\n      pop\n      jump\t// out\n        /* \"#utility.yul\":23491:23640   */\n    tag_327:\n        /* \"#utility.yul\":23540:23546   */\n      0x00\n        /* \"#utility.yul\":23574:23579   */\n      dup2\n        /* \"#utility.yul\":23568:23580   */\n      sload\n        /* \"#utility.yul\":23558:23580   */\n      swap1\n      pop\n        /* \"#utility.yul\":23600:23633   */\n      tag_576\n        /* \"#utility.yul\":23626:23632   */\n      dup2\n        /* \"#utility.yul\":23600:23633   */\n      tag_110\n      jump\t// in\n    tag_576:\n        /* \"#utility.yul\":23590:23633   */\n      swap1\n      pop\n        /* \"#utility.yul\":23491:23640   */\n      swap2\n      swap1\n      pop\n      jump\t// out\n        /* \"#utility.yul\":23646:25097   */\n    tag_89:\n        /* \"#utility.yul\":23757:23760   */\n      dup2\n        /* \"#utility.yul\":23751:23755   */\n      dup2\n        /* \"#utility.yul\":23748:23761   */\n      sub\n        /* \"#utility.yul\":23745:23771   */\n      tag_578\n      jumpi\n        /* \"#utility.yul\":23764:23769   */\n      pop\n      pop\n      jump(tag_577)\n        /* \"#utility.yul\":23745:23771   */\n    tag_578:\n        /* \"#utility.yul\":23795:23829   */\n      tag_579\n        /* \"#utility.yul\":23825:23828   */\n      dup3\n        /* \"#utility.yul\":23795:23829   */\n      tag_327\n      jump\t// in\n    tag_579:\n        /* \"#utility.yul\":23894:23912   */\n      0xffffffffffffffff\n        /* \"#utility.yul\":23886:23892   */\n      dup2\n        /* \"#utility.yul\":23883:23913   */\n      gt\n        /* \"#utility.yul\":23880:23936   */\n      iszero\n      tag_580\n      jumpi\n        /* \"#utility.yul\":23916:23934   */\n      tag_581\n      tag_272\n      jump\t// in\n    tag_581:\n        /* \"#utility.yul\":23880:23936   */\n    tag_580:\n        /* \"#utility.yul\":23960:23998   */\n      tag_582\n        /* \"#utility.yul\":23992:23996   */\n      dup3\n        /* \"#utility.yul\":23986:23997   */\n      sload\n        /* \"#utility.yul\":23960:23998   */\n      tag_110\n      jump\t// in\n    tag_582:\n        /* \"#utility.yul\":24045:24112   */\n      tag_583\n        /* \"#utility.yul\":24105:24111   */\n      dup3\n        /* \"#utility.yul\":24097:24103   */\n      dup3\n        /* \"#utility.yul\":24091:24095   */\n      dup6\n        /* \"#utility.yul\":24045:24112   */\n      tag_323\n      jump\t// in\n    tag_583:\n        /* \"#utility.yul\":24139:24140   */\n      0x00\n        /* \"#utility.yul\":24168:24170   */\n      0x1f\n        /* \"#utility.yul\":24160:24166   */\n      dup4\n        /* \"#utility.yul\":24157:24171   */\n      gt\n        /* \"#utility.yul\":24185:24186   */\n      0x01\n        /* \"#utility.yul\":24180:24852   */\n      dup2\n      eq\n      tag_585\n      jumpi\n        /* \"#utility.yul\":24896:24897   */\n      0x00\n        /* \"#utility.yul\":24913:24919   */\n      dup5\n        /* \"#utility.yul\":24910:24987   */\n      iszero\n      tag_586\n      jumpi\n        /* \"#utility.yul\":24962:24971   */\n      dup3\n        /* \"#utility.yul\":24957:24960   */\n      dup8\n        /* \"#utility.yul\":24953:24972   */\n      add\n        /* \"#utility.yul\":24947:24973   */\n      sload\n        /* \"#utility.yul\":24938:24973   */\n      swap1\n      pop\n        /* \"#utility.yul\":24910:24987   */\n    tag_586:\n        /* \"#utility.yul\":25013:25080   */\n      tag_587\n        /* \"#utility.yul\":25073:25079   */\n      dup6\n        /* \"#utility.yul\":25066:25071   */\n      dup3\n        /* \"#utility.yul\":25013:25080   */\n      tag_326\n      jump\t// in\n    tag_587:\n        /* \"#utility.yul\":25007:25011   */\n      dup7\n        /* \"#utility.yul\":25000:25081   */\n      sstore\n        /* \"#utility.yul\":24869:25091   */\n      pop\n        /* \"#utility.yul\":24150:25091   */\n      jump(tag_584)\n        /* \"#utility.yul\":24180:24852   */\n    tag_585:\n        /* \"#utility.yul\":24232:24236   */\n      0x1f\n        /* \"#utility.yul\":24228:24237   */\n      not\n        /* \"#utility.yul\":24220:24226   */\n      dup5\n        /* \"#utility.yul\":24216:24238   */\n      and\n        /* \"#utility.yul\":24258:24294   */\n      tag_588\n        /* \"#utility.yul\":24290:24293   */\n      dup8\n        /* \"#utility.yul\":24258:24294   */\n      tag_312\n      jump\t// in\n    tag_588:\n        /* \"#utility.yul\":24251:24294   */\n      swap7\n      pop\n        /* \"#utility.yul\":24321:24358   */\n      tag_589\n        /* \"#utility.yul\":24353:24357   */\n      dup7\n        /* \"#utility.yul\":24321:24358   */\n      tag_312\n      jump\t// in\n    tag_589:\n        /* \"#utility.yul\":24380:24381   */\n      0x00\n        /* \"#utility.yul\":24394:24601   */\n    tag_590:\n        /* \"#utility.yul\":24408:24415   */\n      dup3\n        /* \"#utility.yul\":24405:24406   */\n      dup2\n        /* \"#utility.yul\":24402:24416   */\n      lt\n        /* \"#utility.yul\":24394:24601   */\n      iszero\n      tag_592\n      jumpi\n        /* \"#utility.yul\":24487:24496   */\n      dup5\n        /* \"#utility.yul\":24482:24485   */\n      dup10\n        /* \"#utility.yul\":24478:24497   */\n      add\n        /* \"#utility.yul\":24472:24498   */\n      sload\n        /* \"#utility.yul\":24464:24470   */\n      dup3\n        /* \"#utility.yul\":24457:24499   */\n      sstore\n        /* \"#utility.yul\":24538:24539   */\n      0x01\n        /* \"#utility.yul\":24530:24536   */\n      dup3\n        /* \"#utility.yul\":24526:24540   */\n      add\n        /* \"#utility.yul\":24516:24540   */\n      swap2\n      pop\n        /* \"#utility.yul\":24585:24586   */\n      0x01\n        /* \"#utility.yul\":24574:24583   */\n      dup6\n        /* \"#utility.yul\":24570:24587   */\n      add\n        /* \"#utility.yul\":24557:24587   */\n      swap5\n      pop\n        /* \"#utility.yul\":24431:24435   */\n      0x20\n        /* \"#utility.yul\":24428:24429   */\n      dup2\n        /* \"#utility.yul\":24424:24436   */\n      add\n        /* \"#utility.yul\":24419:24436   */\n      swap1\n      pop\n        /* \"#utility.yul\":24394:24601   */\n      jump(tag_590)\n    tag_592:\n        /* \"#utility.yul\":24629:24635   */\n      dup7\n        /* \"#utility.yul\":24620:24627   */\n      dup4\n        /* \"#utility.yul\":24617:24636   */\n      lt\n        /* \"#utility.yul\":24614:24793   */\n      iszero\n      tag_593\n      jumpi\n        /* \"#utility.yul\":24687:24696   */\n      dup5\n        /* \"#utility.yul\":24682:24685   */\n      dup10\n        /* \"#utility.yul\":24678:24697   */\n      add\n        /* \"#utility.yul\":24672:24698   */\n      sload\n        /* \"#utility.yul\":24730:24778   */\n      tag_594\n        /* \"#utility.yul\":24772:24776   */\n      0x1f\n        /* \"#utility.yul\":24764:24770   */\n      dup10\n        /* \"#utility.yul\":24760:24777   */\n      and\n        /* \"#utility.yul\":24749:24758   */\n      dup3\n        /* \"#utility.yul\":24730:24778   */\n      tag_325\n      jump\t// in\n    tag_594:\n        /* \"#utility.yul\":24722:24728   */\n      dup4\n        /* \"#utility.yul\":24715:24779   */\n      sstore\n        /* \"#utility.yul\":24637:24793   */\n      pop\n        /* \"#utility.yul\":24614:24793   */\n    tag_593:\n        /* \"#utility.yul\":24839:24840   */\n      0x01\n        /* \"#utility.yul\":24835:24836   */\n      0x02\n        /* \"#utility.yul\":24827:24833   */\n      dup9\n        /* \"#utility.yul\":24823:24837   */\n      mul\n        /* \"#utility.yul\":24819:24841   */\n      add\n        /* \"#utility.yul\":24813:24817   */\n      dup9\n        /* \"#utility.yul\":24806:24842   */\n      sstore\n        /* \"#utility.yul\":24187:24852   */\n      pop\n      pop\n      pop\n        /* \"#utility.yul\":24150:25091   */\n    tag_584:\n      pop\n        /* \"#utility.yul\":23735:25097   */\n      pop\n      pop\n      pop\n        /* \"#utility.yul\":23646:25097   */\n      pop\n      pop\n    tag_577:\n      jump\t// out\n        /* \"#utility.yul\":25103:25283   */\n    tag_328:\n        /* \"#utility.yul\":25151:25228   */\n      0x4e487b7100000000000000000000000000000000000000000000000000000000\n        /* \"#utility.yul\":25148:25149   */\n      0x00\n        /* \"#utility.yul\":25141:25229   */\n      mstore\n        /* \"#utility.yul\":25248:25252   */\n      0x11\n        /* \"#utility.yul\":25245:25246   */\n      0x04\n        /* \"#utility.yul\":25238:25253   */\n      mstore\n        /* \"#utility.yul\":25272:25276   */\n      0x24\n        /* \"#utility.yul\":25269:25270   */\n      0x00\n        /* \"#utility.yul\":25262:25277   */\n      revert\n        /* \"#utility.yul\":25289:25480   */\n    tag_92:\n        /* \"#utility.yul\":25329:25332   */\n      0x00\n        /* \"#utility.yul\":25348:25368   */\n      tag_597\n        /* \"#utility.yul\":25366:25367   */\n      dup3\n        /* \"#utility.yul\":25348:25368   */\n      tag_283\n      jump\t// in\n    tag_597:\n        /* \"#utility.yul\":25343:25368   */\n      swap2\n      pop\n        /* \"#utility.yul\":25382:25402   */\n      tag_598\n        /* \"#utility.yul\":25400:25401   */\n      dup4\n        /* \"#utility.yul\":25382:25402   */\n      tag_283\n      jump\t// in\n    tag_598:\n        /* \"#utility.yul\":25377:25402   */\n      swap3\n      pop\n        /* \"#utility.yul\":25425:25426   */\n      dup3\n        /* \"#utility.yul\":25422:25423   */\n      dup3\n        /* \"#utility.yul\":25418:25427   */\n      add\n        /* \"#utility.yul\":25411:25427   */\n      swap1\n      pop\n        /* \"#utility.yul\":25446:25449   */\n      dup1\n        /* \"#utility.yul\":25443:25444   */\n      dup3\n        /* \"#utility.yul\":25440:25450   */\n      gt\n        /* \"#utility.yul\":25437:25473   */\n      iszero\n      tag_599\n      jumpi\n        /* \"#utility.yul\":25453:25471   */\n      tag_600\n      tag_328\n      jump\t// in\n    tag_600:\n        /* \"#utility.yul\":25437:25473   */\n    tag_599:\n        /* \"#utility.yul\":25289:25480   */\n      swap3\n      swap2\n      pop\n      pop\n      jump\t// out\n        /* \"#utility.yul\":25486:25656   */\n    tag_329:\n        /* \"#utility.yul\":25626:25648   */\n      0x456c656374696f6e204e6f742053746172746564000000000000000000000000\n        /* \"#utility.yul\":25622:25623   */\n      0x00\n        /* \"#utility.yul\":25614:25620   */\n      dup3\n        /* \"#utility.yul\":25610:25624   */\n      add\n        /* \"#utility.yul\":25603:25649   */\n      mstore\n        /* \"#utility.yul\":25486:25656   */\n      pop\n      jump\t// out\n        /* \"#utility.yul\":25662:26028   */\n    tag_330:\n        /* \"#utility.yul\":25804:25807   */\n      0x00\n        /* \"#utility.yul\":25825:25892   */\n      tag_603\n        /* \"#utility.yul\":25889:25891   */\n      0x14\n        /* \"#utility.yul\":25884:25887   */\n      dup4\n        /* \"#utility.yul\":25825:25892   */\n      tag_288\n      jump\t// in\n    tag_603:\n        /* \"#utility.yul\":25818:25892   */\n      swap2\n      pop\n        /* \"#utility.yul\":25901:25994   */\n      tag_604\n        /* \"#utility.yul\":25990:25993   */\n      dup3\n        /* \"#utility.yul\":25901:25994   */\n      tag_329\n      jump\t// in\n    tag_604:\n        /* \"#utility.yul\":26019:26021   */\n      0x20\n        /* \"#utility.yul\":26014:26017   */\n      dup3\n        /* \"#utility.yul\":26010:26022   */\n      add\n        /* \"#utility.yul\":26003:26022   */\n      swap1\n      pop\n        /* \"#utility.yul\":25662:26028   */\n      swap2\n      swap1\n      pop\n      jump\t// out\n        /* \"#utility.yul\":26034:26453   */\n    tag_100:\n        /* \"#utility.yul\":26200:26204   */\n      0x00\n        /* \"#utility.yul\":26238:26240   */\n      0x20\n        /* \"#utility.yul\":26227:26236   */\n      dup3\n        /* \"#utility.yul\":26223:26241   */\n      add\n        /* \"#utility.yul\":26215:26241   */\n      swap1\n      pop\n        /* \"#utility.yul\":26287:26296   */\n      dup2\n        /* \"#utility.yul\":26281:26285   */\n      dup2\n        /* \"#utility.yul\":26277:26297   */\n      sub\n        /* \"#utility.yul\":26273:26274   */\n      0x00\n        /* \"#utility.yul\":26262:26271   */\n      dup4\n        /* \"#utility.yul\":26258:26275   */\n      add\n        /* \"#utility.yul\":26251:26298   */\n      mstore\n        /* \"#utility.yul\":26315:26446   */\n      tag_606\n        /* \"#utility.yul\":26441:26445   */\n      dup2\n        /* \"#utility.yul\":26315:26446   */\n      tag_330\n      jump\t// in\n    tag_606:\n        /* \"#utility.yul\":26307:26446   */\n      swap1\n      pop\n        /* \"#utility.yul\":26034:26453   */\n      swap2\n      swap1\n      pop\n      jump\t// out\n        /* \"#utility.yul\":26459:26639   */\n    tag_104:\n        /* \"#utility.yul\":26507:26584   */\n      0x4e487b7100000000000000000000000000000000000000000000000000000000\n        /* \"#utility.yul\":26504:26505   */\n      0x00\n        /* \"#utility.yul\":26497:26585   */\n      mstore\n        /* \"#utility.yul\":26604:26608   */\n      0x32\n        /* \"#utility.yul\":26601:26602   */\n      0x04\n        /* \"#utility.yul\":26594:26609   */\n      mstore\n        /* \"#utility.yul\":26628:26632   */\n      0x24\n        /* \"#utility.yul\":26625:26626   */\n      0x00\n        /* \"#utility.yul\":26618:26633   */\n      revert\n        /* \"#utility.yul\":26645:26793   */\n    tag_331:\n        /* \"#utility.yul\":26747:26758   */\n      0x00\n        /* \"#utility.yul\":26784:26787   */\n      dup2\n        /* \"#utility.yul\":26769:26787   */\n      swap1\n      pop\n        /* \"#utility.yul\":26645:26793   */\n      swap3\n      swap2\n      pop\n      pop\n      jump\t// out\n        /* \"#utility.yul\":26799:27189   */\n    tag_332:\n        /* \"#utility.yul\":26905:26908   */\n      0x00\n        /* \"#utility.yul\":26933:26972   */\n      tag_610\n        /* \"#utility.yul\":26966:26971   */\n      dup3\n        /* \"#utility.yul\":26933:26972   */\n      tag_287\n      jump\t// in\n    tag_610:\n        /* \"#utility.yul\":26988:27077   */\n      tag_611\n        /* \"#utility.yul\":27070:27076   */\n      dup2\n        /* \"#utility.yul\":27065:27068   */\n      dup6\n        /* \"#utility.yul\":26988:27077   */\n      tag_331\n      jump\t// in\n    tag_611:\n        /* \"#utility.yul\":26981:27077   */\n      swap4\n      pop\n        /* \"#utility.yul\":27086:27151   */\n      tag_612\n        /* \"#utility.yul\":27144:27150   */\n      dup2\n        /* \"#utility.yul\":27139:27142   */\n      dup6\n        /* \"#utility.yul\":27132:27136   */\n      0x20\n        /* \"#utility.yul\":27125:27130   */\n      dup7\n        /* \"#utility.yul\":27121:27137   */\n      add\n        /* \"#utility.yul\":27086:27151   */\n      tag_289\n      jump\t// in\n    tag_612:\n        /* \"#utility.yul\":27176:27182   */\n      dup1\n        /* \"#utility.yul\":27171:27174   */\n      dup5\n        /* \"#utility.yul\":27167:27183   */\n      add\n        /* \"#utility.yul\":27160:27183   */\n      swap2\n      pop\n        /* \"#utility.yul\":26909:27189   */\n      pop\n        /* \"#utility.yul\":26799:27189   */\n      swap3\n      swap2\n      pop\n      pop\n      jump\t// out\n        /* \"#utility.yul\":27195:27470   */\n    tag_125:\n        /* \"#utility.yul\":27327:27330   */\n      0x00\n        /* \"#utility.yul\":27349:27444   */\n      tag_614\n        /* \"#utility.yul\":27440:27443   */\n      dup3\n        /* \"#utility.yul\":27431:27437   */\n      dup5\n        /* \"#utility.yul\":27349:27444   */\n      tag_332\n      jump\t// in\n    tag_614:\n        /* \"#utility.yul\":27342:27444   */\n      swap2\n      pop\n        /* \"#utility.yul\":27461:27464   */\n      dup2\n        /* \"#utility.yul\":27454:27464   */\n      swap1\n      pop\n        /* \"#utility.yul\":27195:27470   */\n      swap3\n      swap2\n      pop\n      pop\n      jump\t// out\n        /* \"#utility.yul\":27476:27706   */\n    tag_333:\n        /* \"#utility.yul\":27616:27650   */\n      0x566f746572207769746820746869732069642070726f6f6620616c7265616479\n        /* \"#utility.yul\":27612:27613   */\n      0x00\n        /* \"#utility.yul\":27604:27610   */\n      dup3\n        /* \"#utility.yul\":27600:27614   */\n      add\n        /* \"#utility.yul\":27593:27651   */\n      mstore\n        /* \"#utility.yul\":27685:27698   */\n      0x2072656769737465726564000000000000000000000000000000000000000000\n        /* \"#utility.yul\":27680:27682   */\n      0x20\n        /* \"#utility.yul\":27672:27678   */\n      dup3\n        /* \"#utility.yul\":27668:27683   */\n      add\n        /* \"#utility.yul\":27661:27699   */\n      mstore\n        /* \"#utility.yul\":27476:27706   */\n      pop\n      jump\t// out\n        /* \"#utility.yul\":27712:28078   */\n    tag_334:\n        /* \"#utility.yul\":27854:27857   */\n      0x00\n        /* \"#utility.yul\":27875:27942   */\n      tag_617\n        /* \"#utility.yul\":27939:27941   */\n      0x2b\n        /* \"#utility.yul\":27934:27937   */\n      dup4\n        /* \"#utility.yul\":27875:27942   */\n      tag_288\n      jump\t// in\n    tag_617:\n        /* \"#utility.yul\":27868:27942   */\n      swap2\n      pop\n        /* \"#utility.yul\":27951:28044   */\n      tag_618\n        /* \"#utility.yul\":28040:28043   */\n      dup3\n        /* \"#utility.yul\":27951:28044   */\n      tag_333\n      jump\t// in\n    tag_618:\n        /* \"#utility.yul\":28069:28071   */\n      0x40\n        /* \"#utility.yul\":28064:28067   */\n      dup3\n        /* \"#utility.yul\":28060:28072   */\n      add\n        /* \"#utility.yul\":28053:28072   */\n      swap1\n      pop\n        /* \"#utility.yul\":27712:28078   */\n      swap2\n      swap1\n      pop\n      jump\t// out\n        /* \"#utility.yul\":28084:28503   */\n    tag_128:\n        /* \"#utility.yul\":28250:28254   */\n      0x00\n        /* \"#utility.yul\":28288:28290   */\n      0x20\n        /* \"#utility.yul\":28277:28286   */\n      dup3\n        /* \"#utility.yul\":28273:28291   */\n      add\n        /* \"#utility.yul\":28265:28291   */\n      swap1\n      pop\n        /* \"#utility.yul\":28337:28346   */\n      dup2\n        /* \"#utility.yul\":28331:28335   */\n      dup2\n        /* \"#utility.yul\":28327:28347   */\n      sub\n        /* \"#utility.yul\":28323:28324   */\n      0x00\n        /* \"#utility.yul\":28312:28321   */\n      dup4\n        /* \"#utility.yul\":28308:28325   */\n      add\n        /* \"#utility.yul\":28301:28348   */\n      mstore\n        /* \"#utility.yul\":28365:28496   */\n      tag_620\n        /* \"#utility.yul\":28491:28495   */\n      dup2\n        /* \"#utility.yul\":28365:28496   */\n      tag_334\n      jump\t// in\n    tag_620:\n        /* \"#utility.yul\":28357:28496   */\n      swap1\n      pop\n        /* \"#utility.yul\":28084:28503   */\n      swap2\n      swap1\n      pop\n      jump\t// out\n        /* \"#utility.yul\":28509:28683   */\n    tag_335:\n        /* \"#utility.yul\":28649:28675   */\n      0x566f74657220416c726561647920526567697374657265640000000000000000\n        /* \"#utility.yul\":28645:28646   */\n      0x00\n        /* \"#utility.yul\":28637:28643   */\n      dup3\n        /* \"#utility.yul\":28633:28647   */\n      add\n        /* \"#utility.yul\":28626:28676   */\n      mstore\n        /* \"#utility.yul\":28509:28683   */\n      pop\n      jump\t// out\n        /* \"#utility.yul\":28689:29055   */\n    tag_336:\n        /* \"#utility.yul\":28831:28834   */\n      0x00\n        /* \"#utility.yul\":28852:28919   */\n      tag_623\n        /* \"#utility.yul\":28916:28918   */\n      0x18\n        /* \"#utility.yul\":28911:28914   */\n      dup4\n        /* \"#utility.yul\":28852:28919   */\n      tag_288\n      jump\t// in\n    tag_623:\n        /* \"#utility.yul\":28845:28919   */\n      swap2\n      pop\n        /* \"#utility.yul\":28928:29021   */\n      tag_624\n        /* \"#utility.yul\":29017:29020   */\n      dup3\n        /* \"#utility.yul\":28928:29021   */\n      tag_335\n      jump\t// in\n    tag_624:\n        /* \"#utility.yul\":29046:29048   */\n      0x20\n        /* \"#utility.yul\":29041:29044   */\n      dup3\n        /* \"#utility.yul\":29037:29049   */\n      add\n        /* \"#utility.yul\":29030:29049   */\n      swap1\n      pop\n        /* \"#utility.yul\":28689:29055   */\n      swap2\n      swap1\n      pop\n      jump\t// out\n        /* \"#utility.yul\":29061:29480   */\n    tag_132:\n        /* \"#utility.yul\":29227:29231   */\n      0x00\n        /* \"#utility.yul\":29265:29267   */\n      0x20\n        /* \"#utility.yul\":29254:29263   */\n      dup3\n        /* \"#utility.yul\":29250:29268   */\n      add\n        /* \"#utility.yul\":29242:29268   */\n      swap1\n      pop\n        /* \"#utility.yul\":29314:29323   */\n      dup2\n        /* \"#utility.yul\":29308:29312   */\n      dup2\n        /* \"#utility.yul\":29304:29324   */\n      sub\n        /* \"#utility.yul\":29300:29301   */\n      0x00\n        /* \"#utility.yul\":29289:29298   */\n      dup4\n        /* \"#utility.yul\":29285:29302   */\n      add\n        /* \"#utility.yul\":29278:29325   */\n      mstore\n        /* \"#utility.yul\":29342:29473   */\n      tag_626\n        /* \"#utility.yul\":29468:29472   */\n      dup2\n        /* \"#utility.yul\":29342:29473   */\n      tag_336\n      jump\t// in\n    tag_626:\n        /* \"#utility.yul\":29334:29473   */\n      swap1\n      pop\n        /* \"#utility.yul\":29061:29480   */\n      swap2\n      swap1\n      pop\n      jump\t// out\n        /* \"#utility.yul\":29486:29709   */\n    tag_337:\n        /* \"#utility.yul\":29626:29660   */\n      0x43616e6e6f742061646420566f74657220617320656c656374696f6e20737461\n        /* \"#utility.yul\":29622:29623   */\n      0x00\n        /* \"#utility.yul\":29614:29620   */\n      dup3\n        /* \"#utility.yul\":29610:29624   */\n      add\n        /* \"#utility.yul\":29603:29661   */\n      mstore\n        /* \"#utility.yul\":29695:29701   */\n      0x7274656400000000000000000000000000000000000000000000000000000000\n        /* \"#utility.yul\":29690:29692   */\n      0x20\n        /* \"#utility.yul\":29682:29688   */\n      dup3\n        /* \"#utility.yul\":29678:29693   */\n      add\n        /* \"#utility.yul\":29671:29702   */\n      mstore\n        /* \"#utility.yul\":29486:29709   */\n      pop\n      jump\t// out\n        /* \"#utility.yul\":29715:30081   */\n    tag_338:\n        /* \"#utility.yul\":29857:29860   */\n      0x00\n        /* \"#utility.yul\":29878:29945   */\n      tag_629\n        /* \"#utility.yul\":29942:29944   */\n      0x24\n        /* \"#utility.yul\":29937:29940   */\n      dup4\n        /* \"#utility.yul\":29878:29945   */\n      tag_288\n      jump\t// in\n    tag_629:\n        /* \"#utility.yul\":29871:29945   */\n      swap2\n      pop\n        /* \"#utility.yul\":29954:30047   */\n      tag_630\n        /* \"#utility.yul\":30043:30046   */\n      dup3\n        /* \"#utility.yul\":29954:30047   */\n      tag_337\n      jump\t// in\n    tag_630:\n        /* \"#utility.yul\":30072:30074   */\n      0x40\n        /* \"#utility.yul\":30067:30070   */\n      dup3\n        /* \"#utility.yul\":30063:30075   */\n      add\n        /* \"#utility.yul\":30056:30075   */\n      swap1\n      pop\n        /* \"#utility.yul\":29715:30081   */\n      swap2\n      swap1\n      pop\n      jump\t// out\n        /* \"#utility.yul\":30087:30506   */\n    tag_135:\n        /* \"#utility.yul\":30253:30257   */\n      0x00\n        /* \"#utility.yul\":30291:30293   */\n      0x20\n        /* \"#utility.yul\":30280:30289   */\n      dup3\n        /* \"#utility.yul\":30276:30294   */\n      add\n        /* \"#utility.yul\":30268:30294   */\n      swap1\n      pop\n        /* \"#utility.yul\":30340:30349   */\n      dup2\n        /* \"#utility.yul\":30334:30338   */\n      dup2\n        /* \"#utility.yul\":30330:30350   */\n      sub\n        /* \"#utility.yul\":30326:30327   */\n      0x00\n        /* \"#utility.yul\":30315:30324   */\n      dup4\n        /* \"#utility.yul\":30311:30328   */\n      add\n        /* \"#utility.yul\":30304:30351   */\n      mstore\n        /* \"#utility.yul\":30368:30499   */\n      tag_632\n        /* \"#utility.yul\":30494:30498   */\n      dup2\n        /* \"#utility.yul\":30368:30499   */\n      tag_338\n      jump\t// in\n    tag_632:\n        /* \"#utility.yul\":30360:30499   */\n      swap1\n      pop\n        /* \"#utility.yul\":30087:30506   */\n      swap2\n      swap1\n      pop\n      jump\t// out\n        /* \"#utility.yul\":30512:30688   */\n    tag_339:\n        /* \"#utility.yul\":30652:30680   */\n      0x456c656374696f6e20686173206e6f7420656e64656420796574000000000000\n        /* \"#utility.yul\":30648:30649   */\n      0x00\n        /* \"#utility.yul\":30640:30646   */\n      dup3\n        /* \"#utility.yul\":30636:30650   */\n      add\n        /* \"#utility.yul\":30629:30681   */\n      mstore\n        /* \"#utility.yul\":30512:30688   */\n      pop\n      jump\t// out\n        /* \"#utility.yul\":30694:31060   */\n    tag_340:\n        /* \"#utility.yul\":30836:30839   */\n      0x00\n        /* \"#utility.yul\":30857:30924   */\n      tag_635\n        /* \"#utility.yul\":30921:30923   */\n      0x1a\n        /* \"#utility.yul\":30916:30919   */\n      dup4\n        /* \"#utility.yul\":30857:30924   */\n      tag_288\n      jump\t// in\n    tag_635:\n        /* \"#utility.yul\":30850:30924   */\n      swap2\n      pop\n        /* \"#utility.yul\":30933:31026   */\n      tag_636\n        /* \"#utility.yul\":31022:31025   */\n      dup3\n        /* \"#utility.yul\":30933:31026   */\n      tag_339\n      jump\t// in\n    tag_636:\n        /* \"#utility.yul\":31051:31053   */\n      0x20\n        /* \"#utility.yul\":31046:31049   */\n      dup3\n        /* \"#utility.yul\":31042:31054   */\n      add\n        /* \"#utility.yul\":31035:31054   */\n      swap1\n      pop\n        /* \"#utility.yul\":30694:31060   */\n      swap2\n      swap1\n      pop\n      jump\t// out\n        /* \"#utility.yul\":31066:31485   */\n    tag_147:\n        /* \"#utility.yul\":31232:31236   */\n      0x00\n        /* \"#utility.yul\":31270:31272   */\n      0x20\n        /* \"#utility.yul\":31259:31268   */\n      dup3\n        /* \"#utility.yul\":31255:31273   */\n      add\n        /* \"#utility.yul\":31247:31273   */\n      swap1\n      pop\n        /* \"#utility.yul\":31319:31328   */\n      dup2\n        /* \"#utility.yul\":31313:31317   */\n      dup2\n        /* \"#utility.yul\":31309:31329   */\n      sub\n        /* \"#utility.yul\":31305:31306   */\n      0x00\n        /* \"#utility.yul\":31294:31303   */\n      dup4\n        /* \"#utility.yul\":31290:31307   */\n      add\n        /* \"#utility.yul\":31283:31330   */\n      mstore\n        /* \"#utility.yul\":31347:31478   */\n      tag_638\n        /* \"#utility.yul\":31473:31477   */\n      dup2\n        /* \"#utility.yul\":31347:31478   */\n      tag_340\n      jump\t// in\n    tag_638:\n        /* \"#utility.yul\":31339:31478   */\n      swap1\n      pop\n        /* \"#utility.yul\":31066:31485   */\n      swap2\n      swap1\n      pop\n      jump\t// out\n        /* \"#utility.yul\":31491:31671   */\n    tag_341:\n        /* \"#utility.yul\":31631:31663   */\n      0x596f7520617265206e6f742061207265676973746572656420766f7465720000\n        /* \"#utility.yul\":31627:31628   */\n      0x00\n        /* \"#utility.yul\":31619:31625   */\n      dup3\n        /* \"#utility.yul\":31615:31629   */\n      add\n        /* \"#utility.yul\":31608:31664   */\n      mstore\n        /* \"#utility.yul\":31491:31671   */\n      pop\n      jump\t// out\n        /* \"#utility.yul\":31677:32043   */\n    tag_342:\n        /* \"#utility.yul\":31819:31822   */\n      0x00\n        /* \"#utility.yul\":31840:31907   */\n      tag_641\n        /* \"#utility.yul\":31904:31906   */\n      0x1e\n        /* \"#utility.yul\":31899:31902   */\n      dup4\n        /* \"#utility.yul\":31840:31907   */\n      tag_288\n      jump\t// in\n    tag_641:\n        /* \"#utility.yul\":31833:31907   */\n      swap2\n      pop\n        /* \"#utility.yul\":31916:32009   */\n      tag_642\n        /* \"#utility.yul\":32005:32008   */\n      dup3\n        /* \"#utility.yul\":31916:32009   */\n      tag_341\n      jump\t// in\n    tag_642:\n        /* \"#utility.yul\":32034:32036   */\n      0x20\n        /* \"#utility.yul\":32029:32032   */\n      dup3\n        /* \"#utility.yul\":32025:32037   */\n      add\n        /* \"#utility.yul\":32018:32037   */\n      swap1\n      pop\n        /* \"#utility.yul\":31677:32043   */\n      swap2\n      swap1\n      pop\n      jump\t// out\n        /* \"#utility.yul\":32049:32468   */\n    tag_171:\n        /* \"#utility.yul\":32215:32219   */\n      0x00\n        /* \"#utility.yul\":32253:32255   */\n      0x20\n        /* \"#utility.yul\":32242:32251   */\n      dup3\n        /* \"#utility.yul\":32238:32256   */\n      add\n        /* \"#utility.yul\":32230:32256   */\n      swap1\n      pop\n        /* \"#utility.yul\":32302:32311   */\n      dup2\n        /* \"#utility.yul\":32296:32300   */\n      dup2\n        /* \"#utility.yul\":32292:32312   */\n      sub\n        /* \"#utility.yul\":32288:32289   */\n      0x00\n        /* \"#utility.yul\":32277:32286   */\n      dup4\n        /* \"#utility.yul\":32273:32290   */\n      add\n        /* \"#utility.yul\":32266:32313   */\n      mstore\n        /* \"#utility.yul\":32330:32461   */\n      tag_644\n        /* \"#utility.yul\":32456:32460   */\n      dup2\n        /* \"#utility.yul\":32330:32461   */\n      tag_342\n      jump\t// in\n    tag_644:\n        /* \"#utility.yul\":32322:32461   */\n      swap1\n      pop\n        /* \"#utility.yul\":32049:32468   */\n      swap2\n      swap1\n      pop\n      jump\t// out\n        /* \"#utility.yul\":32474:32647   */\n    tag_343:\n        /* \"#utility.yul\":32614:32639   */\n      0x566f746572206973206e6f742052656769737465726564000000000000000000\n        /* \"#utility.yul\":32610:32611   */\n      0x00\n        /* \"#utility.yul\":32602:32608   */\n      dup3\n        /* \"#utility.yul\":32598:32612   */\n      add\n        /* \"#utility.yul\":32591:32640   */\n      mstore\n        /* \"#utility.yul\":32474:32647   */\n      pop\n      jump\t// out\n        /* \"#utility.yul\":32653:33019   */\n    tag_344:\n        /* \"#utility.yul\":32795:32798   */\n      0x00\n        /* \"#utility.yul\":32816:32883   */\n      tag_647\n        /* \"#utility.yul\":32880:32882   */\n      0x17\n        /* \"#utility.yul\":32875:32878   */\n      dup4\n        /* \"#utility.yul\":32816:32883   */\n      tag_288\n      jump\t// in\n    tag_647:\n        /* \"#utility.yul\":32809:32883   */\n      swap2\n      pop\n        /* \"#utility.yul\":32892:32985   */\n      tag_648\n        /* \"#utility.yul\":32981:32984   */\n      dup3\n        /* \"#utility.yul\":32892:32985   */\n      tag_343\n      jump\t// in\n    tag_648:\n        /* \"#utility.yul\":33010:33012   */\n      0x20\n        /* \"#utility.yul\":33005:33008   */\n      dup3\n        /* \"#utility.yul\":33001:33013   */\n      add\n        /* \"#utility.yul\":32994:33013   */\n      swap1\n      pop\n        /* \"#utility.yul\":32653:33019   */\n      swap2\n      swap1\n      pop\n      jump\t// out\n        /* \"#utility.yul\":33025:33444   */\n    tag_208:\n        /* \"#utility.yul\":33191:33195   */\n      0x00\n        /* \"#utility.yul\":33229:33231   */\n      0x20\n        /* \"#utility.yul\":33218:33227   */\n      dup3\n        /* \"#utility.yul\":33214:33232   */\n      add\n        /* \"#utility.yul\":33206:33232   */\n      swap1\n      pop\n        /* \"#utility.yul\":33278:33287   */\n      dup2\n        /* \"#utility.yul\":33272:33276   */\n      dup2\n        /* \"#utility.yul\":33268:33288   */\n      sub\n        /* \"#utility.yul\":33264:33265   */\n      0x00\n        /* \"#utility.yul\":33253:33262   */\n      dup4\n        /* \"#utility.yul\":33249:33266   */\n      add\n        /* \"#utility.yul\":33242:33289   */\n      mstore\n        /* \"#utility.yul\":33306:33437   */\n      tag_650\n        /* \"#utility.yul\":33432:33436   */\n      dup2\n        /* \"#utility.yul\":33306:33437   */\n      tag_344\n      jump\t// in\n    tag_650:\n        /* \"#utility.yul\":33298:33437   */\n      swap1\n      pop\n        /* \"#utility.yul\":33025:33444   */\n      swap2\n      swap1\n      pop\n      jump\t// out\n        /* \"#utility.yul\":33450:33670   */\n    tag_345:\n        /* \"#utility.yul\":33590:33624   */\n      0x596f75206861766520616c72656164792063617374656420796f757220766f74\n        /* \"#utility.yul\":33586:33587   */\n      0x00\n        /* \"#utility.yul\":33578:33584   */\n      dup3\n        /* \"#utility.yul\":33574:33588   */\n      add\n        /* \"#utility.yul\":33567:33625   */\n      mstore\n        /* \"#utility.yul\":33659:33662   */\n      0x6500000000000000000000000000000000000000000000000000000000000000\n        /* \"#utility.yul\":33654:33656   */\n      0x20\n        /* \"#utility.yul\":33646:33652   */\n      dup3\n        /* \"#utility.yul\":33642:33657   */\n      add\n        /* \"#utility.yul\":33635:33663   */\n      mstore\n        /* \"#utility.yul\":33450:33670   */\n      pop\n      jump\t// out\n        /* \"#utility.yul\":33676:34042   */\n    tag_346:\n        /* \"#utility.yul\":33818:33821   */\n      0x00\n        /* \"#utility.yul\":33839:33906   */\n      tag_653\n        /* \"#utility.yul\":33903:33905   */\n      0x21\n        /* \"#utility.yul\":33898:33901   */\n      dup4\n        /* \"#utility.yul\":33839:33906   */\n      tag_288\n      jump\t// in\n    tag_653:\n        /* \"#utility.yul\":33832:33906   */\n      swap2\n      pop\n        /* \"#utility.yul\":33915:34008   */\n      tag_654\n        /* \"#utility.yul\":34004:34007   */\n      dup3\n        /* \"#utility.yul\":33915:34008   */\n      tag_345\n      jump\t// in\n    tag_654:\n        /* \"#utility.yul\":34033:34035   */\n      0x40\n        /* \"#utility.yul\":34028:34031   */\n      dup3\n        /* \"#utility.yul\":34024:34036   */\n      add\n        /* \"#utility.yul\":34017:34036   */\n      swap1\n      pop\n        /* \"#utility.yul\":33676:34042   */\n      swap2\n      swap1\n      pop\n      jump\t// out\n        /* \"#utility.yul\":34048:34467   */\n    tag_211:\n        /* \"#utility.yul\":34214:34218   */\n      0x00\n        /* \"#utility.yul\":34252:34254   */\n      0x20\n        /* \"#utility.yul\":34241:34250   */\n      dup3\n        /* \"#utility.yul\":34237:34255   */\n      add\n        /* \"#utility.yul\":34229:34255   */\n      swap1\n      pop\n        /* \"#utility.yul\":34301:34310   */\n      dup2\n        /* \"#utility.yul\":34295:34299   */\n      dup2\n        /* \"#utility.yul\":34291:34311   */\n      sub\n        /* \"#utility.yul\":34287:34288   */\n      0x00\n        /* \"#utility.yul\":34276:34285   */\n      dup4\n        /* \"#utility.yul\":34272:34289   */\n      add\n        /* \"#utility.yul\":34265:34312   */\n      mstore\n        /* \"#utility.yul\":34329:34460   */\n      tag_656\n        /* \"#utility.yul\":34455:34459   */\n      dup2\n        /* \"#utility.yul\":34329:34460   */\n      tag_346\n      jump\t// in\n    tag_656:\n        /* \"#utility.yul\":34321:34460   */\n      swap1\n      pop\n        /* \"#utility.yul\":34048:34467   */\n      swap2\n      swap1\n      pop\n      jump\t// out\n        /* \"#utility.yul\":34473:34710   */\n    tag_347:\n        /* \"#utility.yul\":34613:34647   */\n      0x566f74657220796f752061726520747279696e6720746f2064656c6567617465\n        /* \"#utility.yul\":34609:34610   */\n      0x00\n        /* \"#utility.yul\":34601:34607   */\n      dup3\n        /* \"#utility.yul\":34597:34611   */\n      add\n        /* \"#utility.yul\":34590:34648   */\n      mstore\n        /* \"#utility.yul\":34682:34702   */\n      0x206973206e6f7420526567697374657265640000000000000000000000000000\n        /* \"#utility.yul\":34677:34679   */\n      0x20\n        /* \"#utility.yul\":34669:34675   */\n      dup3\n        /* \"#utility.yul\":34665:34680   */\n      add\n        /* \"#utility.yul\":34658:34703   */\n      mstore\n        /* \"#utility.yul\":34473:34710   */\n      pop\n      jump\t// out\n        /* \"#utility.yul\":34716:35082   */\n    tag_348:\n        /* \"#utility.yul\":34858:34861   */\n      0x00\n        /* \"#utility.yul\":34879:34946   */\n      tag_659\n        /* \"#utility.yul\":34943:34945   */\n      0x32\n        /* \"#utility.yul\":34938:34941   */\n      dup4\n        /* \"#utility.yul\":34879:34946   */\n      tag_288\n      jump\t// in\n    tag_659:\n        /* \"#utility.yul\":34872:34946   */\n      swap2\n      pop\n        /* \"#utility.yul\":34955:35048   */\n      tag_660\n        /* \"#utility.yul\":35044:35047   */\n      dup3\n        /* \"#utility.yul\":34955:35048   */\n      tag_347\n      jump\t// in\n    tag_660:\n        /* \"#utility.yul\":35073:35075   */\n      0x40\n        /* \"#utility.yul\":35068:35071   */\n      dup3\n        /* \"#utility.yul\":35064:35076   */\n      add\n        /* \"#utility.yul\":35057:35076   */\n      swap1\n      pop\n        /* \"#utility.yul\":34716:35082   */\n      swap2\n      swap1\n      pop\n      jump\t// out\n        /* \"#utility.yul\":35088:35507   */\n    tag_215:\n        /* \"#utility.yul\":35254:35258   */\n      0x00\n        /* \"#utility.yul\":35292:35294   */\n      0x20\n        /* \"#utility.yul\":35281:35290   */\n      dup3\n        /* \"#utility.yul\":35277:35295   */\n      add\n        /* \"#utility.yul\":35269:35295   */\n      swap1\n      pop\n        /* \"#utility.yul\":35341:35350   */\n      dup2\n        /* \"#utility.yul\":35335:35339   */\n      dup2\n        /* \"#utility.yul\":35331:35351   */\n      sub\n        /* \"#utility.yul\":35327:35328   */\n      0x00\n        /* \"#utility.yul\":35316:35325   */\n      dup4\n        /* \"#utility.yul\":35312:35329   */\n      add\n        /* \"#utility.yul\":35305:35352   */\n      mstore\n        /* \"#utility.yul\":35369:35500   */\n      tag_662\n        /* \"#utility.yul\":35495:35499   */\n      dup2\n        /* \"#utility.yul\":35369:35500   */\n      tag_348\n      jump\t// in\n    tag_662:\n        /* \"#utility.yul\":35361:35500   */\n      swap1\n      pop\n        /* \"#utility.yul\":35088:35507   */\n      swap2\n      swap1\n      pop\n      jump\t// out\n        /* \"#utility.yul\":35513:35753   */\n    tag_349:\n        /* \"#utility.yul\":35653:35687   */\n      0x596f7520617265206e6f7420617574686f72697a656420746f20766f7465206f\n        /* \"#utility.yul\":35649:35650   */\n      0x00\n        /* \"#utility.yul\":35641:35647   */\n      dup3\n        /* \"#utility.yul\":35637:35651   */\n      add\n        /* \"#utility.yul\":35630:35688   */\n      mstore\n        /* \"#utility.yul\":35722:35745   */\n      0x6e207468697320766f746572277320626568616c660000000000000000000000\n        /* \"#utility.yul\":35717:35719   */\n      0x20\n        /* \"#utility.yul\":35709:35715   */\n      dup3\n        /* \"#utility.yul\":35705:35720   */\n      add\n        /* \"#utility.yul\":35698:35746   */\n      mstore\n        /* \"#utility.yul\":35513:35753   */\n      pop\n      jump\t// out\n        /* \"#utility.yul\":35759:36125   */\n    tag_350:\n        /* \"#utility.yul\":35901:35904   */\n      0x00\n        /* \"#utility.yul\":35922:35989   */\n      tag_665\n        /* \"#utility.yul\":35986:35988   */\n      0x35\n        /* \"#utility.yul\":35981:35984   */\n      dup4\n        /* \"#utility.yul\":35922:35989   */\n      tag_288\n      jump\t// in\n    tag_665:\n        /* \"#utility.yul\":35915:35989   */\n      swap2\n      pop\n        /* \"#utility.yul\":35998:36091   */\n      tag_666\n        /* \"#utility.yul\":36087:36090   */\n      dup3\n        /* \"#utility.yul\":35998:36091   */\n      tag_349\n      jump\t// in\n    tag_666:\n        /* \"#utility.yul\":36116:36118   */\n      0x40\n        /* \"#utility.yul\":36111:36114   */\n      dup3\n        /* \"#utility.yul\":36107:36119   */\n      add\n        /* \"#utility.yul\":36100:36119   */\n      swap1\n      pop\n        /* \"#utility.yul\":35759:36125   */\n      swap2\n      swap1\n      pop\n      jump\t// out\n        /* \"#utility.yul\":36131:36550   */\n    tag_260:\n        /* \"#utility.yul\":36297:36301   */\n      0x00\n        /* \"#utility.yul\":36335:36337   */\n      0x20\n        /* \"#utility.yul\":36324:36333   */\n      dup3\n        /* \"#utility.yul\":36320:36338   */\n      add\n        /* \"#utility.yul\":36312:36338   */\n      swap1\n      pop\n        /* \"#utility.yul\":36384:36393   */\n      dup2\n        /* \"#utility.yul\":36378:36382   */\n      dup2\n        /* \"#utility.yul\":36374:36394   */\n      sub\n        /* \"#utility.yul\":36370:36371   */\n      0x00\n        /* \"#utility.yul\":36359:36368   */\n      dup4\n        /* \"#utility.yul\":36355:36372   */\n      add\n        /* \"#utility.yul\":36348:36395   */\n      mstore\n        /* \"#utility.yul\":36412:36543   */\n      tag_668\n        /* \"#utility.yul\":36538:36542   */\n      dup2\n        /* \"#utility.yul\":36412:36543   */\n      tag_350\n      jump\t// in\n    tag_668:\n        /* \"#utility.yul\":36404:36543   */\n      swap1\n      pop\n        /* \"#utility.yul\":36131:36550   */\n      swap2\n      swap1\n      pop\n      jump\t// out\n\n    auxdata: 0xa2646970667358221220e81db5fa9f7e0251b7ebb2e120c92e94717ffd35de36488460ca238a076d315e64736f6c63430008160033\n}\n",
				"bytecode": {
					"linkReferences": {},
					"object": "608060405234801561000f575f80fd5b50335f806101000a81548173ffffffffffffffffffffffffffffffffffffffff021916908373ffffffffffffffffffffffffffffffffffffffff1602179055506130cc8061005c5f395ff3fe608060405234801561000f575f80fd5b50600436106100e8575f3560e01c806379614b2e1161008a578063b31e1d4d11610064578063b31e1d4d14610219578063b7e0326414610235578063fdbc400614610255578063ff91bb4514610273576100e8565b806379614b2e146101a657806384532105146101d8578063a9a981a3146101fb576100e8565b806342169e48116100c657806342169e4814610144578063516077d51461016257806362d73eb81461017e5780636f406fab14610188576100e8565b80630b32ff77146100ec5780632df9feaa1461010857806337719cbe14610112575b5f80fd5b61010660048036038101906101019190612024565b61028f565b005b61011061061b565b005b61012c600480360381019061012791906120df565b61072b565b60405161013b93929190612193565b60405180910390f35b61014c610896565b60405161015991906121d6565b60405180910390f35b61017c600480360381019061017791906121ef565b61089c565b005b610186610bf6565b005b610190610c9f565b60405161019d91906121d6565b60405180910390f35b6101c060048036038101906101bb91906120df565b610ca5565b6040516101cf93929190612277565b60405180910390f35b6101e0610e81565b6040516101f2969594939291906122e3565b60405180910390f35b6102036115cc565b60405161021091906121d6565b60405180910390f35b610233600480360381019061022e9190612357565b6115d2565b005b61023d61184a565b60405161024c93929190612382565b60405180910390f35b61025d6119ce565b60405161026a9190612546565b60405180910390f35b61028d60048036038101906102889190612566565b611ba8565b005b3373ffffffffffffffffffffffffffffffffffffffff165f8054906101000a900473ffffffffffffffffffffffffffffffffffffffff1673ffffffffffffffffffffffffffffffffffffffff161461031c576040517f08c379a000000000000000000000000000000000000000000000000000000000815260040161031390612614565b60405180910390fd5b5f60149054906101000a900460ff161561036b576040517f08c379a0000000000000000000000000000000000000000000000000000000008152600401610362906126a2565b60405180910390fd5b60065f8273ffffffffffffffffffffffffffffffffffffffff1673ffffffffffffffffffffffffffffffffffffffff1681526020019081526020015f205f9054906101000a900460ff16156103f5576040517f08c379a00000000000000000000000000000000000000000000000000000000081526004016103ec9061270a565b60405180910390fd5b60405180608001604052808481526020018381526020015f81526020018273ffffffffffffffffffffffffffffffffffffffff1681525060075f60015481526020019081526020015f205f820151815f0190816104529190612922565b5060208201518160010190816104689190612922565b50604082015181600201556060820151816003015f6101000a81548173ffffffffffffffffffffffffffffffffffffffff021916908373ffffffffffffffffffffffffffffffffffffffff160217905550905050600560075f60015481526020019081526020015f20908060018154018082558091505060019003905f5260205f2090600402015f909190919091505f8201815f0190816105099190612a06565b506001820181600101908161051e9190612a06565b5060028201548160020155600382015f9054906101000a900473ffffffffffffffffffffffffffffffffffffffff16816003015f6101000a81548173ffffffffffffffffffffffffffffffffffffffff021916908373ffffffffffffffffffffffffffffffffffffffff16021790555050506001805f8282546105a19190612b18565b92505081905550600160065f8373ffffffffffffffffffffffffffffffffffffffff1673ffffffffffffffffffffffffffffffffffffffff1681526020019081526020015f205f6101000a81548160ff021916908315150217905550600160025f82825461060f9190612b18565b92505081905550505050565b3373ffffffffffffffffffffffffffffffffffffffff165f8054906101000a900473ffffffffffffffffffffffffffffffffffffffff1673ffffffffffffffffffffffffffffffffffffffff16146106a8576040517f08c379a000000000000000000000000000000000000000000000000000000000815260040161069f90612614565b60405180910390fd5b5f60149054906101000a900460ff166106f6576040517f08c379a00000000000000000000000000000000000000000000000000000000081526004016106ed90612b95565b60405180910390fd5b60015f60156101000a81548160ff0219169083151502179055505f8060146101000a81548160ff021916908315150217905550565b5f606080836005858154811061074457610743612bb3565b5b905f5260205f2090600402015f016005868154811061076657610765612bb3565b5b905f5260205f20906004020160010181805461078190612755565b80601f01602080910402602001604051908101604052809291908181526020018280546107ad90612755565b80156107f85780601f106107cf576101008083540402835291602001916107f8565b820191905f5260205f20905b8154815290600101906020018083116107db57829003601f168201915b5050505050915080805461080b90612755565b80601f016020809104026020016040519081016040528092919081815260200182805461083790612755565b80156108825780601f1061085957610100808354040283529160200191610882565b820191905f5260205f20905b81548152906001019060200180831161086557829003601f168201915b505050505090509250925092509193909250565b60035481565b3373ffffffffffffffffffffffffffffffffffffffff165f8054906101000a900473ffffffffffffffffffffffffffffffffffffffff1673ffffffffffffffffffffffffffffffffffffffff1614610929576040517f08c379a000000000000000000000000000000000000000000000000000000000815260040161092090612614565b60405180910390fd5b6009816040516109399190612c1a565b90815260200160405180910390205f9054906101000a900460ff1615610994576040517f08c379a000000000000000000000000000000000000000000000000000000000815260040161098b90612ca0565b60405180910390fd5b5f60085f8573ffffffffffffffffffffffffffffffffffffffff1673ffffffffffffffffffffffffffffffffffffffff1681526020019081526020015f205f0180546109df90612755565b90501115610a22576040517f08c379a0000000000000000000000000000000000000000000000000000000008152600401610a1990612d08565b60405180910390fd5b5f60149054906101000a900460ff1615610a71576040517f08c379a0000000000000000000000000000000000000000000000000000000008152600401610a6890612d96565b60405180910390fd5b6040518060a001604052808381526020018281526020015f151581526020015f151581526020015f73ffffffffffffffffffffffffffffffffffffffff1681525060085f8573ffffffffffffffffffffffffffffffffffffffff1673ffffffffffffffffffffffffffffffffffffffff1681526020019081526020015f205f820151815f019081610b029190612922565b506020820151816001019081610b189190612922565b506040820151816002015f6101000a81548160ff02191690831515021790555060608201518160020160016101000a81548160ff02191690831515021790555060808201518160020160026101000a81548173ffffffffffffffffffffffffffffffffffffffff021916908373ffffffffffffffffffffffffffffffffffffffff1602179055509050506001600982604051610bb49190612c1a565b90815260200160405180910390205f6101000a81548160ff021916908315150217905550600160035f828254610bea9190612b18565b92505081905550505050565b3373ffffffffffffffffffffffffffffffffffffffff165f8054906101000a900473ffffffffffffffffffffffffffffffffffffffff1673ffffffffffffffffffffffffffffffffffffffff1614610c83576040517f08c379a0000000000000000000000000000000000000000000000000000000008152600401610c7a90612614565b60405180910390fd5b60015f60146101000a81548160ff021916908315150217905550565b60045481565b6060805f8060159054906101000a900460ff16610cf7576040517f08c379a0000000000000000000000000000000000000000000000000000000008152600401610cee90612dfe565b60405180910390fd5b60058481548110610d0b57610d0a612bb3565b5b905f5260205f2090600402015f0160058581548110610d2d57610d2c612bb3565b5b905f5260205f20906004020160010160058681548110610d5057610d4f612bb3565b5b905f5260205f20906004020160020154828054610d6c90612755565b80601f0160208091040260200160405190810160405280929190818152602001828054610d9890612755565b8015610de35780601f10610dba57610100808354040283529160200191610de3565b820191905f5260205f20905b815481529060010190602001808311610dc657829003601f168201915b50505050509250818054610df690612755565b80601f0160208091040260200160405190810160405280929190818152602001828054610e2290612755565b8015610e6d5780601f10610e4457610100808354040283529160200191610e6d565b820191905f5260205f20905b815481529060010190602001808311610e5057829003601f168201915b505050505091509250925092509193909250565b6060805f805f60605f60085f3373ffffffffffffffffffffffffffffffffffffffff1673ffffffffffffffffffffffffffffffffffffffff1681526020019081526020015f205f018054610ed490612755565b905011610f16576040517f08c379a0000000000000000000000000000000000000000000000000000000008152600401610f0d90612e66565b60405180910390fd5b60085f3373ffffffffffffffffffffffffffffffffffffffff1673ffffffffffffffffffffffffffffffffffffffff1681526020019081526020015f2060020160019054906101000a900460ff16156112f25760085f3373ffffffffffffffffffffffffffffffffffffffff1673ffffffffffffffffffffffffffffffffffffffff1681526020019081526020015f205f0160085f3373ffffffffffffffffffffffffffffffffffffffff1673ffffffffffffffffffffffffffffffffffffffff1681526020019081526020015f2060010160085f3373ffffffffffffffffffffffffffffffffffffffff1673ffffffffffffffffffffffffffffffffffffffff1681526020019081526020015f206002015f9054906101000a900460ff1660085f3373ffffffffffffffffffffffffffffffffffffffff1673ffffffffffffffffffffffffffffffffffffffff1681526020019081526020015f2060020160019054906101000a900460ff1660085f3373ffffffffffffffffffffffffffffffffffffffff1673ffffffffffffffffffffffffffffffffffffffff1681526020019081526020015f2060020160029054906101000a900473ffffffffffffffffffffffffffffffffffffffff166005600a5f3373ffffffffffffffffffffffffffffffffffffffff1673ffffffffffffffffffffffffffffffffffffffff1681526020019081526020015f20548154811061113557611134612bb3565b5b905f5260205f2090600402015f0185805461114f90612755565b80601f016020809104026020016040519081016040528092919081815260200182805461117b90612755565b80156111c65780601f1061119d576101008083540402835291602001916111c6565b820191905f5260205f20905b8154815290600101906020018083116111a957829003601f168201915b505050505095508480546111d990612755565b80601f016020809104026020016040519081016040528092919081815260200182805461120590612755565b80156112505780601f1061122757610100808354040283529160200191611250565b820191905f5260205f20905b81548152906001019060200180831161123357829003601f168201915b5050505050945080805461126390612755565b80601f016020809104026020016040519081016040528092919081815260200182805461128f90612755565b80156112da5780601f106112b1576101008083540402835291602001916112da565b820191905f5260205f20905b8154815290600101906020018083116112bd57829003601f168201915b505050505090509550955095509550955095506115c4565b60085f3373ffffffffffffffffffffffffffffffffffffffff1673ffffffffffffffffffffffffffffffffffffffff1681526020019081526020015f205f0160085f3373ffffffffffffffffffffffffffffffffffffffff1673ffffffffffffffffffffffffffffffffffffffff1681526020019081526020015f2060010160085f3373ffffffffffffffffffffffffffffffffffffffff1673ffffffffffffffffffffffffffffffffffffffff1681526020019081526020015f206002015f9054906101000a900460ff1660085f3373ffffffffffffffffffffffffffffffffffffffff1673ffffffffffffffffffffffffffffffffffffffff1681526020019081526020015f2060020160019054906101000a900460ff1660085f3373ffffffffffffffffffffffffffffffffffffffff1673ffffffffffffffffffffffffffffffffffffffff1681526020019081526020015f2060020160029054906101000a900473ffffffffffffffffffffffffffffffffffffffff1684805461147990612755565b80601f01602080910402602001604051908101604052809291908181526020018280546114a590612755565b80156114f05780601f106114c7576101008083540402835291602001916114f0565b820191905f5260205f20905b8154815290600101906020018083116114d357829003601f168201915b5050505050945083805461150390612755565b80601f016020809104026020016040519081016040528092919081815260200182805461152f90612755565b801561157a5780601f106115515761010080835404028352916020019161157a565b820191905f5260205f20905b81548152906001019060200180831161155d57829003601f168201915b505050505093506040518060400160405280600181526020017f20000000000000000000000000000000000000000000000000000000000000008152509550955095509550955095505b909192939495565b60025481565b5f60149054906101000a900460ff16611620576040517f08c379a000000000000000000000000000000000000000000000000000000000815260040161161790612b95565b60405180910390fd5b5f60085f3373ffffffffffffffffffffffffffffffffffffffff1673ffffffffffffffffffffffffffffffffffffffff1681526020019081526020015f205f01805461166b90612755565b9050116116ad576040517f08c379a00000000000000000000000000000000000000000000000000000000081526004016116a490612ece565b60405180910390fd5b60085f3373ffffffffffffffffffffffffffffffffffffffff1673ffffffffffffffffffffffffffffffffffffffff1681526020019081526020015f2060020160019054906101000a900460ff161561173b576040517f08c379a000000000000000000000000000000000000000000000000000000000815260040161173290612f5c565b60405180910390fd5b5f60085f8373ffffffffffffffffffffffffffffffffffffffff1673ffffffffffffffffffffffffffffffffffffffff1681526020019081526020015f205f01805461178690612755565b9050116117c8576040517f08c379a00000000000000000000000000000000000000000000000000000000081526004016117bf90612fea565b60405180910390fd5b8060085f3373ffffffffffffffffffffffffffffffffffffffff1673ffffffffffffffffffffffffffffffffffffffff1681526020019081526020015f2060020160026101000a81548173ffffffffffffffffffffffffffffffffffffffff021916908373ffffffffffffffffffffffffffffffffffffffff16021790555050565b5f60605f8060159054906101000a900460ff1661189c576040517f08c379a000000000000000000000000000000000000000000000000000000000815260040161189390612dfe565b60405180910390fd5b5f60605f805b6005805490508110156119bc5783600582815481106118c4576118c3612bb3565b5b905f5260205f2090600402016002015411156119af57600581815481106118ee576118ed612bb3565b5b905f5260205f2090600402016002015493506005818154811061191457611913612bb3565b5b905f5260205f2090600402015f01805461192d90612755565b80601f016020809104026020016040519081016040528092919081815260200182805461195990612755565b80156119a45780601f1061197b576101008083540402835291602001916119a4565b820191905f5260205f20905b81548152906001019060200180831161198757829003601f168201915b505050505092508091505b80806001019150506118a2565b50808284955095509550505050909192565b60606005805480602002602001604051908101604052809291908181526020015f905b82821015611b9f578382905f5260205f2090600402016040518060800160405290815f82018054611a2190612755565b80601f0160208091040260200160405190810160405280929190818152602001828054611a4d90612755565b8015611a985780601f10611a6f57610100808354040283529160200191611a98565b820191905f5260205f20905b815481529060010190602001808311611a7b57829003601f168201915b50505050508152602001600182018054611ab190612755565b80601f0160208091040260200160405190810160405280929190818152602001828054611add90612755565b8015611b285780601f10611aff57610100808354040283529160200191611b28565b820191905f5260205f20905b815481529060010190602001808311611b0b57829003601f168201915b5050505050815260200160028201548152602001600382015f9054906101000a900473ffffffffffffffffffffffffffffffffffffffff1673ffffffffffffffffffffffffffffffffffffffff1673ffffffffffffffffffffffffffffffffffffffff1681525050815260200190600101906119f1565b50505050905090565b5f60149054906101000a900460ff16611bf6576040517f08c379a0000000000000000000000000000000000000000000000000000000008152600401611bed90612b95565b60405180910390fd5b8173ffffffffffffffffffffffffffffffffffffffff163373ffffffffffffffffffffffffffffffffffffffff1603611cbc5760085f8373ffffffffffffffffffffffffffffffffffffffff1673ffffffffffffffffffffffffffffffffffffffff1681526020019081526020015f2060020160019054906101000a900460ff1615611cb7576040517f08c379a0000000000000000000000000000000000000000000000000000000008152600401611cae90612f5c565b60405180910390fd5b611d8b565b3373ffffffffffffffffffffffffffffffffffffffff1660085f8473ffffffffffffffffffffffffffffffffffffffff1673ffffffffffffffffffffffffffffffffffffffff1681526020019081526020015f2060020160029054906101000a900473ffffffffffffffffffffffffffffffffffffffff1673ffffffffffffffffffffffffffffffffffffffff1614611d8a576040517f08c379a0000000000000000000000000000000000000000000000000000000008152600401611d8190613078565b60405180910390fd5b5b600160085f8473ffffffffffffffffffffffffffffffffffffffff1673ffffffffffffffffffffffffffffffffffffffff1681526020019081526020015f2060020160016101000a81548160ff021916908315150217905550600160058281548110611dfa57611df9612bb3565b5b905f5260205f2090600402016002015f828254611e179190612b18565b9250508190555080600a5f8473ffffffffffffffffffffffffffffffffffffffff1673ffffffffffffffffffffffffffffffffffffffff1681526020019081526020015f2081905550600160045f828254611e729190612b18565b925050819055505050565b5f604051905090565b5f80fd5b5f80fd5b5f80fd5b5f80fd5b5f601f19601f8301169050919050565b7f4e487b71000000000000000000000000000000000000000000000000000000005f52604160045260245ffd5b611edc82611e96565b810181811067ffffffffffffffff82111715611efb57611efa611ea6565b5b80604052505050565b5f611f0d611e7d565b9050611f198282611ed3565b919050565b5f67ffffffffffffffff821115611f3857611f37611ea6565b5b611f4182611e96565b9050602081019050919050565b828183375f83830152505050565b5f611f6e611f6984611f1e565b611f04565b905082815260208101848484011115611f8a57611f89611e92565b5b611f95848285611f4e565b509392505050565b5f82601f830112611fb157611fb0611e8e565b5b8135611fc1848260208601611f5c565b91505092915050565b5f73ffffffffffffffffffffffffffffffffffffffff82169050919050565b5f611ff382611fca565b9050919050565b61200381611fe9565b811461200d575f80fd5b50565b5f8135905061201e81611ffa565b92915050565b5f805f6060848603121561203b5761203a611e86565b5b5f84013567ffffffffffffffff81111561205857612057611e8a565b5b61206486828701611f9d565b935050602084013567ffffffffffffffff81111561208557612084611e8a565b5b61209186828701611f9d565b92505060406120a286828701612010565b9150509250925092565b5f819050919050565b6120be816120ac565b81146120c8575f80fd5b50565b5f813590506120d9816120b5565b92915050565b5f602082840312156120f4576120f3611e86565b5b5f612101848285016120cb565b91505092915050565b612113816120ac565b82525050565b5f81519050919050565b5f82825260208201905092915050565b5f5b83811015612150578082015181840152602081019050612135565b5f8484015250505050565b5f61216582612119565b61216f8185612123565b935061217f818560208601612133565b61218881611e96565b840191505092915050565b5f6060820190506121a65f83018661210a565b81810360208301526121b8818561215b565b905081810360408301526121cc818461215b565b9050949350505050565b5f6020820190506121e95f83018461210a565b92915050565b5f805f6060848603121561220657612205611e86565b5b5f61221386828701612010565b935050602084013567ffffffffffffffff81111561223457612233611e8a565b5b61224086828701611f9d565b925050604084013567ffffffffffffffff81111561226157612260611e8a565b5b61226d86828701611f9d565b9150509250925092565b5f6060820190508181035f83015261228f818661215b565b905081810360208301526122a3818561215b565b90506122b2604083018461210a565b949350505050565b5f8115159050919050565b6122ce816122ba565b82525050565b6122dd81611fe9565b82525050565b5f60c0820190508181035f8301526122fb818961215b565b9050818103602083015261230f818861215b565b905061231e60408301876122c5565b61232b60608301866122c5565b61233860808301856122d4565b81810360a083015261234a818461215b565b9050979650505050505050565b5f6020828403121561236c5761236b611e86565b5b5f61237984828501612010565b91505092915050565b5f6060820190506123955f83018661210a565b81810360208301526123a7818561215b565b90506123b6604083018461210a565b949350505050565b5f81519050919050565b5f82825260208201905092915050565b5f819050602082019050919050565b5f82825260208201905092915050565b5f61240182612119565b61240b81856123e7565b935061241b818560208601612133565b61242481611e96565b840191505092915050565b612438816120ac565b82525050565b61244781611fe9565b82525050565b5f608083015f8301518482035f86015261246782826123f7565b9150506020830151848203602086015261248182826123f7565b9150506040830151612496604086018261242f565b5060608301516124a9606086018261243e565b508091505092915050565b5f6124bf838361244d565b905092915050565b5f602082019050919050565b5f6124dd826123be565b6124e781856123c8565b9350836020820285016124f9856123d8565b805f5b85811015612534578484038952815161251585826124b4565b9450612520836124c7565b925060208a019950506001810190506124fc565b50829750879550505050505092915050565b5f6020820190508181035f83015261255e81846124d3565b905092915050565b5f806040838503121561257c5761257b611e86565b5b5f61258985828601612010565b925050602061259a858286016120cb565b9150509250929050565b7f4f6e6c7920566f74696e672041646d696e20697320616c6c6f77656420746f205f8201527f706572666f726d207468697320616374696f6e00000000000000000000000000602082015250565b5f6125fe603383612123565b9150612609826125a4565b604082019050919050565b5f6020820190508181035f83015261262b816125f2565b9050919050565b7f43616e6e6f74206164642043616e64696461746520617320656c656374696f6e5f8201527f2073746172746564000000000000000000000000000000000000000000000000602082015250565b5f61268c602883612123565b915061269782612632565b604082019050919050565b5f6020820190508181035f8301526126b981612680565b9050919050565b7f43616e64696461746520416c72656164792052656769737465726564000000005f82015250565b5f6126f4601c83612123565b91506126ff826126c0565b602082019050919050565b5f6020820190508181035f830152612721816126e8565b9050919050565b7f4e487b71000000000000000000000000000000000000000000000000000000005f52602260045260245ffd5b5f600282049050600182168061276c57607f821691505b60208210810361277f5761277e612728565b5b50919050565b5f819050815f5260205f209050919050565b5f6020601f8301049050919050565b5f82821b905092915050565b5f600883026127e17fffffffffffffffffffffffffffffffffffffffffffffffffffffffffffffffff826127a6565b6127eb86836127a6565b95508019841693508086168417925050509392505050565b5f819050919050565b5f61282661282161281c846120ac565b612803565b6120ac565b9050919050565b5f819050919050565b61283f8361280c565b61285361284b8261282d565b8484546127b2565b825550505050565b5f90565b61286761285b565b612872818484612836565b505050565b5b818110156128955761288a5f8261285f565b600181019050612878565b5050565b601f8211156128da576128ab81612785565b6128b484612797565b810160208510156128c3578190505b6128d76128cf85612797565b830182612877565b50505b505050565b5f82821c905092915050565b5f6128fa5f19846008026128df565b1980831691505092915050565b5f61291283836128eb565b9150826002028217905092915050565b61292b82612119565b67ffffffffffffffff81111561294457612943611ea6565b5b61294e8254612755565b612959828285612899565b5f60209050601f83116001811461298a575f8415612978578287015190505b6129828582612907565b8655506129e9565b601f19841661299886612785565b5f5b828110156129bf5784890151825560018201915060208501945060208101905061299a565b868310156129dc57848901516129d8601f8916826128eb565b8355505b6001600288020188555050505b505050505050565b5f815490506129ff81612755565b9050919050565b818103612a14575050612ae9565b612a1d826129f1565b67ffffffffffffffff811115612a3657612a35611ea6565b5b612a408254612755565b612a4b828285612899565b5f601f831160018114612a78575f8415612a66578287015490505b612a708582612907565b865550612ae2565b601f198416612a8687612785565b9650612a9186612785565b5f5b82811015612ab857848901548255600182019150600185019450602081019050612a93565b86831015612ad55784890154612ad1601f8916826128eb565b8355505b6001600288020188555050505b5050505050505b565b7f4e487b71000000000000000000000000000000000000000000000000000000005f52601160045260245ffd5b5f612b22826120ac565b9150612b2d836120ac565b9250828201905080821115612b4557612b44612aeb565b5b92915050565b7f456c656374696f6e204e6f7420537461727465640000000000000000000000005f82015250565b5f612b7f601483612123565b9150612b8a82612b4b565b602082019050919050565b5f6020820190508181035f830152612bac81612b73565b9050919050565b7f4e487b71000000000000000000000000000000000000000000000000000000005f52603260045260245ffd5b5f81905092915050565b5f612bf482612119565b612bfe8185612be0565b9350612c0e818560208601612133565b80840191505092915050565b5f612c258284612bea565b915081905092915050565b7f566f746572207769746820746869732069642070726f6f6620616c72656164795f8201527f2072656769737465726564000000000000000000000000000000000000000000602082015250565b5f612c8a602b83612123565b9150612c9582612c30565b604082019050919050565b5f6020820190508181035f830152612cb781612c7e565b9050919050565b7f566f74657220416c7265616479205265676973746572656400000000000000005f82015250565b5f612cf2601883612123565b9150612cfd82612cbe565b602082019050919050565b5f6020820190508181035f830152612d1f81612ce6565b9050919050565b7f43616e6e6f742061646420566f74657220617320656c656374696f6e207374615f8201527f7274656400000000000000000000000000000000000000000000000000000000602082015250565b5f612d80602483612123565b9150612d8b82612d26565b604082019050919050565b5f6020820190508181035f830152612dad81612d74565b9050919050565b7f456c656374696f6e20686173206e6f7420656e646564207965740000000000005f82015250565b5f612de8601a83612123565b9150612df382612db4565b602082019050919050565b5f6020820190508181035f830152612e1581612ddc565b9050919050565b7f596f7520617265206e6f742061207265676973746572656420766f74657200005f82015250565b5f612e50601e83612123565b9150612e5b82612e1c565b602082019050919050565b5f6020820190508181035f830152612e7d81612e44565b9050919050565b7f566f746572206973206e6f7420526567697374657265640000000000000000005f82015250565b5f612eb8601783612123565b9150612ec382612e84565b602082019050919050565b5f6020820190508181035f830152612ee581612eac565b9050919050565b7f596f75206861766520616c72656164792063617374656420796f757220766f745f8201527f6500000000000000000000000000000000000000000000000000000000000000602082015250565b5f612f46602183612123565b9150612f5182612eec565b604082019050919050565b5f6020820190508181035f830152612f7381612f3a565b9050919050565b7f566f74657220796f752061726520747279696e6720746f2064656c65676174655f8201527f206973206e6f7420526567697374657265640000000000000000000000000000602082015250565b5f612fd4603283612123565b9150612fdf82612f7a565b604082019050919050565b5f6020820190508181035f83015261300181612fc8565b9050919050565b7f596f7520617265206e6f7420617574686f72697a656420746f20766f7465206f5f8201527f6e207468697320766f746572277320626568616c660000000000000000000000602082015250565b5f613062603583612123565b915061306d82613008565b604082019050919050565b5f6020820190508181035f83015261308f81613056565b905091905056fea2646970667358221220e81db5fa9f7e0251b7ebb2e120c92e94717ffd35de36488460ca238a076d315e64736f6c63430008160033",
					"opcodes": "PUSH1 0x80 PUSH1 0x40 MSTORE CALLVALUE DUP1 ISZERO PUSH2 0xF JUMPI PUSH0 DUP1 REVERT JUMPDEST POP CALLER PUSH0 DUP1 PUSH2 0x100 EXP DUP2 SLOAD DUP2 PUSH20 0xFFFFFFFFFFFFFFFFFFFFFFFFFFFFFFFFFFFFFFFF MUL NOT AND SWAP1 DUP4 PUSH20 0xFFFFFFFFFFFFFFFFFFFFFFFFFFFFFFFFFFFFFFFF AND MUL OR SWAP1 SSTORE POP PUSH2 0x30CC DUP1 PUSH2 0x5C PUSH0 CODECOPY PUSH0 RETURN INVALID PUSH1 0x80 PUSH1 0x40 MSTORE CALLVALUE DUP1 ISZERO PUSH2 0xF JUMPI PUSH0 DUP1 REVERT JUMPDEST POP PUSH1 0x4 CALLDATASIZE LT PUSH2 0xE8 JUMPI PUSH0 CALLDATALOAD PUSH1 0xE0 SHR DUP1 PUSH4 0x79614B2E GT PUSH2 0x8A JUMPI DUP1 PUSH4 0xB31E1D4D GT PUSH2 0x64 JUMPI DUP1 PUSH4 0xB31E1D4D EQ PUSH2 0x219 JUMPI DUP1 PUSH4 0xB7E03264 EQ PUSH2 0x235 JUMPI DUP1 PUSH4 0xFDBC4006 EQ PUSH2 0x255 JUMPI DUP1 PUSH4 0xFF91BB45 EQ PUSH2 0x273 JUMPI PUSH2 0xE8 JUMP JUMPDEST DUP1 PUSH4 0x79614B2E EQ PUSH2 0x1A6 JUMPI DUP1 PUSH4 0x84532105 EQ PUSH2 0x1D8 JUMPI DUP1 PUSH4 0xA9A981A3 EQ PUSH2 0x1FB JUMPI PUSH2 0xE8 JUMP JUMPDEST DUP1 PUSH4 0x42169E48 GT PUSH2 0xC6 JUMPI DUP1 PUSH4 0x42169E48 EQ PUSH2 0x144 JUMPI DUP1 PUSH4 0x516077D5 EQ PUSH2 0x162 JUMPI DUP1 PUSH4 0x62D73EB8 EQ PUSH2 0x17E JUMPI DUP1 PUSH4 0x6F406FAB EQ PUSH2 0x188 JUMPI PUSH2 0xE8 JUMP JUMPDEST DUP1 PUSH4 0xB32FF77 EQ PUSH2 0xEC JUMPI DUP1 PUSH4 0x2DF9FEAA EQ PUSH2 0x108 JUMPI DUP1 PUSH4 0x37719CBE EQ PUSH2 0x112 JUMPI JUMPDEST PUSH0 DUP1 REVERT JUMPDEST PUSH2 0x106 PUSH1 0x4 DUP1 CALLDATASIZE SUB DUP2 ADD SWAP1 PUSH2 0x101 SWAP2 SWAP1 PUSH2 0x2024 JUMP JUMPDEST PUSH2 0x28F JUMP JUMPDEST STOP JUMPDEST PUSH2 0x110 PUSH2 0x61B JUMP JUMPDEST STOP JUMPDEST PUSH2 0x12C PUSH1 0x4 DUP1 CALLDATASIZE SUB DUP2 ADD SWAP1 PUSH2 0x127 SWAP2 SWAP1 PUSH2 0x20DF JUMP JUMPDEST PUSH2 0x72B JUMP JUMPDEST PUSH1 0x40 MLOAD PUSH2 0x13B SWAP4 SWAP3 SWAP2 SWAP1 PUSH2 0x2193 JUMP JUMPDEST PUSH1 0x40 MLOAD DUP1 SWAP2 SUB SWAP1 RETURN JUMPDEST PUSH2 0x14C PUSH2 0x896 JUMP JUMPDEST PUSH1 0x40 MLOAD PUSH2 0x159 SWAP2 SWAP1 PUSH2 0x21D6 JUMP JUMPDEST PUSH1 0x40 MLOAD DUP1 SWAP2 SUB SWAP1 RETURN JUMPDEST PUSH2 0x17C PUSH1 0x4 DUP1 CALLDATASIZE SUB DUP2 ADD SWAP1 PUSH2 0x177 SWAP2 SWAP1 PUSH2 0x21EF JUMP JUMPDEST PUSH2 0x89C JUMP JUMPDEST STOP JUMPDEST PUSH2 0x186 PUSH2 0xBF6 JUMP JUMPDEST STOP JUMPDEST PUSH2 0x190 PUSH2 0xC9F JUMP JUMPDEST PUSH1 0x40 MLOAD PUSH2 0x19D SWAP2 SWAP1 PUSH2 0x21D6 JUMP JUMPDEST PUSH1 0x40 MLOAD DUP1 SWAP2 SUB SWAP1 RETURN JUMPDEST PUSH2 0x1C0 PUSH1 0x4 DUP1 CALLDATASIZE SUB DUP2 ADD SWAP1 PUSH2 0x1BB SWAP2 SWAP1 PUSH2 0x20DF JUMP JUMPDEST PUSH2 0xCA5 JUMP JUMPDEST PUSH1 0x40 MLOAD PUSH2 0x1CF SWAP4 SWAP3 SWAP2 SWAP1 PUSH2 0x2277 JUMP JUMPDEST PUSH1 0x40 MLOAD DUP1 SWAP2 SUB SWAP1 RETURN JUMPDEST PUSH2 0x1E0 PUSH2 0xE81 JUMP JUMPDEST PUSH1 0x40 MLOAD PUSH2 0x1F2 SWAP7 SWAP6 SWAP5 SWAP4 SWAP3 SWAP2 SWAP1 PUSH2 0x22E3 JUMP JUMPDEST PUSH1 0x40 MLOAD DUP1 SWAP2 SUB SWAP1 RETURN JUMPDEST PUSH2 0x203 PUSH2 0x15CC JUMP JUMPDEST PUSH1 0x40 MLOAD PUSH2 0x210 SWAP2 SWAP1 PUSH2 0x21D6 JUMP JUMPDEST PUSH1 0x40 MLOAD DUP1 SWAP2 SUB SWAP1 RETURN JUMPDEST PUSH2 0x233 PUSH1 0x4 DUP1 CALLDATASIZE SUB DUP2 ADD SWAP1 PUSH2 0x22E SWAP2 SWAP1 PUSH2 0x2357 JUMP JUMPDEST PUSH2 0x15D2 JUMP JUMPDEST STOP JUMPDEST PUSH2 0x23D PUSH2 0x184A JUMP JUMPDEST PUSH1 0x40 MLOAD PUSH2 0x24C SWAP4 SWAP3 SWAP2 SWAP1 PUSH2 0x2382 JUMP JUMPDEST PUSH1 0x40 MLOAD DUP1 SWAP2 SUB SWAP1 RETURN JUMPDEST PUSH2 0x25D PUSH2 0x19CE JUMP JUMPDEST PUSH1 0x40 MLOAD PUSH2 0x26A SWAP2 SWAP1 PUSH2 0x2546 JUMP JUMPDEST PUSH1 0x40 MLOAD DUP1 SWAP2 SUB SWAP1 RETURN JUMPDEST PUSH2 0x28D PUSH1 0x4 DUP1 CALLDATASIZE SUB DUP2 ADD SWAP1 PUSH2 0x288 SWAP2 SWAP1 PUSH2 0x2566 JUMP JUMPDEST PUSH2 0x1BA8 JUMP JUMPDEST STOP JUMPDEST CALLER PUSH20 0xFFFFFFFFFFFFFFFFFFFFFFFFFFFFFFFFFFFFFFFF AND PUSH0 DUP1 SLOAD SWAP1 PUSH2 0x100 EXP SWAP1 DIV PUSH20 0xFFFFFFFFFFFFFFFFFFFFFFFFFFFFFFFFFFFFFFFF AND PUSH20 0xFFFFFFFFFFFFFFFFFFFFFFFFFFFFFFFFFFFFFFFF AND EQ PUSH2 0x31C JUMPI PUSH1 0x40 MLOAD PUSH32 0x8C379A000000000000000000000000000000000000000000000000000000000 DUP2 MSTORE PUSH1 0x4 ADD PUSH2 0x313 SWAP1 PUSH2 0x2614 JUMP JUMPDEST PUSH1 0x40 MLOAD DUP1 SWAP2 SUB SWAP1 REVERT JUMPDEST PUSH0 PUSH1 0x14 SWAP1 SLOAD SWAP1 PUSH2 0x100 EXP SWAP1 DIV PUSH1 0xFF AND ISZERO PUSH2 0x36B JUMPI PUSH1 0x40 MLOAD PUSH32 0x8C379A000000000000000000000000000000000000000000000000000000000 DUP2 MSTORE PUSH1 0x4 ADD PUSH2 0x362 SWAP1 PUSH2 0x26A2 JUMP JUMPDEST PUSH1 0x40 MLOAD DUP1 SWAP2 SUB SWAP1 REVERT JUMPDEST PUSH1 0x6 PUSH0 DUP3 PUSH20 0xFFFFFFFFFFFFFFFFFFFFFFFFFFFFFFFFFFFFFFFF AND PUSH20 0xFFFFFFFFFFFFFFFFFFFFFFFFFFFFFFFFFFFFFFFF AND DUP2 MSTORE PUSH1 0x20 ADD SWAP1 DUP2 MSTORE PUSH1 0x20 ADD PUSH0 KECCAK256 PUSH0 SWAP1 SLOAD SWAP1 PUSH2 0x100 EXP SWAP1 DIV PUSH1 0xFF AND ISZERO PUSH2 0x3F5 JUMPI PUSH1 0x40 MLOAD PUSH32 0x8C379A000000000000000000000000000000000000000000000000000000000 DUP2 MSTORE PUSH1 0x4 ADD PUSH2 0x3EC SWAP1 PUSH2 0x270A JUMP JUMPDEST PUSH1 0x40 MLOAD DUP1 SWAP2 SUB SWAP1 REVERT JUMPDEST PUSH1 0x40 MLOAD DUP1 PUSH1 0x80 ADD PUSH1 0x40 MSTORE DUP1 DUP5 DUP2 MSTORE PUSH1 0x20 ADD DUP4 DUP2 MSTORE PUSH1 0x20 ADD PUSH0 DUP2 MSTORE PUSH1 0x20 ADD DUP3 PUSH20 0xFFFFFFFFFFFFFFFFFFFFFFFFFFFFFFFFFFFFFFFF AND DUP2 MSTORE POP PUSH1 0x7 PUSH0 PUSH1 0x1 SLOAD DUP2 MSTORE PUSH1 0x20 ADD SWAP1 DUP2 MSTORE PUSH1 0x20 ADD PUSH0 KECCAK256 PUSH0 DUP3 ADD MLOAD DUP2 PUSH0 ADD SWAP1 DUP2 PUSH2 0x452 SWAP2 SWAP1 PUSH2 0x2922 JUMP JUMPDEST POP PUSH1 0x20 DUP3 ADD MLOAD DUP2 PUSH1 0x1 ADD SWAP1 DUP2 PUSH2 0x468 SWAP2 SWAP1 PUSH2 0x2922 JUMP JUMPDEST POP PUSH1 0x40 DUP3 ADD MLOAD DUP2 PUSH1 0x2 ADD SSTORE PUSH1 0x60 DUP3 ADD MLOAD DUP2 PUSH1 0x3 ADD PUSH0 PUSH2 0x100 EXP DUP2 SLOAD DUP2 PUSH20 0xFFFFFFFFFFFFFFFFFFFFFFFFFFFFFFFFFFFFFFFF MUL NOT AND SWAP1 DUP4 PUSH20 0xFFFFFFFFFFFFFFFFFFFFFFFFFFFFFFFFFFFFFFFF AND MUL OR SWAP1 SSTORE POP SWAP1 POP POP PUSH1 0x5 PUSH1 0x7 PUSH0 PUSH1 0x1 SLOAD DUP2 MSTORE PUSH1 0x20 ADD SWAP1 DUP2 MSTORE PUSH1 0x20 ADD PUSH0 KECCAK256 SWAP1 DUP1 PUSH1 0x1 DUP2 SLOAD ADD DUP1 DUP3 SSTORE DUP1 SWAP2 POP POP PUSH1 0x1 SWAP1 SUB SWAP1 PUSH0 MSTORE PUSH1 0x20 PUSH0 KECCAK256 SWAP1 PUSH1 0x4 MUL ADD PUSH0 SWAP1 SWAP2 SWAP1 SWAP2 SWAP1 SWAP2 POP PUSH0 DUP3 ADD DUP2 PUSH0 ADD SWAP1 DUP2 PUSH2 0x509 SWAP2 SWAP1 PUSH2 0x2A06 JUMP JUMPDEST POP PUSH1 0x1 DUP3 ADD DUP2 PUSH1 0x1 ADD SWAP1 DUP2 PUSH2 0x51E SWAP2 SWAP1 PUSH2 0x2A06 JUMP JUMPDEST POP PUSH1 0x2 DUP3 ADD SLOAD DUP2 PUSH1 0x2 ADD SSTORE PUSH1 0x3 DUP3 ADD PUSH0 SWAP1 SLOAD SWAP1 PUSH2 0x100 EXP SWAP1 DIV PUSH20 0xFFFFFFFFFFFFFFFFFFFFFFFFFFFFFFFFFFFFFFFF AND DUP2 PUSH1 0x3 ADD PUSH0 PUSH2 0x100 EXP DUP2 SLOAD DUP2 PUSH20 0xFFFFFFFFFFFFFFFFFFFFFFFFFFFFFFFFFFFFFFFF MUL NOT AND SWAP1 DUP4 PUSH20 0xFFFFFFFFFFFFFFFFFFFFFFFFFFFFFFFFFFFFFFFF AND MUL OR SWAP1 SSTORE POP POP POP PUSH1 0x1 DUP1 PUSH0 DUP3 DUP3 SLOAD PUSH2 0x5A1 SWAP2 SWAP1 PUSH2 0x2B18 JUMP JUMPDEST SWAP3 POP POP DUP2 SWAP1 SSTORE POP PUSH1 0x1 PUSH1 0x6 PUSH0 DUP4 PUSH20 0xFFFFFFFFFFFFFFFFFFFFFFFFFFFFFFFFFFFFFFFF AND PUSH20 0xFFFFFFFFFFFFFFFFFFFFFFFFFFFFFFFFFFFFFFFF AND DUP2 MSTORE PUSH1 0x20 ADD SWAP1 DUP2 MSTORE PUSH1 0x20 ADD PUSH0 KECCAK256 PUSH0 PUSH2 0x100 EXP DUP2 SLOAD DUP2 PUSH1 0xFF MUL NOT AND SWAP1 DUP4 ISZERO ISZERO MUL OR SWAP1 SSTORE POP PUSH1 0x1 PUSH1 0x2 PUSH0 DUP3 DUP3 SLOAD PUSH2 0x60F SWAP2 SWAP1 PUSH2 0x2B18 JUMP JUMPDEST SWAP3 POP POP DUP2 SWAP1 SSTORE POP POP POP POP JUMP JUMPDEST CALLER PUSH20 0xFFFFFFFFFFFFFFFFFFFFFFFFFFFFFFFFFFFFFFFF AND PUSH0 DUP1 SLOAD SWAP1 PUSH2 0x100 EXP SWAP1 DIV PUSH20 0xFFFFFFFFFFFFFFFFFFFFFFFFFFFFFFFFFFFFFFFF AND PUSH20 0xFFFFFFFFFFFFFFFFFFFFFFFFFFFFFFFFFFFFFFFF AND EQ PUSH2 0x6A8 JUMPI PUSH1 0x40 MLOAD PUSH32 0x8C379A000000000000000000000000000000000000000000000000000000000 DUP2 MSTORE PUSH1 0x4 ADD PUSH2 0x69F SWAP1 PUSH2 0x2614 JUMP JUMPDEST PUSH1 0x40 MLOAD DUP1 SWAP2 SUB SWAP1 REVERT JUMPDEST PUSH0 PUSH1 0x14 SWAP1 SLOAD SWAP1 PUSH2 0x100 EXP SWAP1 DIV PUSH1 0xFF AND PUSH2 0x6F6 JUMPI PUSH1 0x40 MLOAD PUSH32 0x8C379A000000000000000000000000000000000000000000000000000000000 DUP2 MSTORE PUSH1 0x4 ADD PUSH2 0x6ED SWAP1 PUSH2 0x2B95 JUMP JUMPDEST PUSH1 0x40 MLOAD DUP1 SWAP2 SUB SWAP1 REVERT JUMPDEST PUSH1 0x1 PUSH0 PUSH1 0x15 PUSH2 0x100 EXP DUP2 SLOAD DUP2 PUSH1 0xFF MUL NOT AND SWAP1 DUP4 ISZERO ISZERO MUL OR SWAP1 SSTORE POP PUSH0 DUP1 PUSH1 0x14 PUSH2 0x100 EXP DUP2 SLOAD DUP2 PUSH1 0xFF MUL NOT AND SWAP1 DUP4 ISZERO ISZERO MUL OR SWAP1 SSTORE POP JUMP JUMPDEST PUSH0 PUSH1 0x60 DUP1 DUP4 PUSH1 0x5 DUP6 DUP2 SLOAD DUP2 LT PUSH2 0x744 JUMPI PUSH2 0x743 PUSH2 0x2BB3 JUMP JUMPDEST JUMPDEST SWAP1 PUSH0 MSTORE PUSH1 0x20 PUSH0 KECCAK256 SWAP1 PUSH1 0x4 MUL ADD PUSH0 ADD PUSH1 0x5 DUP7 DUP2 SLOAD DUP2 LT PUSH2 0x766 JUMPI PUSH2 0x765 PUSH2 0x2BB3 JUMP JUMPDEST JUMPDEST SWAP1 PUSH0 MSTORE PUSH1 0x20 PUSH0 KECCAK256 SWAP1 PUSH1 0x4 MUL ADD PUSH1 0x1 ADD DUP2 DUP1 SLOAD PUSH2 0x781 SWAP1 PUSH2 0x2755 JUMP JUMPDEST DUP1 PUSH1 0x1F ADD PUSH1 0x20 DUP1 SWAP2 DIV MUL PUSH1 0x20 ADD PUSH1 0x40 MLOAD SWAP1 DUP2 ADD PUSH1 0x40 MSTORE DUP1 SWAP3 SWAP2 SWAP1 DUP2 DUP2 MSTORE PUSH1 0x20 ADD DUP3 DUP1 SLOAD PUSH2 0x7AD SWAP1 PUSH2 0x2755 JUMP JUMPDEST DUP1 ISZERO PUSH2 0x7F8 JUMPI DUP1 PUSH1 0x1F LT PUSH2 0x7CF JUMPI PUSH2 0x100 DUP1 DUP4 SLOAD DIV MUL DUP4 MSTORE SWAP2 PUSH1 0x20 ADD SWAP2 PUSH2 0x7F8 JUMP JUMPDEST DUP3 ADD SWAP2 SWAP1 PUSH0 MSTORE PUSH1 0x20 PUSH0 KECCAK256 SWAP1 JUMPDEST DUP2 SLOAD DUP2 MSTORE SWAP1 PUSH1 0x1 ADD SWAP1 PUSH1 0x20 ADD DUP1 DUP4 GT PUSH2 0x7DB JUMPI DUP3 SWAP1 SUB PUSH1 0x1F AND DUP3 ADD SWAP2 JUMPDEST POP POP POP POP POP SWAP2 POP DUP1 DUP1 SLOAD PUSH2 0x80B SWAP1 PUSH2 0x2755 JUMP JUMPDEST DUP1 PUSH1 0x1F ADD PUSH1 0x20 DUP1 SWAP2 DIV MUL PUSH1 0x20 ADD PUSH1 0x40 MLOAD SWAP1 DUP2 ADD PUSH1 0x40 MSTORE DUP1 SWAP3 SWAP2 SWAP1 DUP2 DUP2 MSTORE PUSH1 0x20 ADD DUP3 DUP1 SLOAD PUSH2 0x837 SWAP1 PUSH2 0x2755 JUMP JUMPDEST DUP1 ISZERO PUSH2 0x882 JUMPI DUP1 PUSH1 0x1F LT PUSH2 0x859 JUMPI PUSH2 0x100 DUP1 DUP4 SLOAD DIV MUL DUP4 MSTORE SWAP2 PUSH1 0x20 ADD SWAP2 PUSH2 0x882 JUMP JUMPDEST DUP3 ADD SWAP2 SWAP1 PUSH0 MSTORE PUSH1 0x20 PUSH0 KECCAK256 SWAP1 JUMPDEST DUP2 SLOAD DUP2 MSTORE SWAP1 PUSH1 0x1 ADD SWAP1 PUSH1 0x20 ADD DUP1 DUP4 GT PUSH2 0x865 JUMPI DUP3 SWAP1 SUB PUSH1 0x1F AND DUP3 ADD SWAP2 JUMPDEST POP POP POP POP POP SWAP1 POP SWAP3 POP SWAP3 POP SWAP3 POP SWAP2 SWAP4 SWAP1 SWAP3 POP JUMP JUMPDEST PUSH1 0x3 SLOAD DUP2 JUMP JUMPDEST CALLER PUSH20 0xFFFFFFFFFFFFFFFFFFFFFFFFFFFFFFFFFFFFFFFF AND PUSH0 DUP1 SLOAD SWAP1 PUSH2 0x100 EXP SWAP1 DIV PUSH20 0xFFFFFFFFFFFFFFFFFFFFFFFFFFFFFFFFFFFFFFFF AND PUSH20 0xFFFFFFFFFFFFFFFFFFFFFFFFFFFFFFFFFFFFFFFF AND EQ PUSH2 0x929 JUMPI PUSH1 0x40 MLOAD PUSH32 0x8C379A000000000000000000000000000000000000000000000000000000000 DUP2 MSTORE PUSH1 0x4 ADD PUSH2 0x920 SWAP1 PUSH2 0x2614 JUMP JUMPDEST PUSH1 0x40 MLOAD DUP1 SWAP2 SUB SWAP1 REVERT JUMPDEST PUSH1 0x9 DUP2 PUSH1 0x40 MLOAD PUSH2 0x939 SWAP2 SWAP1 PUSH2 0x2C1A JUMP JUMPDEST SWAP1 DUP2 MSTORE PUSH1 0x20 ADD PUSH1 0x40 MLOAD DUP1 SWAP2 SUB SWAP1 KECCAK256 PUSH0 SWAP1 SLOAD SWAP1 PUSH2 0x100 EXP SWAP1 DIV PUSH1 0xFF AND ISZERO PUSH2 0x994 JUMPI PUSH1 0x40 MLOAD PUSH32 0x8C379A000000000000000000000000000000000000000000000000000000000 DUP2 MSTORE PUSH1 0x4 ADD PUSH2 0x98B SWAP1 PUSH2 0x2CA0 JUMP JUMPDEST PUSH1 0x40 MLOAD DUP1 SWAP2 SUB SWAP1 REVERT JUMPDEST PUSH0 PUSH1 0x8 PUSH0 DUP6 PUSH20 0xFFFFFFFFFFFFFFFFFFFFFFFFFFFFFFFFFFFFFFFF AND PUSH20 0xFFFFFFFFFFFFFFFFFFFFFFFFFFFFFFFFFFFFFFFF AND DUP2 MSTORE PUSH1 0x20 ADD SWAP1 DUP2 MSTORE PUSH1 0x20 ADD PUSH0 KECCAK256 PUSH0 ADD DUP1 SLOAD PUSH2 0x9DF SWAP1 PUSH2 0x2755 JUMP JUMPDEST SWAP1 POP GT ISZERO PUSH2 0xA22 JUMPI PUSH1 0x40 MLOAD PUSH32 0x8C379A000000000000000000000000000000000000000000000000000000000 DUP2 MSTORE PUSH1 0x4 ADD PUSH2 0xA19 SWAP1 PUSH2 0x2D08 JUMP JUMPDEST PUSH1 0x40 MLOAD DUP1 SWAP2 SUB SWAP1 REVERT JUMPDEST PUSH0 PUSH1 0x14 SWAP1 SLOAD SWAP1 PUSH2 0x100 EXP SWAP1 DIV PUSH1 0xFF AND ISZERO PUSH2 0xA71 JUMPI PUSH1 0x40 MLOAD PUSH32 0x8C379A000000000000000000000000000000000000000000000000000000000 DUP2 MSTORE PUSH1 0x4 ADD PUSH2 0xA68 SWAP1 PUSH2 0x2D96 JUMP JUMPDEST PUSH1 0x40 MLOAD DUP1 SWAP2 SUB SWAP1 REVERT JUMPDEST PUSH1 0x40 MLOAD DUP1 PUSH1 0xA0 ADD PUSH1 0x40 MSTORE DUP1 DUP4 DUP2 MSTORE PUSH1 0x20 ADD DUP3 DUP2 MSTORE PUSH1 0x20 ADD PUSH0 ISZERO ISZERO DUP2 MSTORE PUSH1 0x20 ADD PUSH0 ISZERO ISZERO DUP2 MSTORE PUSH1 0x20 ADD PUSH0 PUSH20 0xFFFFFFFFFFFFFFFFFFFFFFFFFFFFFFFFFFFFFFFF AND DUP2 MSTORE POP PUSH1 0x8 PUSH0 DUP6 PUSH20 0xFFFFFFFFFFFFFFFFFFFFFFFFFFFFFFFFFFFFFFFF AND PUSH20 0xFFFFFFFFFFFFFFFFFFFFFFFFFFFFFFFFFFFFFFFF AND DUP2 MSTORE PUSH1 0x20 ADD SWAP1 DUP2 MSTORE PUSH1 0x20 ADD PUSH0 KECCAK256 PUSH0 DUP3 ADD MLOAD DUP2 PUSH0 ADD SWAP1 DUP2 PUSH2 0xB02 SWAP2 SWAP1 PUSH2 0x2922 JUMP JUMPDEST POP PUSH1 0x20 DUP3 ADD MLOAD DUP2 PUSH1 0x1 ADD SWAP1 DUP2 PUSH2 0xB18 SWAP2 SWAP1 PUSH2 0x2922 JUMP JUMPDEST POP PUSH1 0x40 DUP3 ADD MLOAD DUP2 PUSH1 0x2 ADD PUSH0 PUSH2 0x100 EXP DUP2 SLOAD DUP2 PUSH1 0xFF MUL NOT AND SWAP1 DUP4 ISZERO ISZERO MUL OR SWAP1 SSTORE POP PUSH1 0x60 DUP3 ADD MLOAD DUP2 PUSH1 0x2 ADD PUSH1 0x1 PUSH2 0x100 EXP DUP2 SLOAD DUP2 PUSH1 0xFF MUL NOT AND SWAP1 DUP4 ISZERO ISZERO MUL OR SWAP1 SSTORE POP PUSH1 0x80 DUP3 ADD MLOAD DUP2 PUSH1 0x2 ADD PUSH1 0x2 PUSH2 0x100 EXP DUP2 SLOAD DUP2 PUSH20 0xFFFFFFFFFFFFFFFFFFFFFFFFFFFFFFFFFFFFFFFF MUL NOT AND SWAP1 DUP4 PUSH20 0xFFFFFFFFFFFFFFFFFFFFFFFFFFFFFFFFFFFFFFFF AND MUL OR SWAP1 SSTORE POP SWAP1 POP POP PUSH1 0x1 PUSH1 0x9 DUP3 PUSH1 0x40 MLOAD PUSH2 0xBB4 SWAP2 SWAP1 PUSH2 0x2C1A JUMP JUMPDEST SWAP1 DUP2 MSTORE PUSH1 0x20 ADD PUSH1 0x40 MLOAD DUP1 SWAP2 SUB SWAP1 KECCAK256 PUSH0 PUSH2 0x100 EXP DUP2 SLOAD DUP2 PUSH1 0xFF MUL NOT AND SWAP1 DUP4 ISZERO ISZERO MUL OR SWAP1 SSTORE POP PUSH1 0x1 PUSH1 0x3 PUSH0 DUP3 DUP3 SLOAD PUSH2 0xBEA SWAP2 SWAP1 PUSH2 0x2B18 JUMP JUMPDEST SWAP3 POP POP DUP2 SWAP1 SSTORE POP POP POP POP JUMP JUMPDEST CALLER PUSH20 0xFFFFFFFFFFFFFFFFFFFFFFFFFFFFFFFFFFFFFFFF AND PUSH0 DUP1 SLOAD SWAP1 PUSH2 0x100 EXP SWAP1 DIV PUSH20 0xFFFFFFFFFFFFFFFFFFFFFFFFFFFFFFFFFFFFFFFF AND PUSH20 0xFFFFFFFFFFFFFFFFFFFFFFFFFFFFFFFFFFFFFFFF AND EQ PUSH2 0xC83 JUMPI PUSH1 0x40 MLOAD PUSH32 0x8C379A000000000000000000000000000000000000000000000000000000000 DUP2 MSTORE PUSH1 0x4 ADD PUSH2 0xC7A SWAP1 PUSH2 0x2614 JUMP JUMPDEST PUSH1 0x40 MLOAD DUP1 SWAP2 SUB SWAP1 REVERT JUMPDEST PUSH1 0x1 PUSH0 PUSH1 0x14 PUSH2 0x100 EXP DUP2 SLOAD DUP2 PUSH1 0xFF MUL NOT AND SWAP1 DUP4 ISZERO ISZERO MUL OR SWAP1 SSTORE POP JUMP JUMPDEST PUSH1 0x4 SLOAD DUP2 JUMP JUMPDEST PUSH1 0x60 DUP1 PUSH0 DUP1 PUSH1 0x15 SWAP1 SLOAD SWAP1 PUSH2 0x100 EXP SWAP1 DIV PUSH1 0xFF AND PUSH2 0xCF7 JUMPI PUSH1 0x40 MLOAD PUSH32 0x8C379A000000000000000000000000000000000000000000000000000000000 DUP2 MSTORE PUSH1 0x4 ADD PUSH2 0xCEE SWAP1 PUSH2 0x2DFE JUMP JUMPDEST PUSH1 0x40 MLOAD DUP1 SWAP2 SUB SWAP1 REVERT JUMPDEST PUSH1 0x5 DUP5 DUP2 SLOAD DUP2 LT PUSH2 0xD0B JUMPI PUSH2 0xD0A PUSH2 0x2BB3 JUMP JUMPDEST JUMPDEST SWAP1 PUSH0 MSTORE PUSH1 0x20 PUSH0 KECCAK256 SWAP1 PUSH1 0x4 MUL ADD PUSH0 ADD PUSH1 0x5 DUP6 DUP2 SLOAD DUP2 LT PUSH2 0xD2D JUMPI PUSH2 0xD2C PUSH2 0x2BB3 JUMP JUMPDEST JUMPDEST SWAP1 PUSH0 MSTORE PUSH1 0x20 PUSH0 KECCAK256 SWAP1 PUSH1 0x4 MUL ADD PUSH1 0x1 ADD PUSH1 0x5 DUP7 DUP2 SLOAD DUP2 LT PUSH2 0xD50 JUMPI PUSH2 0xD4F PUSH2 0x2BB3 JUMP JUMPDEST JUMPDEST SWAP1 PUSH0 MSTORE PUSH1 0x20 PUSH0 KECCAK256 SWAP1 PUSH1 0x4 MUL ADD PUSH1 0x2 ADD SLOAD DUP3 DUP1 SLOAD PUSH2 0xD6C SWAP1 PUSH2 0x2755 JUMP JUMPDEST DUP1 PUSH1 0x1F ADD PUSH1 0x20 DUP1 SWAP2 DIV MUL PUSH1 0x20 ADD PUSH1 0x40 MLOAD SWAP1 DUP2 ADD PUSH1 0x40 MSTORE DUP1 SWAP3 SWAP2 SWAP1 DUP2 DUP2 MSTORE PUSH1 0x20 ADD DUP3 DUP1 SLOAD PUSH2 0xD98 SWAP1 PUSH2 0x2755 JUMP JUMPDEST DUP1 ISZERO PUSH2 0xDE3 JUMPI DUP1 PUSH1 0x1F LT PUSH2 0xDBA JUMPI PUSH2 0x100 DUP1 DUP4 SLOAD DIV MUL DUP4 MSTORE SWAP2 PUSH1 0x20 ADD SWAP2 PUSH2 0xDE3 JUMP JUMPDEST DUP3 ADD SWAP2 SWAP1 PUSH0 MSTORE PUSH1 0x20 PUSH0 KECCAK256 SWAP1 JUMPDEST DUP2 SLOAD DUP2 MSTORE SWAP1 PUSH1 0x1 ADD SWAP1 PUSH1 0x20 ADD DUP1 DUP4 GT PUSH2 0xDC6 JUMPI DUP3 SWAP1 SUB PUSH1 0x1F AND DUP3 ADD SWAP2 JUMPDEST POP POP POP POP POP SWAP3 POP DUP2 DUP1 SLOAD PUSH2 0xDF6 SWAP1 PUSH2 0x2755 JUMP JUMPDEST DUP1 PUSH1 0x1F ADD PUSH1 0x20 DUP1 SWAP2 DIV MUL PUSH1 0x20 ADD PUSH1 0x40 MLOAD SWAP1 DUP2 ADD PUSH1 0x40 MSTORE DUP1 SWAP3 SWAP2 SWAP1 DUP2 DUP2 MSTORE PUSH1 0x20 ADD DUP3 DUP1 SLOAD PUSH2 0xE22 SWAP1 PUSH2 0x2755 JUMP JUMPDEST DUP1 ISZERO PUSH2 0xE6D JUMPI DUP1 PUSH1 0x1F LT PUSH2 0xE44 JUMPI PUSH2 0x100 DUP1 DUP4 SLOAD DIV MUL DUP4 MSTORE SWAP2 PUSH1 0x20 ADD SWAP2 PUSH2 0xE6D JUMP JUMPDEST DUP3 ADD SWAP2 SWAP1 PUSH0 MSTORE PUSH1 0x20 PUSH0 KECCAK256 SWAP1 JUMPDEST DUP2 SLOAD DUP2 MSTORE SWAP1 PUSH1 0x1 ADD SWAP1 PUSH1 0x20 ADD DUP1 DUP4 GT PUSH2 0xE50 JUMPI DUP3 SWAP1 SUB PUSH1 0x1F AND DUP3 ADD SWAP2 JUMPDEST POP POP POP POP POP SWAP2 POP SWAP3 POP SWAP3 POP SWAP3 POP SWAP2 SWAP4 SWAP1 SWAP3 POP JUMP JUMPDEST PUSH1 0x60 DUP1 PUSH0 DUP1 PUSH0 PUSH1 0x60 PUSH0 PUSH1 0x8 PUSH0 CALLER PUSH20 0xFFFFFFFFFFFFFFFFFFFFFFFFFFFFFFFFFFFFFFFF AND PUSH20 0xFFFFFFFFFFFFFFFFFFFFFFFFFFFFFFFFFFFFFFFF AND DUP2 MSTORE PUSH1 0x20 ADD SWAP1 DUP2 MSTORE PUSH1 0x20 ADD PUSH0 KECCAK256 PUSH0 ADD DUP1 SLOAD PUSH2 0xED4 SWAP1 PUSH2 0x2755 JUMP JUMPDEST SWAP1 POP GT PUSH2 0xF16 JUMPI PUSH1 0x40 MLOAD PUSH32 0x8C379A000000000000000000000000000000000000000000000000000000000 DUP2 MSTORE PUSH1 0x4 ADD PUSH2 0xF0D SWAP1 PUSH2 0x2E66 JUMP JUMPDEST PUSH1 0x40 MLOAD DUP1 SWAP2 SUB SWAP1 REVERT JUMPDEST PUSH1 0x8 PUSH0 CALLER PUSH20 0xFFFFFFFFFFFFFFFFFFFFFFFFFFFFFFFFFFFFFFFF AND PUSH20 0xFFFFFFFFFFFFFFFFFFFFFFFFFFFFFFFFFFFFFFFF AND DUP2 MSTORE PUSH1 0x20 ADD SWAP1 DUP2 MSTORE PUSH1 0x20 ADD PUSH0 KECCAK256 PUSH1 0x2 ADD PUSH1 0x1 SWAP1 SLOAD SWAP1 PUSH2 0x100 EXP SWAP1 DIV PUSH1 0xFF AND ISZERO PUSH2 0x12F2 JUMPI PUSH1 0x8 PUSH0 CALLER PUSH20 0xFFFFFFFFFFFFFFFFFFFFFFFFFFFFFFFFFFFFFFFF AND PUSH20 0xFFFFFFFFFFFFFFFFFFFFFFFFFFFFFFFFFFFFFFFF AND DUP2 MSTORE PUSH1 0x20 ADD SWAP1 DUP2 MSTORE PUSH1 0x20 ADD PUSH0 KECCAK256 PUSH0 ADD PUSH1 0x8 PUSH0 CALLER PUSH20 0xFFFFFFFFFFFFFFFFFFFFFFFFFFFFFFFFFFFFFFFF AND PUSH20 0xFFFFFFFFFFFFFFFFFFFFFFFFFFFFFFFFFFFFFFFF AND DUP2 MSTORE PUSH1 0x20 ADD SWAP1 DUP2 MSTORE PUSH1 0x20 ADD PUSH0 KECCAK256 PUSH1 0x1 ADD PUSH1 0x8 PUSH0 CALLER PUSH20 0xFFFFFFFFFFFFFFFFFFFFFFFFFFFFFFFFFFFFFFFF AND PUSH20 0xFFFFFFFFFFFFFFFFFFFFFFFFFFFFFFFFFFFFFFFF AND DUP2 MSTORE PUSH1 0x20 ADD SWAP1 DUP2 MSTORE PUSH1 0x20 ADD PUSH0 KECCAK256 PUSH1 0x2 ADD PUSH0 SWAP1 SLOAD SWAP1 PUSH2 0x100 EXP SWAP1 DIV PUSH1 0xFF AND PUSH1 0x8 PUSH0 CALLER PUSH20 0xFFFFFFFFFFFFFFFFFFFFFFFFFFFFFFFFFFFFFFFF AND PUSH20 0xFFFFFFFFFFFFFFFFFFFFFFFFFFFFFFFFFFFFFFFF AND DUP2 MSTORE PUSH1 0x20 ADD SWAP1 DUP2 MSTORE PUSH1 0x20 ADD PUSH0 KECCAK256 PUSH1 0x2 ADD PUSH1 0x1 SWAP1 SLOAD SWAP1 PUSH2 0x100 EXP SWAP1 DIV PUSH1 0xFF AND PUSH1 0x8 PUSH0 CALLER PUSH20 0xFFFFFFFFFFFFFFFFFFFFFFFFFFFFFFFFFFFFFFFF AND PUSH20 0xFFFFFFFFFFFFFFFFFFFFFFFFFFFFFFFFFFFFFFFF AND DUP2 MSTORE PUSH1 0x20 ADD SWAP1 DUP2 MSTORE PUSH1 0x20 ADD PUSH0 KECCAK256 PUSH1 0x2 ADD PUSH1 0x2 SWAP1 SLOAD SWAP1 PUSH2 0x100 EXP SWAP1 DIV PUSH20 0xFFFFFFFFFFFFFFFFFFFFFFFFFFFFFFFFFFFFFFFF AND PUSH1 0x5 PUSH1 0xA PUSH0 CALLER PUSH20 0xFFFFFFFFFFFFFFFFFFFFFFFFFFFFFFFFFFFFFFFF AND PUSH20 0xFFFFFFFFFFFFFFFFFFFFFFFFFFFFFFFFFFFFFFFF AND DUP2 MSTORE PUSH1 0x20 ADD SWAP1 DUP2 MSTORE PUSH1 0x20 ADD PUSH0 KECCAK256 SLOAD DUP2 SLOAD DUP2 LT PUSH2 0x1135 JUMPI PUSH2 0x1134 PUSH2 0x2BB3 JUMP JUMPDEST JUMPDEST SWAP1 PUSH0 MSTORE PUSH1 0x20 PUSH0 KECCAK256 SWAP1 PUSH1 0x4 MUL ADD PUSH0 ADD DUP6 DUP1 SLOAD PUSH2 0x114F SWAP1 PUSH2 0x2755 JUMP JUMPDEST DUP1 PUSH1 0x1F ADD PUSH1 0x20 DUP1 SWAP2 DIV MUL PUSH1 0x20 ADD PUSH1 0x40 MLOAD SWAP1 DUP2 ADD PUSH1 0x40 MSTORE DUP1 SWAP3 SWAP2 SWAP1 DUP2 DUP2 MSTORE PUSH1 0x20 ADD DUP3 DUP1 SLOAD PUSH2 0x117B SWAP1 PUSH2 0x2755 JUMP JUMPDEST DUP1 ISZERO PUSH2 0x11C6 JUMPI DUP1 PUSH1 0x1F LT PUSH2 0x119D JUMPI PUSH2 0x100 DUP1 DUP4 SLOAD DIV MUL DUP4 MSTORE SWAP2 PUSH1 0x20 ADD SWAP2 PUSH2 0x11C6 JUMP JUMPDEST DUP3 ADD SWAP2 SWAP1 PUSH0 MSTORE PUSH1 0x20 PUSH0 KECCAK256 SWAP1 JUMPDEST DUP2 SLOAD DUP2 MSTORE SWAP1 PUSH1 0x1 ADD SWAP1 PUSH1 0x20 ADD DUP1 DUP4 GT PUSH2 0x11A9 JUMPI DUP3 SWAP1 SUB PUSH1 0x1F AND DUP3 ADD SWAP2 JUMPDEST POP POP POP POP POP SWAP6 POP DUP5 DUP1 SLOAD PUSH2 0x11D9 SWAP1 PUSH2 0x2755 JUMP JUMPDEST DUP1 PUSH1 0x1F ADD PUSH1 0x20 DUP1 SWAP2 DIV MUL PUSH1 0x20 ADD PUSH1 0x40 MLOAD SWAP1 DUP2 ADD PUSH1 0x40 MSTORE DUP1 SWAP3 SWAP2 SWAP1 DUP2 DUP2 MSTORE PUSH1 0x20 ADD DUP3 DUP1 SLOAD PUSH2 0x1205 SWAP1 PUSH2 0x2755 JUMP JUMPDEST DUP1 ISZERO PUSH2 0x1250 JUMPI DUP1 PUSH1 0x1F LT PUSH2 0x1227 JUMPI PUSH2 0x100 DUP1 DUP4 SLOAD DIV MUL DUP4 MSTORE SWAP2 PUSH1 0x20 ADD SWAP2 PUSH2 0x1250 JUMP JUMPDEST DUP3 ADD SWAP2 SWAP1 PUSH0 MSTORE PUSH1 0x20 PUSH0 KECCAK256 SWAP1 JUMPDEST DUP2 SLOAD DUP2 MSTORE SWAP1 PUSH1 0x1 ADD SWAP1 PUSH1 0x20 ADD DUP1 DUP4 GT PUSH2 0x1233 JUMPI DUP3 SWAP1 SUB PUSH1 0x1F AND DUP3 ADD SWAP2 JUMPDEST POP POP POP POP POP SWAP5 POP DUP1 DUP1 SLOAD PUSH2 0x1263 SWAP1 PUSH2 0x2755 JUMP JUMPDEST DUP1 PUSH1 0x1F ADD PUSH1 0x20 DUP1 SWAP2 DIV MUL PUSH1 0x20 ADD PUSH1 0x40 MLOAD SWAP1 DUP2 ADD PUSH1 0x40 MSTORE DUP1 SWAP3 SWAP2 SWAP1 DUP2 DUP2 MSTORE PUSH1 0x20 ADD DUP3 DUP1 SLOAD PUSH2 0x128F SWAP1 PUSH2 0x2755 JUMP JUMPDEST DUP1 ISZERO PUSH2 0x12DA JUMPI DUP1 PUSH1 0x1F LT PUSH2 0x12B1 JUMPI PUSH2 0x100 DUP1 DUP4 SLOAD DIV MUL DUP4 MSTORE SWAP2 PUSH1 0x20 ADD SWAP2 PUSH2 0x12DA JUMP JUMPDEST DUP3 ADD SWAP2 SWAP1 PUSH0 MSTORE PUSH1 0x20 PUSH0 KECCAK256 SWAP1 JUMPDEST DUP2 SLOAD DUP2 MSTORE SWAP1 PUSH1 0x1 ADD SWAP1 PUSH1 0x20 ADD DUP1 DUP4 GT PUSH2 0x12BD JUMPI DUP3 SWAP1 SUB PUSH1 0x1F AND DUP3 ADD SWAP2 JUMPDEST POP POP POP POP POP SWAP1 POP SWAP6 POP SWAP6 POP SWAP6 POP SWAP6 POP SWAP6 POP SWAP6 POP PUSH2 0x15C4 JUMP JUMPDEST PUSH1 0x8 PUSH0 CALLER PUSH20 0xFFFFFFFFFFFFFFFFFFFFFFFFFFFFFFFFFFFFFFFF AND PUSH20 0xFFFFFFFFFFFFFFFFFFFFFFFFFFFFFFFFFFFFFFFF AND DUP2 MSTORE PUSH1 0x20 ADD SWAP1 DUP2 MSTORE PUSH1 0x20 ADD PUSH0 KECCAK256 PUSH0 ADD PUSH1 0x8 PUSH0 CALLER PUSH20 0xFFFFFFFFFFFFFFFFFFFFFFFFFFFFFFFFFFFFFFFF AND PUSH20 0xFFFFFFFFFFFFFFFFFFFFFFFFFFFFFFFFFFFFFFFF AND DUP2 MSTORE PUSH1 0x20 ADD SWAP1 DUP2 MSTORE PUSH1 0x20 ADD PUSH0 KECCAK256 PUSH1 0x1 ADD PUSH1 0x8 PUSH0 CALLER PUSH20 0xFFFFFFFFFFFFFFFFFFFFFFFFFFFFFFFFFFFFFFFF AND PUSH20 0xFFFFFFFFFFFFFFFFFFFFFFFFFFFFFFFFFFFFFFFF AND DUP2 MSTORE PUSH1 0x20 ADD SWAP1 DUP2 MSTORE PUSH1 0x20 ADD PUSH0 KECCAK256 PUSH1 0x2 ADD PUSH0 SWAP1 SLOAD SWAP1 PUSH2 0x100 EXP SWAP1 DIV PUSH1 0xFF AND PUSH1 0x8 PUSH0 CALLER PUSH20 0xFFFFFFFFFFFFFFFFFFFFFFFFFFFFFFFFFFFFFFFF AND PUSH20 0xFFFFFFFFFFFFFFFFFFFFFFFFFFFFFFFFFFFFFFFF AND DUP2 MSTORE PUSH1 0x20 ADD SWAP1 DUP2 MSTORE PUSH1 0x20 ADD PUSH0 KECCAK256 PUSH1 0x2 ADD PUSH1 0x1 SWAP1 SLOAD SWAP1 PUSH2 0x100 EXP SWAP1 DIV PUSH1 0xFF AND PUSH1 0x8 PUSH0 CALLER PUSH20 0xFFFFFFFFFFFFFFFFFFFFFFFFFFFFFFFFFFFFFFFF AND PUSH20 0xFFFFFFFFFFFFFFFFFFFFFFFFFFFFFFFFFFFFFFFF AND DUP2 MSTORE PUSH1 0x20 ADD SWAP1 DUP2 MSTORE PUSH1 0x20 ADD PUSH0 KECCAK256 PUSH1 0x2 ADD PUSH1 0x2 SWAP1 SLOAD SWAP1 PUSH2 0x100 EXP SWAP1 DIV PUSH20 0xFFFFFFFFFFFFFFFFFFFFFFFFFFFFFFFFFFFFFFFF AND DUP5 DUP1 SLOAD PUSH2 0x1479 SWAP1 PUSH2 0x2755 JUMP JUMPDEST DUP1 PUSH1 0x1F ADD PUSH1 0x20 DUP1 SWAP2 DIV MUL PUSH1 0x20 ADD PUSH1 0x40 MLOAD SWAP1 DUP2 ADD PUSH1 0x40 MSTORE DUP1 SWAP3 SWAP2 SWAP1 DUP2 DUP2 MSTORE PUSH1 0x20 ADD DUP3 DUP1 SLOAD PUSH2 0x14A5 SWAP1 PUSH2 0x2755 JUMP JUMPDEST DUP1 ISZERO PUSH2 0x14F0 JUMPI DUP1 PUSH1 0x1F LT PUSH2 0x14C7 JUMPI PUSH2 0x100 DUP1 DUP4 SLOAD DIV MUL DUP4 MSTORE SWAP2 PUSH1 0x20 ADD SWAP2 PUSH2 0x14F0 JUMP JUMPDEST DUP3 ADD SWAP2 SWAP1 PUSH0 MSTORE PUSH1 0x20 PUSH0 KECCAK256 SWAP1 JUMPDEST DUP2 SLOAD DUP2 MSTORE SWAP1 PUSH1 0x1 ADD SWAP1 PUSH1 0x20 ADD DUP1 DUP4 GT PUSH2 0x14D3 JUMPI DUP3 SWAP1 SUB PUSH1 0x1F AND DUP3 ADD SWAP2 JUMPDEST POP POP POP POP POP SWAP5 POP DUP4 DUP1 SLOAD PUSH2 0x1503 SWAP1 PUSH2 0x2755 JUMP JUMPDEST DUP1 PUSH1 0x1F ADD PUSH1 0x20 DUP1 SWAP2 DIV MUL PUSH1 0x20 ADD PUSH1 0x40 MLOAD SWAP1 DUP2 ADD PUSH1 0x40 MSTORE DUP1 SWAP3 SWAP2 SWAP1 DUP2 DUP2 MSTORE PUSH1 0x20 ADD DUP3 DUP1 SLOAD PUSH2 0x152F SWAP1 PUSH2 0x2755 JUMP JUMPDEST DUP1 ISZERO PUSH2 0x157A JUMPI DUP1 PUSH1 0x1F LT PUSH2 0x1551 JUMPI PUSH2 0x100 DUP1 DUP4 SLOAD DIV MUL DUP4 MSTORE SWAP2 PUSH1 0x20 ADD SWAP2 PUSH2 0x157A JUMP JUMPDEST DUP3 ADD SWAP2 SWAP1 PUSH0 MSTORE PUSH1 0x20 PUSH0 KECCAK256 SWAP1 JUMPDEST DUP2 SLOAD DUP2 MSTORE SWAP1 PUSH1 0x1 ADD SWAP1 PUSH1 0x20 ADD DUP1 DUP4 GT PUSH2 0x155D JUMPI DUP3 SWAP1 SUB PUSH1 0x1F AND DUP3 ADD SWAP2 JUMPDEST POP POP POP POP POP SWAP4 POP PUSH1 0x40 MLOAD DUP1 PUSH1 0x40 ADD PUSH1 0x40 MSTORE DUP1 PUSH1 0x1 DUP2 MSTORE PUSH1 0x20 ADD PUSH32 0x2000000000000000000000000000000000000000000000000000000000000000 DUP2 MSTORE POP SWAP6 POP SWAP6 POP SWAP6 POP SWAP6 POP SWAP6 POP SWAP6 POP JUMPDEST SWAP1 SWAP2 SWAP3 SWAP4 SWAP5 SWAP6 JUMP JUMPDEST PUSH1 0x2 SLOAD DUP2 JUMP JUMPDEST PUSH0 PUSH1 0x14 SWAP1 SLOAD SWAP1 PUSH2 0x100 EXP SWAP1 DIV PUSH1 0xFF AND PUSH2 0x1620 JUMPI PUSH1 0x40 MLOAD PUSH32 0x8C379A000000000000000000000000000000000000000000000000000000000 DUP2 MSTORE PUSH1 0x4 ADD PUSH2 0x1617 SWAP1 PUSH2 0x2B95 JUMP JUMPDEST PUSH1 0x40 MLOAD DUP1 SWAP2 SUB SWAP1 REVERT JUMPDEST PUSH0 PUSH1 0x8 PUSH0 CALLER PUSH20 0xFFFFFFFFFFFFFFFFFFFFFFFFFFFFFFFFFFFFFFFF AND PUSH20 0xFFFFFFFFFFFFFFFFFFFFFFFFFFFFFFFFFFFFFFFF AND DUP2 MSTORE PUSH1 0x20 ADD SWAP1 DUP2 MSTORE PUSH1 0x20 ADD PUSH0 KECCAK256 PUSH0 ADD DUP1 SLOAD PUSH2 0x166B SWAP1 PUSH2 0x2755 JUMP JUMPDEST SWAP1 POP GT PUSH2 0x16AD JUMPI PUSH1 0x40 MLOAD PUSH32 0x8C379A000000000000000000000000000000000000000000000000000000000 DUP2 MSTORE PUSH1 0x4 ADD PUSH2 0x16A4 SWAP1 PUSH2 0x2ECE JUMP JUMPDEST PUSH1 0x40 MLOAD DUP1 SWAP2 SUB SWAP1 REVERT JUMPDEST PUSH1 0x8 PUSH0 CALLER PUSH20 0xFFFFFFFFFFFFFFFFFFFFFFFFFFFFFFFFFFFFFFFF AND PUSH20 0xFFFFFFFFFFFFFFFFFFFFFFFFFFFFFFFFFFFFFFFF AND DUP2 MSTORE PUSH1 0x20 ADD SWAP1 DUP2 MSTORE PUSH1 0x20 ADD PUSH0 KECCAK256 PUSH1 0x2 ADD PUSH1 0x1 SWAP1 SLOAD SWAP1 PUSH2 0x100 EXP SWAP1 DIV PUSH1 0xFF AND ISZERO PUSH2 0x173B JUMPI PUSH1 0x40 MLOAD PUSH32 0x8C379A000000000000000000000000000000000000000000000000000000000 DUP2 MSTORE PUSH1 0x4 ADD PUSH2 0x1732 SWAP1 PUSH2 0x2F5C JUMP JUMPDEST PUSH1 0x40 MLOAD DUP1 SWAP2 SUB SWAP1 REVERT JUMPDEST PUSH0 PUSH1 0x8 PUSH0 DUP4 PUSH20 0xFFFFFFFFFFFFFFFFFFFFFFFFFFFFFFFFFFFFFFFF AND PUSH20 0xFFFFFFFFFFFFFFFFFFFFFFFFFFFFFFFFFFFFFFFF AND DUP2 MSTORE PUSH1 0x20 ADD SWAP1 DUP2 MSTORE PUSH1 0x20 ADD PUSH0 KECCAK256 PUSH0 ADD DUP1 SLOAD PUSH2 0x1786 SWAP1 PUSH2 0x2755 JUMP JUMPDEST SWAP1 POP GT PUSH2 0x17C8 JUMPI PUSH1 0x40 MLOAD PUSH32 0x8C379A000000000000000000000000000000000000000000000000000000000 DUP2 MSTORE PUSH1 0x4 ADD PUSH2 0x17BF SWAP1 PUSH2 0x2FEA JUMP JUMPDEST PUSH1 0x40 MLOAD DUP1 SWAP2 SUB SWAP1 REVERT JUMPDEST DUP1 PUSH1 0x8 PUSH0 CALLER PUSH20 0xFFFFFFFFFFFFFFFFFFFFFFFFFFFFFFFFFFFFFFFF AND PUSH20 0xFFFFFFFFFFFFFFFFFFFFFFFFFFFFFFFFFFFFFFFF AND DUP2 MSTORE PUSH1 0x20 ADD SWAP1 DUP2 MSTORE PUSH1 0x20 ADD PUSH0 KECCAK256 PUSH1 0x2 ADD PUSH1 0x2 PUSH2 0x100 EXP DUP2 SLOAD DUP2 PUSH20 0xFFFFFFFFFFFFFFFFFFFFFFFFFFFFFFFFFFFFFFFF MUL NOT AND SWAP1 DUP4 PUSH20 0xFFFFFFFFFFFFFFFFFFFFFFFFFFFFFFFFFFFFFFFF AND MUL OR SWAP1 SSTORE POP POP JUMP JUMPDEST PUSH0 PUSH1 0x60 PUSH0 DUP1 PUSH1 0x15 SWAP1 SLOAD SWAP1 PUSH2 0x100 EXP SWAP1 DIV PUSH1 0xFF AND PUSH2 0x189C JUMPI PUSH1 0x40 MLOAD PUSH32 0x8C379A000000000000000000000000000000000000000000000000000000000 DUP2 MSTORE PUSH1 0x4 ADD PUSH2 0x1893 SWAP1 PUSH2 0x2DFE JUMP JUMPDEST PUSH1 0x40 MLOAD DUP1 SWAP2 SUB SWAP1 REVERT JUMPDEST PUSH0 PUSH1 0x60 PUSH0 DUP1 JUMPDEST PUSH1 0x5 DUP1 SLOAD SWAP1 POP DUP2 LT ISZERO PUSH2 0x19BC JUMPI DUP4 PUSH1 0x5 DUP3 DUP2 SLOAD DUP2 LT PUSH2 0x18C4 JUMPI PUSH2 0x18C3 PUSH2 0x2BB3 JUMP JUMPDEST JUMPDEST SWAP1 PUSH0 MSTORE PUSH1 0x20 PUSH0 KECCAK256 SWAP1 PUSH1 0x4 MUL ADD PUSH1 0x2 ADD SLOAD GT ISZERO PUSH2 0x19AF JUMPI PUSH1 0x5 DUP2 DUP2 SLOAD DUP2 LT PUSH2 0x18EE JUMPI PUSH2 0x18ED PUSH2 0x2BB3 JUMP JUMPDEST JUMPDEST SWAP1 PUSH0 MSTORE PUSH1 0x20 PUSH0 KECCAK256 SWAP1 PUSH1 0x4 MUL ADD PUSH1 0x2 ADD SLOAD SWAP4 POP PUSH1 0x5 DUP2 DUP2 SLOAD DUP2 LT PUSH2 0x1914 JUMPI PUSH2 0x1913 PUSH2 0x2BB3 JUMP JUMPDEST JUMPDEST SWAP1 PUSH0 MSTORE PUSH1 0x20 PUSH0 KECCAK256 SWAP1 PUSH1 0x4 MUL ADD PUSH0 ADD DUP1 SLOAD PUSH2 0x192D SWAP1 PUSH2 0x2755 JUMP JUMPDEST DUP1 PUSH1 0x1F ADD PUSH1 0x20 DUP1 SWAP2 DIV MUL PUSH1 0x20 ADD PUSH1 0x40 MLOAD SWAP1 DUP2 ADD PUSH1 0x40 MSTORE DUP1 SWAP3 SWAP2 SWAP1 DUP2 DUP2 MSTORE PUSH1 0x20 ADD DUP3 DUP1 SLOAD PUSH2 0x1959 SWAP1 PUSH2 0x2755 JUMP JUMPDEST DUP1 ISZERO PUSH2 0x19A4 JUMPI DUP1 PUSH1 0x1F LT PUSH2 0x197B JUMPI PUSH2 0x100 DUP1 DUP4 SLOAD DIV MUL DUP4 MSTORE SWAP2 PUSH1 0x20 ADD SWAP2 PUSH2 0x19A4 JUMP JUMPDEST DUP3 ADD SWAP2 SWAP1 PUSH0 MSTORE PUSH1 0x20 PUSH0 KECCAK256 SWAP1 JUMPDEST DUP2 SLOAD DUP2 MSTORE SWAP1 PUSH1 0x1 ADD SWAP1 PUSH1 0x20 ADD DUP1 DUP4 GT PUSH2 0x1987 JUMPI DUP3 SWAP1 SUB PUSH1 0x1F AND DUP3 ADD SWAP2 JUMPDEST POP POP POP POP POP SWAP3 POP DUP1 SWAP2 POP JUMPDEST DUP1 DUP1 PUSH1 0x1 ADD SWAP2 POP POP PUSH2 0x18A2 JUMP JUMPDEST POP DUP1 DUP3 DUP5 SWAP6 POP SWAP6 POP SWAP6 POP POP POP POP SWAP1 SWAP2 SWAP3 JUMP JUMPDEST PUSH1 0x60 PUSH1 0x5 DUP1 SLOAD DUP1 PUSH1 0x20 MUL PUSH1 0x20 ADD PUSH1 0x40 MLOAD SWAP1 DUP2 ADD PUSH1 0x40 MSTORE DUP1 SWAP3 SWAP2 SWAP1 DUP2 DUP2 MSTORE PUSH1 0x20 ADD PUSH0 SWAP1 JUMPDEST DUP3 DUP3 LT ISZERO PUSH2 0x1B9F JUMPI DUP4 DUP3 SWAP1 PUSH0 MSTORE PUSH1 0x20 PUSH0 KECCAK256 SWAP1 PUSH1 0x4 MUL ADD PUSH1 0x40 MLOAD DUP1 PUSH1 0x80 ADD PUSH1 0x40 MSTORE SWAP1 DUP2 PUSH0 DUP3 ADD DUP1 SLOAD PUSH2 0x1A21 SWAP1 PUSH2 0x2755 JUMP JUMPDEST DUP1 PUSH1 0x1F ADD PUSH1 0x20 DUP1 SWAP2 DIV MUL PUSH1 0x20 ADD PUSH1 0x40 MLOAD SWAP1 DUP2 ADD PUSH1 0x40 MSTORE DUP1 SWAP3 SWAP2 SWAP1 DUP2 DUP2 MSTORE PUSH1 0x20 ADD DUP3 DUP1 SLOAD PUSH2 0x1A4D SWAP1 PUSH2 0x2755 JUMP JUMPDEST DUP1 ISZERO PUSH2 0x1A98 JUMPI DUP1 PUSH1 0x1F LT PUSH2 0x1A6F JUMPI PUSH2 0x100 DUP1 DUP4 SLOAD DIV MUL DUP4 MSTORE SWAP2 PUSH1 0x20 ADD SWAP2 PUSH2 0x1A98 JUMP JUMPDEST DUP3 ADD SWAP2 SWAP1 PUSH0 MSTORE PUSH1 0x20 PUSH0 KECCAK256 SWAP1 JUMPDEST DUP2 SLOAD DUP2 MSTORE SWAP1 PUSH1 0x1 ADD SWAP1 PUSH1 0x20 ADD DUP1 DUP4 GT PUSH2 0x1A7B JUMPI DUP3 SWAP1 SUB PUSH1 0x1F AND DUP3 ADD SWAP2 JUMPDEST POP POP POP POP POP DUP2 MSTORE PUSH1 0x20 ADD PUSH1 0x1 DUP3 ADD DUP1 SLOAD PUSH2 0x1AB1 SWAP1 PUSH2 0x2755 JUMP JUMPDEST DUP1 PUSH1 0x1F ADD PUSH1 0x20 DUP1 SWAP2 DIV MUL PUSH1 0x20 ADD PUSH1 0x40 MLOAD SWAP1 DUP2 ADD PUSH1 0x40 MSTORE DUP1 SWAP3 SWAP2 SWAP1 DUP2 DUP2 MSTORE PUSH1 0x20 ADD DUP3 DUP1 SLOAD PUSH2 0x1ADD SWAP1 PUSH2 0x2755 JUMP JUMPDEST DUP1 ISZERO PUSH2 0x1B28 JUMPI DUP1 PUSH1 0x1F LT PUSH2 0x1AFF JUMPI PUSH2 0x100 DUP1 DUP4 SLOAD DIV MUL DUP4 MSTORE SWAP2 PUSH1 0x20 ADD SWAP2 PUSH2 0x1B28 JUMP JUMPDEST DUP3 ADD SWAP2 SWAP1 PUSH0 MSTORE PUSH1 0x20 PUSH0 KECCAK256 SWAP1 JUMPDEST DUP2 SLOAD DUP2 MSTORE SWAP1 PUSH1 0x1 ADD SWAP1 PUSH1 0x20 ADD DUP1 DUP4 GT PUSH2 0x1B0B JUMPI DUP3 SWAP1 SUB PUSH1 0x1F AND DUP3 ADD SWAP2 JUMPDEST POP POP POP POP POP DUP2 MSTORE PUSH1 0x20 ADD PUSH1 0x2 DUP3 ADD SLOAD DUP2 MSTORE PUSH1 0x20 ADD PUSH1 0x3 DUP3 ADD PUSH0 SWAP1 SLOAD SWAP1 PUSH2 0x100 EXP SWAP1 DIV PUSH20 0xFFFFFFFFFFFFFFFFFFFFFFFFFFFFFFFFFFFFFFFF AND PUSH20 0xFFFFFFFFFFFFFFFFFFFFFFFFFFFFFFFFFFFFFFFF AND PUSH20 0xFFFFFFFFFFFFFFFFFFFFFFFFFFFFFFFFFFFFFFFF AND DUP2 MSTORE POP POP DUP2 MSTORE PUSH1 0x20 ADD SWAP1 PUSH1 0x1 ADD SWAP1 PUSH2 0x19F1 JUMP JUMPDEST POP POP POP POP SWAP1 POP SWAP1 JUMP JUMPDEST PUSH0 PUSH1 0x14 SWAP1 SLOAD SWAP1 PUSH2 0x100 EXP SWAP1 DIV PUSH1 0xFF AND PUSH2 0x1BF6 JUMPI PUSH1 0x40 MLOAD PUSH32 0x8C379A000000000000000000000000000000000000000000000000000000000 DUP2 MSTORE PUSH1 0x4 ADD PUSH2 0x1BED SWAP1 PUSH2 0x2B95 JUMP JUMPDEST PUSH1 0x40 MLOAD DUP1 SWAP2 SUB SWAP1 REVERT JUMPDEST DUP2 PUSH20 0xFFFFFFFFFFFFFFFFFFFFFFFFFFFFFFFFFFFFFFFF AND CALLER PUSH20 0xFFFFFFFFFFFFFFFFFFFFFFFFFFFFFFFFFFFFFFFF AND SUB PUSH2 0x1CBC JUMPI PUSH1 0x8 PUSH0 DUP4 PUSH20 0xFFFFFFFFFFFFFFFFFFFFFFFFFFFFFFFFFFFFFFFF AND PUSH20 0xFFFFFFFFFFFFFFFFFFFFFFFFFFFFFFFFFFFFFFFF AND DUP2 MSTORE PUSH1 0x20 ADD SWAP1 DUP2 MSTORE PUSH1 0x20 ADD PUSH0 KECCAK256 PUSH1 0x2 ADD PUSH1 0x1 SWAP1 SLOAD SWAP1 PUSH2 0x100 EXP SWAP1 DIV PUSH1 0xFF AND ISZERO PUSH2 0x1CB7 JUMPI PUSH1 0x40 MLOAD PUSH32 0x8C379A000000000000000000000000000000000000000000000000000000000 DUP2 MSTORE PUSH1 0x4 ADD PUSH2 0x1CAE SWAP1 PUSH2 0x2F5C JUMP JUMPDEST PUSH1 0x40 MLOAD DUP1 SWAP2 SUB SWAP1 REVERT JUMPDEST PUSH2 0x1D8B JUMP JUMPDEST CALLER PUSH20 0xFFFFFFFFFFFFFFFFFFFFFFFFFFFFFFFFFFFFFFFF AND PUSH1 0x8 PUSH0 DUP5 PUSH20 0xFFFFFFFFFFFFFFFFFFFFFFFFFFFFFFFFFFFFFFFF AND PUSH20 0xFFFFFFFFFFFFFFFFFFFFFFFFFFFFFFFFFFFFFFFF AND DUP2 MSTORE PUSH1 0x20 ADD SWAP1 DUP2 MSTORE PUSH1 0x20 ADD PUSH0 KECCAK256 PUSH1 0x2 ADD PUSH1 0x2 SWAP1 SLOAD SWAP1 PUSH2 0x100 EXP SWAP1 DIV PUSH20 0xFFFFFFFFFFFFFFFFFFFFFFFFFFFFFFFFFFFFFFFF AND PUSH20 0xFFFFFFFFFFFFFFFFFFFFFFFFFFFFFFFFFFFFFFFF AND EQ PUSH2 0x1D8A JUMPI PUSH1 0x40 MLOAD PUSH32 0x8C379A000000000000000000000000000000000000000000000000000000000 DUP2 MSTORE PUSH1 0x4 ADD PUSH2 0x1D81 SWAP1 PUSH2 0x3078 JUMP JUMPDEST PUSH1 0x40 MLOAD DUP1 SWAP2 SUB SWAP1 REVERT JUMPDEST JUMPDEST PUSH1 0x1 PUSH1 0x8 PUSH0 DUP5 PUSH20 0xFFFFFFFFFFFFFFFFFFFFFFFFFFFFFFFFFFFFFFFF AND PUSH20 0xFFFFFFFFFFFFFFFFFFFFFFFFFFFFFFFFFFFFFFFF AND DUP2 MSTORE PUSH1 0x20 ADD SWAP1 DUP2 MSTORE PUSH1 0x20 ADD PUSH0 KECCAK256 PUSH1 0x2 ADD PUSH1 0x1 PUSH2 0x100 EXP DUP2 SLOAD DUP2 PUSH1 0xFF MUL NOT AND SWAP1 DUP4 ISZERO ISZERO MUL OR SWAP1 SSTORE POP PUSH1 0x1 PUSH1 0x5 DUP3 DUP2 SLOAD DUP2 LT PUSH2 0x1DFA JUMPI PUSH2 0x1DF9 PUSH2 0x2BB3 JUMP JUMPDEST JUMPDEST SWAP1 PUSH0 MSTORE PUSH1 0x20 PUSH0 KECCAK256 SWAP1 PUSH1 0x4 MUL ADD PUSH1 0x2 ADD PUSH0 DUP3 DUP3 SLOAD PUSH2 0x1E17 SWAP2 SWAP1 PUSH2 0x2B18 JUMP JUMPDEST SWAP3 POP POP DUP2 SWAP1 SSTORE POP DUP1 PUSH1 0xA PUSH0 DUP5 PUSH20 0xFFFFFFFFFFFFFFFFFFFFFFFFFFFFFFFFFFFFFFFF AND PUSH20 0xFFFFFFFFFFFFFFFFFFFFFFFFFFFFFFFFFFFFFFFF AND DUP2 MSTORE PUSH1 0x20 ADD SWAP1 DUP2 MSTORE PUSH1 0x20 ADD PUSH0 KECCAK256 DUP2 SWAP1 SSTORE POP PUSH1 0x1 PUSH1 0x4 PUSH0 DUP3 DUP3 SLOAD PUSH2 0x1E72 SWAP2 SWAP1 PUSH2 0x2B18 JUMP JUMPDEST SWAP3 POP POP DUP2 SWAP1 SSTORE POP POP POP JUMP JUMPDEST PUSH0 PUSH1 0x40 MLOAD SWAP1 POP SWAP1 JUMP JUMPDEST PUSH0 DUP1 REVERT JUMPDEST PUSH0 DUP1 REVERT JUMPDEST PUSH0 DUP1 REVERT JUMPDEST PUSH0 DUP1 REVERT JUMPDEST PUSH0 PUSH1 0x1F NOT PUSH1 0x1F DUP4 ADD AND SWAP1 POP SWAP2 SWAP1 POP JUMP JUMPDEST PUSH32 0x4E487B7100000000000000000000000000000000000000000000000000000000 PUSH0 MSTORE PUSH1 0x41 PUSH1 0x4 MSTORE PUSH1 0x24 PUSH0 REVERT JUMPDEST PUSH2 0x1EDC DUP3 PUSH2 0x1E96 JUMP JUMPDEST DUP2 ADD DUP2 DUP2 LT PUSH8 0xFFFFFFFFFFFFFFFF DUP3 GT OR ISZERO PUSH2 0x1EFB JUMPI PUSH2 0x1EFA PUSH2 0x1EA6 JUMP JUMPDEST JUMPDEST DUP1 PUSH1 0x40 MSTORE POP POP POP JUMP JUMPDEST PUSH0 PUSH2 0x1F0D PUSH2 0x1E7D JUMP JUMPDEST SWAP1 POP PUSH2 0x1F19 DUP3 DUP3 PUSH2 0x1ED3 JUMP JUMPDEST SWAP2 SWAP1 POP JUMP JUMPDEST PUSH0 PUSH8 0xFFFFFFFFFFFFFFFF DUP3 GT ISZERO PUSH2 0x1F38 JUMPI PUSH2 0x1F37 PUSH2 0x1EA6 JUMP JUMPDEST JUMPDEST PUSH2 0x1F41 DUP3 PUSH2 0x1E96 JUMP JUMPDEST SWAP1 POP PUSH1 0x20 DUP2 ADD SWAP1 POP SWAP2 SWAP1 POP JUMP JUMPDEST DUP3 DUP2 DUP4 CALLDATACOPY PUSH0 DUP4 DUP4 ADD MSTORE POP POP POP JUMP JUMPDEST PUSH0 PUSH2 0x1F6E PUSH2 0x1F69 DUP5 PUSH2 0x1F1E JUMP JUMPDEST PUSH2 0x1F04 JUMP JUMPDEST SWAP1 POP DUP3 DUP2 MSTORE PUSH1 0x20 DUP2 ADD DUP5 DUP5 DUP5 ADD GT ISZERO PUSH2 0x1F8A JUMPI PUSH2 0x1F89 PUSH2 0x1E92 JUMP JUMPDEST JUMPDEST PUSH2 0x1F95 DUP5 DUP3 DUP6 PUSH2 0x1F4E JUMP JUMPDEST POP SWAP4 SWAP3 POP POP POP JUMP JUMPDEST PUSH0 DUP3 PUSH1 0x1F DUP4 ADD SLT PUSH2 0x1FB1 JUMPI PUSH2 0x1FB0 PUSH2 0x1E8E JUMP JUMPDEST JUMPDEST DUP2 CALLDATALOAD PUSH2 0x1FC1 DUP5 DUP3 PUSH1 0x20 DUP7 ADD PUSH2 0x1F5C JUMP JUMPDEST SWAP2 POP POP SWAP3 SWAP2 POP POP JUMP JUMPDEST PUSH0 PUSH20 0xFFFFFFFFFFFFFFFFFFFFFFFFFFFFFFFFFFFFFFFF DUP3 AND SWAP1 POP SWAP2 SWAP1 POP JUMP JUMPDEST PUSH0 PUSH2 0x1FF3 DUP3 PUSH2 0x1FCA JUMP JUMPDEST SWAP1 POP SWAP2 SWAP1 POP JUMP JUMPDEST PUSH2 0x2003 DUP2 PUSH2 0x1FE9 JUMP JUMPDEST DUP2 EQ PUSH2 0x200D JUMPI PUSH0 DUP1 REVERT JUMPDEST POP JUMP JUMPDEST PUSH0 DUP2 CALLDATALOAD SWAP1 POP PUSH2 0x201E DUP2 PUSH2 0x1FFA JUMP JUMPDEST SWAP3 SWAP2 POP POP JUMP JUMPDEST PUSH0 DUP1 PUSH0 PUSH1 0x60 DUP5 DUP7 SUB SLT ISZERO PUSH2 0x203B JUMPI PUSH2 0x203A PUSH2 0x1E86 JUMP JUMPDEST JUMPDEST PUSH0 DUP5 ADD CALLDATALOAD PUSH8 0xFFFFFFFFFFFFFFFF DUP2 GT ISZERO PUSH2 0x2058 JUMPI PUSH2 0x2057 PUSH2 0x1E8A JUMP JUMPDEST JUMPDEST PUSH2 0x2064 DUP7 DUP3 DUP8 ADD PUSH2 0x1F9D JUMP JUMPDEST SWAP4 POP POP PUSH1 0x20 DUP5 ADD CALLDATALOAD PUSH8 0xFFFFFFFFFFFFFFFF DUP2 GT ISZERO PUSH2 0x2085 JUMPI PUSH2 0x2084 PUSH2 0x1E8A JUMP JUMPDEST JUMPDEST PUSH2 0x2091 DUP7 DUP3 DUP8 ADD PUSH2 0x1F9D JUMP JUMPDEST SWAP3 POP POP PUSH1 0x40 PUSH2 0x20A2 DUP7 DUP3 DUP8 ADD PUSH2 0x2010 JUMP JUMPDEST SWAP2 POP POP SWAP3 POP SWAP3 POP SWAP3 JUMP JUMPDEST PUSH0 DUP2 SWAP1 POP SWAP2 SWAP1 POP JUMP JUMPDEST PUSH2 0x20BE DUP2 PUSH2 0x20AC JUMP JUMPDEST DUP2 EQ PUSH2 0x20C8 JUMPI PUSH0 DUP1 REVERT JUMPDEST POP JUMP JUMPDEST PUSH0 DUP2 CALLDATALOAD SWAP1 POP PUSH2 0x20D9 DUP2 PUSH2 0x20B5 JUMP JUMPDEST SWAP3 SWAP2 POP POP JUMP JUMPDEST PUSH0 PUSH1 0x20 DUP3 DUP5 SUB SLT ISZERO PUSH2 0x20F4 JUMPI PUSH2 0x20F3 PUSH2 0x1E86 JUMP JUMPDEST JUMPDEST PUSH0 PUSH2 0x2101 DUP5 DUP3 DUP6 ADD PUSH2 0x20CB JUMP JUMPDEST SWAP2 POP POP SWAP3 SWAP2 POP POP JUMP JUMPDEST PUSH2 0x2113 DUP2 PUSH2 0x20AC JUMP JUMPDEST DUP3 MSTORE POP POP JUMP JUMPDEST PUSH0 DUP2 MLOAD SWAP1 POP SWAP2 SWAP1 POP JUMP JUMPDEST PUSH0 DUP3 DUP3 MSTORE PUSH1 0x20 DUP3 ADD SWAP1 POP SWAP3 SWAP2 POP POP JUMP JUMPDEST PUSH0 JUMPDEST DUP4 DUP2 LT ISZERO PUSH2 0x2150 JUMPI DUP1 DUP3 ADD MLOAD DUP2 DUP5 ADD MSTORE PUSH1 0x20 DUP2 ADD SWAP1 POP PUSH2 0x2135 JUMP JUMPDEST PUSH0 DUP5 DUP5 ADD MSTORE POP POP POP POP JUMP JUMPDEST PUSH0 PUSH2 0x2165 DUP3 PUSH2 0x2119 JUMP JUMPDEST PUSH2 0x216F DUP2 DUP6 PUSH2 0x2123 JUMP JUMPDEST SWAP4 POP PUSH2 0x217F DUP2 DUP6 PUSH1 0x20 DUP7 ADD PUSH2 0x2133 JUMP JUMPDEST PUSH2 0x2188 DUP2 PUSH2 0x1E96 JUMP JUMPDEST DUP5 ADD SWAP2 POP POP SWAP3 SWAP2 POP POP JUMP JUMPDEST PUSH0 PUSH1 0x60 DUP3 ADD SWAP1 POP PUSH2 0x21A6 PUSH0 DUP4 ADD DUP7 PUSH2 0x210A JUMP JUMPDEST DUP2 DUP2 SUB PUSH1 0x20 DUP4 ADD MSTORE PUSH2 0x21B8 DUP2 DUP6 PUSH2 0x215B JUMP JUMPDEST SWAP1 POP DUP2 DUP2 SUB PUSH1 0x40 DUP4 ADD MSTORE PUSH2 0x21CC DUP2 DUP5 PUSH2 0x215B JUMP JUMPDEST SWAP1 POP SWAP5 SWAP4 POP POP POP POP JUMP JUMPDEST PUSH0 PUSH1 0x20 DUP3 ADD SWAP1 POP PUSH2 0x21E9 PUSH0 DUP4 ADD DUP5 PUSH2 0x210A JUMP JUMPDEST SWAP3 SWAP2 POP POP JUMP JUMPDEST PUSH0 DUP1 PUSH0 PUSH1 0x60 DUP5 DUP7 SUB SLT ISZERO PUSH2 0x2206 JUMPI PUSH2 0x2205 PUSH2 0x1E86 JUMP JUMPDEST JUMPDEST PUSH0 PUSH2 0x2213 DUP7 DUP3 DUP8 ADD PUSH2 0x2010 JUMP JUMPDEST SWAP4 POP POP PUSH1 0x20 DUP5 ADD CALLDATALOAD PUSH8 0xFFFFFFFFFFFFFFFF DUP2 GT ISZERO PUSH2 0x2234 JUMPI PUSH2 0x2233 PUSH2 0x1E8A JUMP JUMPDEST JUMPDEST PUSH2 0x2240 DUP7 DUP3 DUP8 ADD PUSH2 0x1F9D JUMP JUMPDEST SWAP3 POP POP PUSH1 0x40 DUP5 ADD CALLDATALOAD PUSH8 0xFFFFFFFFFFFFFFFF DUP2 GT ISZERO PUSH2 0x2261 JUMPI PUSH2 0x2260 PUSH2 0x1E8A JUMP JUMPDEST JUMPDEST PUSH2 0x226D DUP7 DUP3 DUP8 ADD PUSH2 0x1F9D JUMP JUMPDEST SWAP2 POP POP SWAP3 POP SWAP3 POP SWAP3 JUMP JUMPDEST PUSH0 PUSH1 0x60 DUP3 ADD SWAP1 POP DUP2 DUP2 SUB PUSH0 DUP4 ADD MSTORE PUSH2 0x228F DUP2 DUP7 PUSH2 0x215B JUMP JUMPDEST SWAP1 POP DUP2 DUP2 SUB PUSH1 0x20 DUP4 ADD MSTORE PUSH2 0x22A3 DUP2 DUP6 PUSH2 0x215B JUMP JUMPDEST SWAP1 POP PUSH2 0x22B2 PUSH1 0x40 DUP4 ADD DUP5 PUSH2 0x210A JUMP JUMPDEST SWAP5 SWAP4 POP POP POP POP JUMP JUMPDEST PUSH0 DUP2 ISZERO ISZERO SWAP1 POP SWAP2 SWAP1 POP JUMP JUMPDEST PUSH2 0x22CE DUP2 PUSH2 0x22BA JUMP JUMPDEST DUP3 MSTORE POP POP JUMP JUMPDEST PUSH2 0x22DD DUP2 PUSH2 0x1FE9 JUMP JUMPDEST DUP3 MSTORE POP POP JUMP JUMPDEST PUSH0 PUSH1 0xC0 DUP3 ADD SWAP1 POP DUP2 DUP2 SUB PUSH0 DUP4 ADD MSTORE PUSH2 0x22FB DUP2 DUP10 PUSH2 0x215B JUMP JUMPDEST SWAP1 POP DUP2 DUP2 SUB PUSH1 0x20 DUP4 ADD MSTORE PUSH2 0x230F DUP2 DUP9 PUSH2 0x215B JUMP JUMPDEST SWAP1 POP PUSH2 0x231E PUSH1 0x40 DUP4 ADD DUP8 PUSH2 0x22C5 JUMP JUMPDEST PUSH2 0x232B PUSH1 0x60 DUP4 ADD DUP7 PUSH2 0x22C5 JUMP JUMPDEST PUSH2 0x2338 PUSH1 0x80 DUP4 ADD DUP6 PUSH2 0x22D4 JUMP JUMPDEST DUP2 DUP2 SUB PUSH1 0xA0 DUP4 ADD MSTORE PUSH2 0x234A DUP2 DUP5 PUSH2 0x215B JUMP JUMPDEST SWAP1 POP SWAP8 SWAP7 POP POP POP POP POP POP POP JUMP JUMPDEST PUSH0 PUSH1 0x20 DUP3 DUP5 SUB SLT ISZERO PUSH2 0x236C JUMPI PUSH2 0x236B PUSH2 0x1E86 JUMP JUMPDEST JUMPDEST PUSH0 PUSH2 0x2379 DUP5 DUP3 DUP6 ADD PUSH2 0x2010 JUMP JUMPDEST SWAP2 POP POP SWAP3 SWAP2 POP POP JUMP JUMPDEST PUSH0 PUSH1 0x60 DUP3 ADD SWAP1 POP PUSH2 0x2395 PUSH0 DUP4 ADD DUP7 PUSH2 0x210A JUMP JUMPDEST DUP2 DUP2 SUB PUSH1 0x20 DUP4 ADD MSTORE PUSH2 0x23A7 DUP2 DUP6 PUSH2 0x215B JUMP JUMPDEST SWAP1 POP PUSH2 0x23B6 PUSH1 0x40 DUP4 ADD DUP5 PUSH2 0x210A JUMP JUMPDEST SWAP5 SWAP4 POP POP POP POP JUMP JUMPDEST PUSH0 DUP2 MLOAD SWAP1 POP SWAP2 SWAP1 POP JUMP JUMPDEST PUSH0 DUP3 DUP3 MSTORE PUSH1 0x20 DUP3 ADD SWAP1 POP SWAP3 SWAP2 POP POP JUMP JUMPDEST PUSH0 DUP2 SWAP1 POP PUSH1 0x20 DUP3 ADD SWAP1 POP SWAP2 SWAP1 POP JUMP JUMPDEST PUSH0 DUP3 DUP3 MSTORE PUSH1 0x20 DUP3 ADD SWAP1 POP SWAP3 SWAP2 POP POP JUMP JUMPDEST PUSH0 PUSH2 0x2401 DUP3 PUSH2 0x2119 JUMP JUMPDEST PUSH2 0x240B DUP2 DUP6 PUSH2 0x23E7 JUMP JUMPDEST SWAP4 POP PUSH2 0x241B DUP2 DUP6 PUSH1 0x20 DUP7 ADD PUSH2 0x2133 JUMP JUMPDEST PUSH2 0x2424 DUP2 PUSH2 0x1E96 JUMP JUMPDEST DUP5 ADD SWAP2 POP POP SWAP3 SWAP2 POP POP JUMP JUMPDEST PUSH2 0x2438 DUP2 PUSH2 0x20AC JUMP JUMPDEST DUP3 MSTORE POP POP JUMP JUMPDEST PUSH2 0x2447 DUP2 PUSH2 0x1FE9 JUMP JUMPDEST DUP3 MSTORE POP POP JUMP JUMPDEST PUSH0 PUSH1 0x80 DUP4 ADD PUSH0 DUP4 ADD MLOAD DUP5 DUP3 SUB PUSH0 DUP7 ADD MSTORE PUSH2 0x2467 DUP3 DUP3 PUSH2 0x23F7 JUMP JUMPDEST SWAP2 POP POP PUSH1 0x20 DUP4 ADD MLOAD DUP5 DUP3 SUB PUSH1 0x20 DUP7 ADD MSTORE PUSH2 0x2481 DUP3 DUP3 PUSH2 0x23F7 JUMP JUMPDEST SWAP2 POP POP PUSH1 0x40 DUP4 ADD MLOAD PUSH2 0x2496 PUSH1 0x40 DUP7 ADD DUP3 PUSH2 0x242F JUMP JUMPDEST POP PUSH1 0x60 DUP4 ADD MLOAD PUSH2 0x24A9 PUSH1 0x60 DUP7 ADD DUP3 PUSH2 0x243E JUMP JUMPDEST POP DUP1 SWAP2 POP POP SWAP3 SWAP2 POP POP JUMP JUMPDEST PUSH0 PUSH2 0x24BF DUP4 DUP4 PUSH2 0x244D JUMP JUMPDEST SWAP1 POP SWAP3 SWAP2 POP POP JUMP JUMPDEST PUSH0 PUSH1 0x20 DUP3 ADD SWAP1 POP SWAP2 SWAP1 POP JUMP JUMPDEST PUSH0 PUSH2 0x24DD DUP3 PUSH2 0x23BE JUMP JUMPDEST PUSH2 0x24E7 DUP2 DUP6 PUSH2 0x23C8 JUMP JUMPDEST SWAP4 POP DUP4 PUSH1 0x20 DUP3 MUL DUP6 ADD PUSH2 0x24F9 DUP6 PUSH2 0x23D8 JUMP JUMPDEST DUP1 PUSH0 JUMPDEST DUP6 DUP2 LT ISZERO PUSH2 0x2534 JUMPI DUP5 DUP5 SUB DUP10 MSTORE DUP2 MLOAD PUSH2 0x2515 DUP6 DUP3 PUSH2 0x24B4 JUMP JUMPDEST SWAP5 POP PUSH2 0x2520 DUP4 PUSH2 0x24C7 JUMP JUMPDEST SWAP3 POP PUSH1 0x20 DUP11 ADD SWAP10 POP POP PUSH1 0x1 DUP2 ADD SWAP1 POP PUSH2 0x24FC JUMP JUMPDEST POP DUP3 SWAP8 POP DUP8 SWAP6 POP POP POP POP POP POP SWAP3 SWAP2 POP POP JUMP JUMPDEST PUSH0 PUSH1 0x20 DUP3 ADD SWAP1 POP DUP2 DUP2 SUB PUSH0 DUP4 ADD MSTORE PUSH2 0x255E DUP2 DUP5 PUSH2 0x24D3 JUMP JUMPDEST SWAP1 POP SWAP3 SWAP2 POP POP JUMP JUMPDEST PUSH0 DUP1 PUSH1 0x40 DUP4 DUP6 SUB SLT ISZERO PUSH2 0x257C JUMPI PUSH2 0x257B PUSH2 0x1E86 JUMP JUMPDEST JUMPDEST PUSH0 PUSH2 0x2589 DUP6 DUP3 DUP7 ADD PUSH2 0x2010 JUMP JUMPDEST SWAP3 POP POP PUSH1 0x20 PUSH2 0x259A DUP6 DUP3 DUP7 ADD PUSH2 0x20CB JUMP JUMPDEST SWAP2 POP POP SWAP3 POP SWAP3 SWAP1 POP JUMP JUMPDEST PUSH32 0x4F6E6C7920566F74696E672041646D696E20697320616C6C6F77656420746F20 PUSH0 DUP3 ADD MSTORE PUSH32 0x706572666F726D207468697320616374696F6E00000000000000000000000000 PUSH1 0x20 DUP3 ADD MSTORE POP JUMP JUMPDEST PUSH0 PUSH2 0x25FE PUSH1 0x33 DUP4 PUSH2 0x2123 JUMP JUMPDEST SWAP2 POP PUSH2 0x2609 DUP3 PUSH2 0x25A4 JUMP JUMPDEST PUSH1 0x40 DUP3 ADD SWAP1 POP SWAP2 SWAP1 POP JUMP JUMPDEST PUSH0 PUSH1 0x20 DUP3 ADD SWAP1 POP DUP2 DUP2 SUB PUSH0 DUP4 ADD MSTORE PUSH2 0x262B DUP2 PUSH2 0x25F2 JUMP JUMPDEST SWAP1 POP SWAP2 SWAP1 POP JUMP JUMPDEST PUSH32 0x43616E6E6F74206164642043616E64696461746520617320656C656374696F6E PUSH0 DUP3 ADD MSTORE PUSH32 0x2073746172746564000000000000000000000000000000000000000000000000 PUSH1 0x20 DUP3 ADD MSTORE POP JUMP JUMPDEST PUSH0 PUSH2 0x268C PUSH1 0x28 DUP4 PUSH2 0x2123 JUMP JUMPDEST SWAP2 POP PUSH2 0x2697 DUP3 PUSH2 0x2632 JUMP JUMPDEST PUSH1 0x40 DUP3 ADD SWAP1 POP SWAP2 SWAP1 POP JUMP JUMPDEST PUSH0 PUSH1 0x20 DUP3 ADD SWAP1 POP DUP2 DUP2 SUB PUSH0 DUP4 ADD MSTORE PUSH2 0x26B9 DUP2 PUSH2 0x2680 JUMP JUMPDEST SWAP1 POP SWAP2 SWAP1 POP JUMP JUMPDEST PUSH32 0x43616E64696461746520416C7265616479205265676973746572656400000000 PUSH0 DUP3 ADD MSTORE POP JUMP JUMPDEST PUSH0 PUSH2 0x26F4 PUSH1 0x1C DUP4 PUSH2 0x2123 JUMP JUMPDEST SWAP2 POP PUSH2 0x26FF DUP3 PUSH2 0x26C0 JUMP JUMPDEST PUSH1 0x20 DUP3 ADD SWAP1 POP SWAP2 SWAP1 POP JUMP JUMPDEST PUSH0 PUSH1 0x20 DUP3 ADD SWAP1 POP DUP2 DUP2 SUB PUSH0 DUP4 ADD MSTORE PUSH2 0x2721 DUP2 PUSH2 0x26E8 JUMP JUMPDEST SWAP1 POP SWAP2 SWAP1 POP JUMP JUMPDEST PUSH32 0x4E487B7100000000000000000000000000000000000000000000000000000000 PUSH0 MSTORE PUSH1 0x22 PUSH1 0x4 MSTORE PUSH1 0x24 PUSH0 REVERT JUMPDEST PUSH0 PUSH1 0x2 DUP3 DIV SWAP1 POP PUSH1 0x1 DUP3 AND DUP1 PUSH2 0x276C JUMPI PUSH1 0x7F DUP3 AND SWAP2 POP JUMPDEST PUSH1 0x20 DUP3 LT DUP2 SUB PUSH2 0x277F JUMPI PUSH2 0x277E PUSH2 0x2728 JUMP JUMPDEST JUMPDEST POP SWAP2 SWAP1 POP JUMP JUMPDEST PUSH0 DUP2 SWAP1 POP DUP2 PUSH0 MSTORE PUSH1 0x20 PUSH0 KECCAK256 SWAP1 POP SWAP2 SWAP1 POP JUMP JUMPDEST PUSH0 PUSH1 0x20 PUSH1 0x1F DUP4 ADD DIV SWAP1 POP SWAP2 SWAP1 POP JUMP JUMPDEST PUSH0 DUP3 DUP3 SHL SWAP1 POP SWAP3 SWAP2 POP POP JUMP JUMPDEST PUSH0 PUSH1 0x8 DUP4 MUL PUSH2 0x27E1 PUSH32 0xFFFFFFFFFFFFFFFFFFFFFFFFFFFFFFFFFFFFFFFFFFFFFFFFFFFFFFFFFFFFFFFF DUP3 PUSH2 0x27A6 JUMP JUMPDEST PUSH2 0x27EB DUP7 DUP4 PUSH2 0x27A6 JUMP JUMPDEST SWAP6 POP DUP1 NOT DUP5 AND SWAP4 POP DUP1 DUP7 AND DUP5 OR SWAP3 POP POP POP SWAP4 SWAP3 POP POP POP JUMP JUMPDEST PUSH0 DUP2 SWAP1 POP SWAP2 SWAP1 POP JUMP JUMPDEST PUSH0 PUSH2 0x2826 PUSH2 0x2821 PUSH2 0x281C DUP5 PUSH2 0x20AC JUMP JUMPDEST PUSH2 0x2803 JUMP JUMPDEST PUSH2 0x20AC JUMP JUMPDEST SWAP1 POP SWAP2 SWAP1 POP JUMP JUMPDEST PUSH0 DUP2 SWAP1 POP SWAP2 SWAP1 POP JUMP JUMPDEST PUSH2 0x283F DUP4 PUSH2 0x280C JUMP JUMPDEST PUSH2 0x2853 PUSH2 0x284B DUP3 PUSH2 0x282D JUMP JUMPDEST DUP5 DUP5 SLOAD PUSH2 0x27B2 JUMP JUMPDEST DUP3 SSTORE POP POP POP POP JUMP JUMPDEST PUSH0 SWAP1 JUMP JUMPDEST PUSH2 0x2867 PUSH2 0x285B JUMP JUMPDEST PUSH2 0x2872 DUP2 DUP5 DUP5 PUSH2 0x2836 JUMP JUMPDEST POP POP POP JUMP JUMPDEST JUMPDEST DUP2 DUP2 LT ISZERO PUSH2 0x2895 JUMPI PUSH2 0x288A PUSH0 DUP3 PUSH2 0x285F JUMP JUMPDEST PUSH1 0x1 DUP2 ADD SWAP1 POP PUSH2 0x2878 JUMP JUMPDEST POP POP JUMP JUMPDEST PUSH1 0x1F DUP3 GT ISZERO PUSH2 0x28DA JUMPI PUSH2 0x28AB DUP2 PUSH2 0x2785 JUMP JUMPDEST PUSH2 0x28B4 DUP5 PUSH2 0x2797 JUMP JUMPDEST DUP2 ADD PUSH1 0x20 DUP6 LT ISZERO PUSH2 0x28C3 JUMPI DUP2 SWAP1 POP JUMPDEST PUSH2 0x28D7 PUSH2 0x28CF DUP6 PUSH2 0x2797 JUMP JUMPDEST DUP4 ADD DUP3 PUSH2 0x2877 JUMP JUMPDEST POP POP JUMPDEST POP POP POP JUMP JUMPDEST PUSH0 DUP3 DUP3 SHR SWAP1 POP SWAP3 SWAP2 POP POP JUMP JUMPDEST PUSH0 PUSH2 0x28FA PUSH0 NOT DUP5 PUSH1 0x8 MUL PUSH2 0x28DF JUMP JUMPDEST NOT DUP1 DUP4 AND SWAP2 POP POP SWAP3 SWAP2 POP POP JUMP JUMPDEST PUSH0 PUSH2 0x2912 DUP4 DUP4 PUSH2 0x28EB JUMP JUMPDEST SWAP2 POP DUP3 PUSH1 0x2 MUL DUP3 OR SWAP1 POP SWAP3 SWAP2 POP POP JUMP JUMPDEST PUSH2 0x292B DUP3 PUSH2 0x2119 JUMP JUMPDEST PUSH8 0xFFFFFFFFFFFFFFFF DUP2 GT ISZERO PUSH2 0x2944 JUMPI PUSH2 0x2943 PUSH2 0x1EA6 JUMP JUMPDEST JUMPDEST PUSH2 0x294E DUP3 SLOAD PUSH2 0x2755 JUMP JUMPDEST PUSH2 0x2959 DUP3 DUP3 DUP6 PUSH2 0x2899 JUMP JUMPDEST PUSH0 PUSH1 0x20 SWAP1 POP PUSH1 0x1F DUP4 GT PUSH1 0x1 DUP2 EQ PUSH2 0x298A JUMPI PUSH0 DUP5 ISZERO PUSH2 0x2978 JUMPI DUP3 DUP8 ADD MLOAD SWAP1 POP JUMPDEST PUSH2 0x2982 DUP6 DUP3 PUSH2 0x2907 JUMP JUMPDEST DUP7 SSTORE POP PUSH2 0x29E9 JUMP JUMPDEST PUSH1 0x1F NOT DUP5 AND PUSH2 0x2998 DUP7 PUSH2 0x2785 JUMP JUMPDEST PUSH0 JUMPDEST DUP3 DUP2 LT ISZERO PUSH2 0x29BF JUMPI DUP5 DUP10 ADD MLOAD DUP3 SSTORE PUSH1 0x1 DUP3 ADD SWAP2 POP PUSH1 0x20 DUP6 ADD SWAP5 POP PUSH1 0x20 DUP2 ADD SWAP1 POP PUSH2 0x299A JUMP JUMPDEST DUP7 DUP4 LT ISZERO PUSH2 0x29DC JUMPI DUP5 DUP10 ADD MLOAD PUSH2 0x29D8 PUSH1 0x1F DUP10 AND DUP3 PUSH2 0x28EB JUMP JUMPDEST DUP4 SSTORE POP JUMPDEST PUSH1 0x1 PUSH1 0x2 DUP9 MUL ADD DUP9 SSTORE POP POP POP JUMPDEST POP POP POP POP POP POP JUMP JUMPDEST PUSH0 DUP2 SLOAD SWAP1 POP PUSH2 0x29FF DUP2 PUSH2 0x2755 JUMP JUMPDEST SWAP1 POP SWAP2 SWAP1 POP JUMP JUMPDEST DUP2 DUP2 SUB PUSH2 0x2A14 JUMPI POP POP PUSH2 0x2AE9 JUMP JUMPDEST PUSH2 0x2A1D DUP3 PUSH2 0x29F1 JUMP JUMPDEST PUSH8 0xFFFFFFFFFFFFFFFF DUP2 GT ISZERO PUSH2 0x2A36 JUMPI PUSH2 0x2A35 PUSH2 0x1EA6 JUMP JUMPDEST JUMPDEST PUSH2 0x2A40 DUP3 SLOAD PUSH2 0x2755 JUMP JUMPDEST PUSH2 0x2A4B DUP3 DUP3 DUP6 PUSH2 0x2899 JUMP JUMPDEST PUSH0 PUSH1 0x1F DUP4 GT PUSH1 0x1 DUP2 EQ PUSH2 0x2A78 JUMPI PUSH0 DUP5 ISZERO PUSH2 0x2A66 JUMPI DUP3 DUP8 ADD SLOAD SWAP1 POP JUMPDEST PUSH2 0x2A70 DUP6 DUP3 PUSH2 0x2907 JUMP JUMPDEST DUP7 SSTORE POP PUSH2 0x2AE2 JUMP JUMPDEST PUSH1 0x1F NOT DUP5 AND PUSH2 0x2A86 DUP8 PUSH2 0x2785 JUMP JUMPDEST SWAP7 POP PUSH2 0x2A91 DUP7 PUSH2 0x2785 JUMP JUMPDEST PUSH0 JUMPDEST DUP3 DUP2 LT ISZERO PUSH2 0x2AB8 JUMPI DUP5 DUP10 ADD SLOAD DUP3 SSTORE PUSH1 0x1 DUP3 ADD SWAP2 POP PUSH1 0x1 DUP6 ADD SWAP5 POP PUSH1 0x20 DUP2 ADD SWAP1 POP PUSH2 0x2A93 JUMP JUMPDEST DUP7 DUP4 LT ISZERO PUSH2 0x2AD5 JUMPI DUP5 DUP10 ADD SLOAD PUSH2 0x2AD1 PUSH1 0x1F DUP10 AND DUP3 PUSH2 0x28EB JUMP JUMPDEST DUP4 SSTORE POP JUMPDEST PUSH1 0x1 PUSH1 0x2 DUP9 MUL ADD DUP9 SSTORE POP POP POP JUMPDEST POP POP POP POP POP POP JUMPDEST JUMP JUMPDEST PUSH32 0x4E487B7100000000000000000000000000000000000000000000000000000000 PUSH0 MSTORE PUSH1 0x11 PUSH1 0x4 MSTORE PUSH1 0x24 PUSH0 REVERT JUMPDEST PUSH0 PUSH2 0x2B22 DUP3 PUSH2 0x20AC JUMP JUMPDEST SWAP2 POP PUSH2 0x2B2D DUP4 PUSH2 0x20AC JUMP JUMPDEST SWAP3 POP DUP3 DUP3 ADD SWAP1 POP DUP1 DUP3 GT ISZERO PUSH2 0x2B45 JUMPI PUSH2 0x2B44 PUSH2 0x2AEB JUMP JUMPDEST JUMPDEST SWAP3 SWAP2 POP POP JUMP JUMPDEST PUSH32 0x456C656374696F6E204E6F742053746172746564000000000000000000000000 PUSH0 DUP3 ADD MSTORE POP JUMP JUMPDEST PUSH0 PUSH2 0x2B7F PUSH1 0x14 DUP4 PUSH2 0x2123 JUMP JUMPDEST SWAP2 POP PUSH2 0x2B8A DUP3 PUSH2 0x2B4B JUMP JUMPDEST PUSH1 0x20 DUP3 ADD SWAP1 POP SWAP2 SWAP1 POP JUMP JUMPDEST PUSH0 PUSH1 0x20 DUP3 ADD SWAP1 POP DUP2 DUP2 SUB PUSH0 DUP4 ADD MSTORE PUSH2 0x2BAC DUP2 PUSH2 0x2B73 JUMP JUMPDEST SWAP1 POP SWAP2 SWAP1 POP JUMP JUMPDEST PUSH32 0x4E487B7100000000000000000000000000000000000000000000000000000000 PUSH0 MSTORE PUSH1 0x32 PUSH1 0x4 MSTORE PUSH1 0x24 PUSH0 REVERT JUMPDEST PUSH0 DUP2 SWAP1 POP SWAP3 SWAP2 POP POP JUMP JUMPDEST PUSH0 PUSH2 0x2BF4 DUP3 PUSH2 0x2119 JUMP JUMPDEST PUSH2 0x2BFE DUP2 DUP6 PUSH2 0x2BE0 JUMP JUMPDEST SWAP4 POP PUSH2 0x2C0E DUP2 DUP6 PUSH1 0x20 DUP7 ADD PUSH2 0x2133 JUMP JUMPDEST DUP1 DUP5 ADD SWAP2 POP POP SWAP3 SWAP2 POP POP JUMP JUMPDEST PUSH0 PUSH2 0x2C25 DUP3 DUP5 PUSH2 0x2BEA JUMP JUMPDEST SWAP2 POP DUP2 SWAP1 POP SWAP3 SWAP2 POP POP JUMP JUMPDEST PUSH32 0x566F746572207769746820746869732069642070726F6F6620616C7265616479 PUSH0 DUP3 ADD MSTORE PUSH32 0x2072656769737465726564000000000000000000000000000000000000000000 PUSH1 0x20 DUP3 ADD MSTORE POP JUMP JUMPDEST PUSH0 PUSH2 0x2C8A PUSH1 0x2B DUP4 PUSH2 0x2123 JUMP JUMPDEST SWAP2 POP PUSH2 0x2C95 DUP3 PUSH2 0x2C30 JUMP JUMPDEST PUSH1 0x40 DUP3 ADD SWAP1 POP SWAP2 SWAP1 POP JUMP JUMPDEST PUSH0 PUSH1 0x20 DUP3 ADD SWAP1 POP DUP2 DUP2 SUB PUSH0 DUP4 ADD MSTORE PUSH2 0x2CB7 DUP2 PUSH2 0x2C7E JUMP JUMPDEST SWAP1 POP SWAP2 SWAP1 POP JUMP JUMPDEST PUSH32 0x566F74657220416C726561647920526567697374657265640000000000000000 PUSH0 DUP3 ADD MSTORE POP JUMP JUMPDEST PUSH0 PUSH2 0x2CF2 PUSH1 0x18 DUP4 PUSH2 0x2123 JUMP JUMPDEST SWAP2 POP PUSH2 0x2CFD DUP3 PUSH2 0x2CBE JUMP JUMPDEST PUSH1 0x20 DUP3 ADD SWAP1 POP SWAP2 SWAP1 POP JUMP JUMPDEST PUSH0 PUSH1 0x20 DUP3 ADD SWAP1 POP DUP2 DUP2 SUB PUSH0 DUP4 ADD MSTORE PUSH2 0x2D1F DUP2 PUSH2 0x2CE6 JUMP JUMPDEST SWAP1 POP SWAP2 SWAP1 POP JUMP JUMPDEST PUSH32 0x43616E6E6F742061646420566F74657220617320656C656374696F6E20737461 PUSH0 DUP3 ADD MSTORE PUSH32 0x7274656400000000000000000000000000000000000000000000000000000000 PUSH1 0x20 DUP3 ADD MSTORE POP JUMP JUMPDEST PUSH0 PUSH2 0x2D80 PUSH1 0x24 DUP4 PUSH2 0x2123 JUMP JUMPDEST SWAP2 POP PUSH2 0x2D8B DUP3 PUSH2 0x2D26 JUMP JUMPDEST PUSH1 0x40 DUP3 ADD SWAP1 POP SWAP2 SWAP1 POP JUMP JUMPDEST PUSH0 PUSH1 0x20 DUP3 ADD SWAP1 POP DUP2 DUP2 SUB PUSH0 DUP4 ADD MSTORE PUSH2 0x2DAD DUP2 PUSH2 0x2D74 JUMP JUMPDEST SWAP1 POP SWAP2 SWAP1 POP JUMP JUMPDEST PUSH32 0x456C656374696F6E20686173206E6F7420656E64656420796574000000000000 PUSH0 DUP3 ADD MSTORE POP JUMP JUMPDEST PUSH0 PUSH2 0x2DE8 PUSH1 0x1A DUP4 PUSH2 0x2123 JUMP JUMPDEST SWAP2 POP PUSH2 0x2DF3 DUP3 PUSH2 0x2DB4 JUMP JUMPDEST PUSH1 0x20 DUP3 ADD SWAP1 POP SWAP2 SWAP1 POP JUMP JUMPDEST PUSH0 PUSH1 0x20 DUP3 ADD SWAP1 POP DUP2 DUP2 SUB PUSH0 DUP4 ADD MSTORE PUSH2 0x2E15 DUP2 PUSH2 0x2DDC JUMP JUMPDEST SWAP1 POP SWAP2 SWAP1 POP JUMP JUMPDEST PUSH32 0x596F7520617265206E6F742061207265676973746572656420766F7465720000 PUSH0 DUP3 ADD MSTORE POP JUMP JUMPDEST PUSH0 PUSH2 0x2E50 PUSH1 0x1E DUP4 PUSH2 0x2123 JUMP JUMPDEST SWAP2 POP PUSH2 0x2E5B DUP3 PUSH2 0x2E1C JUMP JUMPDEST PUSH1 0x20 DUP3 ADD SWAP1 POP SWAP2 SWAP1 POP JUMP JUMPDEST PUSH0 PUSH1 0x20 DUP3 ADD SWAP1 POP DUP2 DUP2 SUB PUSH0 DUP4 ADD MSTORE PUSH2 0x2E7D DUP2 PUSH2 0x2E44 JUMP JUMPDEST SWAP1 POP SWAP2 SWAP1 POP JUMP JUMPDEST PUSH32 0x566F746572206973206E6F742052656769737465726564000000000000000000 PUSH0 DUP3 ADD MSTORE POP JUMP JUMPDEST PUSH0 PUSH2 0x2EB8 PUSH1 0x17 DUP4 PUSH2 0x2123 JUMP JUMPDEST SWAP2 POP PUSH2 0x2EC3 DUP3 PUSH2 0x2E84 JUMP JUMPDEST PUSH1 0x20 DUP3 ADD SWAP1 POP SWAP2 SWAP1 POP JUMP JUMPDEST PUSH0 PUSH1 0x20 DUP3 ADD SWAP1 POP DUP2 DUP2 SUB PUSH0 DUP4 ADD MSTORE PUSH2 0x2EE5 DUP2 PUSH2 0x2EAC JUMP JUMPDEST SWAP1 POP SWAP2 SWAP1 POP JUMP JUMPDEST PUSH32 0x596F75206861766520616C72656164792063617374656420796F757220766F74 PUSH0 DUP3 ADD MSTORE PUSH32 0x6500000000000000000000000000000000000000000000000000000000000000 PUSH1 0x20 DUP3 ADD MSTORE POP JUMP JUMPDEST PUSH0 PUSH2 0x2F46 PUSH1 0x21 DUP4 PUSH2 0x2123 JUMP JUMPDEST SWAP2 POP PUSH2 0x2F51 DUP3 PUSH2 0x2EEC JUMP JUMPDEST PUSH1 0x40 DUP3 ADD SWAP1 POP SWAP2 SWAP1 POP JUMP JUMPDEST PUSH0 PUSH1 0x20 DUP3 ADD SWAP1 POP DUP2 DUP2 SUB PUSH0 DUP4 ADD MSTORE PUSH2 0x2F73 DUP2 PUSH2 0x2F3A JUMP JUMPDEST SWAP1 POP SWAP2 SWAP1 POP JUMP JUMPDEST PUSH32 0x566F74657220796F752061726520747279696E6720746F2064656C6567617465 PUSH0 DUP3 ADD MSTORE PUSH32 0x206973206E6F7420526567697374657265640000000000000000000000000000 PUSH1 0x20 DUP3 ADD MSTORE POP JUMP JUMPDEST PUSH0 PUSH2 0x2FD4 PUSH1 0x32 DUP4 PUSH2 0x2123 JUMP JUMPDEST SWAP2 POP PUSH2 0x2FDF DUP3 PUSH2 0x2F7A JUMP JUMPDEST PUSH1 0x40 DUP3 ADD SWAP1 POP SWAP2 SWAP1 POP JUMP JUMPDEST PUSH0 PUSH1 0x20 DUP3 ADD SWAP1 POP DUP2 DUP2 SUB PUSH0 DUP4 ADD MSTORE PUSH2 0x3001 DUP2 PUSH2 0x2FC8 JUMP JUMPDEST SWAP1 POP SWAP2 SWAP1 POP JUMP JUMPDEST PUSH32 0x596F7520617265206E6F7420617574686F72697A656420746F20766F7465206F PUSH0 DUP3 ADD MSTORE PUSH32 0x6E207468697320766F746572277320626568616C660000000000000000000000 PUSH1 0x20 DUP3 ADD MSTORE POP JUMP JUMPDEST PUSH0 PUSH2 0x3062 PUSH1 0x35 DUP4 PUSH2 0x2123 JUMP JUMPDEST SWAP2 POP PUSH2 0x306D DUP3 PUSH2 0x3008 JUMP JUMPDEST PUSH1 0x40 DUP3 ADD SWAP1 POP SWAP2 SWAP1 POP JUMP JUMPDEST PUSH0 PUSH1 0x20 DUP3 ADD SWAP1 POP DUP2 DUP2 SUB PUSH0 DUP4 ADD MSTORE PUSH2 0x308F DUP2 PUSH2 0x3056 JUMP JUMPDEST SWAP1 POP SWAP2 SWAP1 POP JUMP INVALID LOG2 PUSH5 0x6970667358 0x22 SLT KECCAK256 0xE8 SAR 0xB5 STATICCALL SWAP16 PUSH31 0x251B7EBB2E120C92E94717FFD35DE36488460CA238A076D315E64736F6C63 NUMBER STOP ADDMOD AND STOP CALLER "
				},
				"gasEstimates": {
					"creation": {
						"codeDepositCost": "2498400",
						"executionCost": "26958",
						"totalCost": "2525358"
					},
					"external": {
						"addCandidate(string,string,address)": "infinite",
						"addVoter(address,string,string)": "infinite",
						"candidateCount()": "2492",
						"castVote(address,uint256)": "infinite",
						"delegateVote(address)": "infinite",
						"fetchCadidate(uint256)": "infinite",
						"fetchVoter()": "infinite",
						"getCandidateList()": "infinite",
						"showResults(uint256)": "infinite",
						"showWinner()": "infinite",
						"startElection()": "26692",
						"stopElection()": "53189",
						"totalVoteCasted()": "2514",
						"voterCount()": "2448"
					}
				},
				"methodIdentifiers": {
					"addCandidate(string,string,address)": "0b32ff77",
					"addVoter(address,string,string)": "516077d5",
					"candidateCount()": "a9a981a3",
					"castVote(address,uint256)": "ff91bb45",
					"delegateVote(address)": "b31e1d4d",
					"fetchCadidate(uint256)": "37719cbe",
					"fetchVoter()": "84532105",
					"getCandidateList()": "fdbc4006",
					"showResults(uint256)": "79614b2e",
					"showWinner()": "b7e03264",
					"startElection()": "62d73eb8",
					"stopElection()": "2df9feaa",
					"totalVoteCasted()": "6f406fab",
					"voterCount()": "42169e48"
				}
			},
			"storageLayout": {
				"storage": [
					{
						"astId": 3,
						"contract": "contracts/Voting.sol:voting",
						"label": "votingAdmin",
						"offset": 0,
						"slot": "0",
						"type": "t_address"
					},
					{
						"astId": 14,
						"contract": "contracts/Voting.sol:voting",
						"label": "electionStarted",
						"offset": 20,
						"slot": "0",
						"type": "t_bool"
					},
					{
						"astId": 16,
						"contract": "contracts/Voting.sol:voting",
						"label": "electionEnded",
						"offset": 21,
						"slot": "0",
						"type": "t_bool"
					},
					{
						"astId": 18,
						"contract": "contracts/Voting.sol:voting",
						"label": "candidateId",
						"offset": 0,
						"slot": "1",
						"type": "t_uint256"
					},
					{
						"astId": 20,
						"contract": "contracts/Voting.sol:voting",
						"label": "candidateCount",
						"offset": 0,
						"slot": "2",
						"type": "t_uint256"
					},
					{
						"astId": 22,
						"contract": "contracts/Voting.sol:voting",
						"label": "voterCount",
						"offset": 0,
						"slot": "3",
						"type": "t_uint256"
					},
					{
						"astId": 24,
						"contract": "contracts/Voting.sol:voting",
						"label": "totalVoteCasted",
						"offset": 0,
						"slot": "4",
						"type": "t_uint256"
					},
					{
						"astId": 37,
						"contract": "contracts/Voting.sol:voting",
						"label": "candidates",
						"offset": 0,
						"slot": "5",
						"type": "t_array(t_struct(candidateDetails)33_storage)dyn_storage"
					},
					{
						"astId": 52,
						"contract": "contracts/Voting.sol:voting",
						"label": "candidateAddressRegistered",
						"offset": 0,
						"slot": "6",
						"type": "t_mapping(t_address,t_bool)"
					},
					{
						"astId": 57,
						"contract": "contracts/Voting.sol:voting",
						"label": "candidate",
						"offset": 0,
						"slot": "7",
						"type": "t_mapping(t_uint256,t_struct(candidateDetails)33_storage)"
					},
					{
						"astId": 62,
						"contract": "contracts/Voting.sol:voting",
						"label": "voter",
						"offset": 0,
						"slot": "8",
						"type": "t_mapping(t_address,t_struct(voterDetails)48_storage)"
					},
					{
						"astId": 66,
						"contract": "contracts/Voting.sol:voting",
						"label": "uniqueVoterIdProof",
						"offset": 0,
						"slot": "9",
						"type": "t_mapping(t_string_memory_ptr,t_bool)"
					},
					{
						"astId": 70,
						"contract": "contracts/Voting.sol:voting",
						"label": "voteCastedTo",
						"offset": 0,
						"slot": "10",
						"type": "t_mapping(t_address,t_uint256)"
					}
				],
				"types": {
					"t_address": {
						"encoding": "inplace",
						"label": "address",
						"numberOfBytes": "20"
					},
					"t_array(t_struct(candidateDetails)33_storage)dyn_storage": {
						"base": "t_struct(candidateDetails)33_storage",
						"encoding": "dynamic_array",
						"label": "struct voting.candidateDetails[]",
						"numberOfBytes": "32"
					},
					"t_bool": {
						"encoding": "inplace",
						"label": "bool",
						"numberOfBytes": "1"
					},
					"t_mapping(t_address,t_bool)": {
						"encoding": "mapping",
						"key": "t_address",
						"label": "mapping(address => bool)",
						"numberOfBytes": "32",
						"value": "t_bool"
					},
					"t_mapping(t_address,t_struct(voterDetails)48_storage)": {
						"encoding": "mapping",
						"key": "t_address",
						"label": "mapping(address => struct voting.voterDetails)",
						"numberOfBytes": "32",
						"value": "t_struct(voterDetails)48_storage"
					},
					"t_mapping(t_address,t_uint256)": {
						"encoding": "mapping",
						"key": "t_address",
						"label": "mapping(address => uint256)",
						"numberOfBytes": "32",
						"value": "t_uint256"
					},
					"t_mapping(t_string_memory_ptr,t_bool)": {
						"encoding": "mapping",
						"key": "t_string_memory_ptr",
						"label": "mapping(string => bool)",
						"numberOfBytes": "32",
						"value": "t_bool"
					},
					"t_mapping(t_uint256,t_struct(candidateDetails)33_storage)": {
						"encoding": "mapping",
						"key": "t_uint256",
						"label": "mapping(uint256 => struct voting.candidateDetails)",
						"numberOfBytes": "32",
						"value": "t_struct(candidateDetails)33_storage"
					},
					"t_string_memory_ptr": {
						"encoding": "bytes",
						"label": "string",
						"numberOfBytes": "32"
					},
					"t_string_storage": {
						"encoding": "bytes",
						"label": "string",
						"numberOfBytes": "32"
					},
					"t_struct(candidateDetails)33_storage": {
						"encoding": "inplace",
						"label": "struct voting.candidateDetails",
						"members": [
							{
								"astId": 26,
								"contract": "contracts/Voting.sol:voting",
								"label": "name",
								"offset": 0,
								"slot": "0",
								"type": "t_string_storage"
							},
							{
								"astId": 28,
								"contract": "contracts/Voting.sol:voting",
								"label": "agenda",
								"offset": 0,
								"slot": "1",
								"type": "t_string_storage"
							},
							{
								"astId": 30,
								"contract": "contracts/Voting.sol:voting",
								"label": "votes",
								"offset": 0,
								"slot": "2",
								"type": "t_uint256"
							},
							{
								"astId": 32,
								"contract": "contracts/Voting.sol:voting",
								"label": "candidateAddress",
								"offset": 0,
								"slot": "3",
								"type": "t_address"
							}
						],
						"numberOfBytes": "128"
					},
					"t_struct(voterDetails)48_storage": {
						"encoding": "inplace",
						"label": "struct voting.voterDetails",
						"members": [
							{
								"astId": 39,
								"contract": "contracts/Voting.sol:voting",
								"label": "name",
								"offset": 0,
								"slot": "0",
								"type": "t_string_storage"
							},
							{
								"astId": 41,
								"contract": "contracts/Voting.sol:voting",
								"label": "voterIdProof",
								"offset": 0,
								"slot": "1",
								"type": "t_string_storage"
							},
							{
								"astId": 43,
								"contract": "contracts/Voting.sol:voting",
								"label": "voteDeligated",
								"offset": 0,
								"slot": "2",
								"type": "t_bool"
							},
							{
								"astId": 45,
								"contract": "contracts/Voting.sol:voting",
								"label": "voteCasted",
								"offset": 1,
								"slot": "2",
								"type": "t_bool"
							},
							{
								"astId": 47,
								"contract": "contracts/Voting.sol:voting",
								"label": "voteDelegatedTo",
								"offset": 2,
								"slot": "2",
								"type": "t_address"
							}
						],
						"numberOfBytes": "96"
					},
					"t_uint256": {
						"encoding": "inplace",
						"label": "uint256",
						"numberOfBytes": "32"
					}
				}
			},
			"userdoc": {
				"kind": "user",
				"methods": {},
				"version": 1
			}
		}
	}
}